:100000000C94AF010C94E0010C94E0010C94E0011D
:100010000C94E0010C94E0010C94E0010C94E001DC
:100020000C94E0010C94E0010C94E0010C94E001CC
:100030000C94E0010C94E0010C94E0010C94E001BC
:100040000C94E0010C94E0010C94E0010C94E001AC
:100050000C94E0010C94E0010C94E0010C949D1CC4
:100060000C94E0010C94B91D0C948F1D0C94E001CC
:100070000C94E0010C94E0010C94E0010C94E0017C
:100080000C94E0010C94E0010C94E0010C94E0016C
:100090000C94E0010C94E0010C94E0010C94E31D3D
:1000A0000C94E0010C94E0010C94E0010C94E0014C
:1000B0000C94E0010C94E0010C94E0010C94E0013C
:1000C0000C94E0010C94E0010C94E0010C94651D8B
:1000D0000C943B1D0C94E0010C94111D0C94E71C36
:1000E0000C94E001084AD73B3BCE016E84BCBFFDB7
:1000F000C12F3D6C74319ABD56833DDA3D00C77FF8
:1001000011BED9E4BB4C3E916BAAAABE0000008090
:100110003F000C944C060C94430B0C948C020C94F2
:1001200088020C9492090C94071F0C94BB0A0C943F
:100130005E020C947F330C94BD090C94700A0C94ED
:10014000AB020C943D1B0C949D0D0C9440090C9437
:1001500049080C94E9180C94B9100C94510B0C94A8
:1001600056100C94C3090C94A3020C94440C0C94E8
:10017000E7180C944A0B0C94910A0C94C5090C9442
:10018000D10A0C9439070C94C1090C94B9020C944F
:100190001B0A0C9433100C94260B0C94C71B0C9464
:1001A000BE020C945F020C94ED300C94A7020C94E8
:1001B0008A100C94580B0C94B5020C947E020C948B
:1001C000161C0C94B9090C9493020C9492060C948E
:1001D0003C0A0C949D020C9474090C94BF090C9475
:1001E00034100C94BB090C94C3020C94EB180C94BF
:1001F0000F0B0C942E0B0C9499020C943C0B0C944A
:10020000B1020C94DF060C9490020C9443100C94F1
:10021000350B0C94821B0C9486070C94B7090C9434
:10022000ED180C944A080C94BF020C94A1060C948F
:10023000ED060C9484020C945D1000002100240053
:1002400027002A002D0030003300010100000401C6
:1002500007010A0100002200250028002B002E00C3
:100260003100340002010000050108010B0100000B
:1002700020002300260029002C002F00320000015E
:100280000000030106010901050505050705080829
:100290000808020202020A0A080804040404010110
:1002A0000101010101010303030303030303040725
:1002B00007070C0C0C0C0C0C0C0C020202020606BC
:1002C0000606060606060B0B0B0B0B0B0B0B0102AF
:1002D0001020200808102040102040800201020158
:1002E0000804020101020408102040808040201010
:1002F0000804020180040201804020100804020169
:1003000008040201010204081020408001020408D0
:100310001020408000000A0B02090C0D0E08070394
:1003200004010000000000000000000000000000C8
:1003300000000000000000000000000000000000BD
:10034000121110000000000000000000000000007A
:1003500000000000000000000000071FED30112425
:100360001FBECFEFD1E2DEBFCDBF00E00CBF27E064
:10037000AEE8B2E001C01D92AD3DB207E1F712E078
:10038000A0E0B2E0ECEBF2E700E00BBF02C00790A8
:100390000D92AE38B107D9F711E0CEEAD1E000E016
:1003A00006C021970109802FFE010E940233CD3A39
:1003B000D10780E00807A9F70E9432220C944C393B
:1003C0000C940000CF93DF93EC019A01AB01E88914
:1003D000F98982E08083211581EE380741055105B6
:1003E00081F160E079E08DE390E00E94C13221501C
:1003F0003109410951095695479537952795EC855F
:10040000FD851082EE85FF852083188EEC89FD899D
:1004100086E08083EA89FB89808180618083EA8924
:10042000FB89808188608083EA89FB89808180687C
:100430008083EA89FB8980818F7D8083DF91CF91E2
:100440000895E889F989108220E1D9CFFC019081D3
:10045000909528E081E397FF03C0990F982701C08A
:10046000990F2150C1F78181892798E021E387FF07
:1004700003C0880F822701C0880F9150C1F70895EB
:10048000FC019081909528E030E081E397FF03C064
:10049000990F982701C0990F21503109B9F781812F
:1004A000892728E030E091E387FF03C0880F892780
:1004B00001C0880F21503109B9F7089508950895B2
:1004C0008150823108F05AC0E82FF0E08827E459C3
:1004D000FD4F8F4F0C9402338C0290027E028402F7
:1004E0008802BE02930299029D02A302A702AB02F8
:1004F000B102B502BE02B902BF02C3028091800000
:100500008F77809380000895809180008F7DF9CF50
:1005100080918000877FF5CF84B58F7784BD089563
:1005200084B58F7DFBCF8091B0008F778093B00032
:1005300008958091B0008F7DF9CF809190008F77E2
:10054000809390000895809190008F7DF9CF8091E5
:100550009000877FF5CF8091A0008F778093A000D7
:1005600008958091A0008F7DF9CF8091A000877FB2
:10057000F5CF809120018F7780932001089580919D
:1005800020018F7DF9CF80912001877FF5CFCF9318
:10059000DF93282F30E0F901EC5EFC4F8491F901E4
:1005A000E253FD4FD491F901E857FD4FC491CC239C
:1005B000A1F081110E946002EC2FF0E0EE0FFF1F0E
:1005C000E259FD4FA591B491EC91ED2381E090E0CB
:1005D00009F480E0DF91CF91089580E090E0FACFB8
:1005E0001F93CF93DF93282F30E0F901EC5EFC4F8F
:1005F0008491F901E253FD4FD491F901E857FD4F81
:10060000C491CC23A9F0162F81110E946002EC2F17
:10061000F0E0EE0FFF1FEC5AFD4FA591B4918FB79C
:10062000F894EC91111108C0D095DE23DC938FBFB4
:10063000DF91CF911F910895DE2BF8CFFC018385C8
:100640008F3F19F061E00C94F0020895FC01808165
:100650009181892B39F0A281B3819C9111968C9163
:100660009CBD8DBD83858F3F19F060E00C94F00236
:100670000895CF93DF9390E0FC01E253FD4F249166
:1006800088579D4FFC0184918823D1F090E0880F1A
:10069000991FFC01E65CFD4FA591B491FC01EC5A59
:1006A000FD4FC591D49161110EC09FB7F8948C9104
:1006B000E22FE0958E238C932881E223E8839FBF6D
:1006C000DF91CF9108958FB7F894EC91E22BEC93E2
:1006D0008FBFF6CF8230910538F0880F991F880FB1
:1006E000991F05970197F1F70895AF92BF92CF92A6
:1006F000DF92EF92FF920F931F93CF93DF93EC0162
:1007000088819981892B89F06EBD0DB407FEFDCFDC
:10071000BEB48B2DDF91CF911F910F91FF90EF9081
:10072000DF90CF90BF90AF9008958885998511E0B4
:10073000892B09F010E8AA24A394862F812309F0BD
:10074000A12C062F2C813D814E815F8160E271EAF0
:1007500087E090E00E94C132F22EB02EE12CC22E32
:10076000D12CFF2019F0C6010E946A038A85877F79
:1007700009F042C08D858F3F89F0902F912381E051
:1007800009F480E08A1551F0EF85F8898F89992363
:1007900069F19081892B8083AA24A394E989FA893D
:1007A0008081998D892B8083FF2019F0C6010E94DA
:1007B0006A038E858F3F39F0EB89FC898081988DA3
:1007C000892309F0E12AE989FA899081898D809548
:1007D000892380838E858F3F09F0BE2C888599857B
:1007E000892BB9F5110F1111BCCF93CF9081809552
:1007F00089238083A12CD2CFE989FA898081998DC0
:10080000892B8083FF2019F0C6010E946A038D8521
:100810008F3F49F0EF85F8898F89902F9123A9F0B8
:100820009081892B8083E989FA899081898D8095CF
:10083000892380838E858F3F69F2EB89FC898081D3
:10084000988D892339F2E12AC5CF9081809589233B
:10085000E9CF1695C8CFCF92DF92EF92FF920F9318
:100860001F93CF93DF938C01EB016A0179010E9402
:1008700026036881C8010E947503E601EC0CFD1C8B
:100880006FEFC8010E9475038993CE15DF05C1F78C
:10089000C8010E941E0381E0DF91CF911F910F914B
:1008A000FF90EF90DF90CF9008953FB7F89480913C
:1008B000D9029091DA02A091DB02B091DC0226B558
:1008C000A89B05C02F3F19F00196A11DB11D3FBF88
:1008D000BA2FA92F982F8827BC01CD01620F711D57
:1008E000811D911D42E0660F771F881F991F4A9551
:1008F000D1F708958F929F92AF92BF92CF92DF92DD
:10090000EF92FF924B015C010E9455046B017C0148
:100910000E9455046C197D098E099F09683E734039
:1009200081059105A8F321E0821A9108A108B10878
:1009300088EEC80E83E0D81EE11CF11C81149104DE
:10094000A104B10429F7FF90EF90DF90CF90BF9002
:10095000AF909F908F9008952FB7F8946091D50233
:100960007091D6028091D7029091D8022FBF08953E
:100970000E94AC0484E98093BC008091BC0084FD9B
:10098000FCCF80E00895CF93C82F0E94AC0484EC84
:10099000C11101C084E88093BC008091BC0087FF36
:1009A000FCCF8091B900887F883351F48091B900E1
:1009B000887F1092BC0094E49093BC00CF9108957E
:1009C0008091B900887FFACFCF938093BB000E94BB
:1009D000AC0484E88093BC008091BC0087FFFCCF0E
:1009E0008091B900887F8831E9F08091B900887FD3
:1009F0008034C1F0C091B900C87F8091B900887F70
:100A0000803269F08091B900887F883441F010927B
:100A1000BC0084E48093BC008C2FCF9108950E9489
:100A2000B804FACFC0E0F8CF0E94AC0484EA809307
:100A3000BC008091BC0087FFFCCF8091B900887F0B
:100A40008830B9F08091B900887F803191F0809131
:100A5000B900887F883349F48091B900887F10926B
:100A6000BC0094E49093BC0008958091B900887F05
:100A7000089580E008956F927F928F929F92AF9237
:100A8000BF92CF92DF92EF92FF920F931F93CF937B
:100A9000DF93CDB7DEB7C054D1090FB6F894DEBFEF
:100AA0000FBECDBF3C015B01AA0CBB1CA60EB71E3E
:100AB0000A2D8FEF8A0D8093E2021092E1020E94CC
:100AC00014058093E10281111BC083ED0E94E404B0
:100AD0008093E102882321F0813091F485E010C0F9
:100AE000CE0101967C0110E08091E20281135BC08F
:100AF00080E00E94C3048093E1028130E9F586E042
:100B0000082F880F110B01151105F9F4CE0101967C
:100B10004C0163017C01C7010E942602F70192810A
:100B200098134CC08081F6018083F7018181F60122
:100B30008183F3E0EF0EF11C82E0C80ED11CC701E7
:100B4000881999098A159B0530F3C801C05CDF4FED
:100B50000FB6F894DEBF0FBECDBFDF91CF911F91CE
:100B60000F91FF90EF90DF90CF90BF90AF909F904C
:100B70008F907F906F900895883511F68091BB001B
:100B8000F70181937F011F5F101708F4ADCF0E941A
:100B9000B8048093E102882309F4B2CF813009F0D0
:100BA000AFCF87E0ADCF81E00E94C3048093E10224
:100BB000813009F4A4CF803509F3A2CF0FEF1FEFE6
:100BC000C4CFCF938093BB000E94AC0484E8809391
:100BD000BC008091BC0087FFFCCF8091B900887F6A
:100BE000C0E0883251F0C091B900C87F8091B9004F
:100BF000887F803329F40E94B8048C2FCF91089508
:100C00001092BC0084E48093BC00F7CFFF920F9356
:100C10001F93CF93DF93C82FF62E172F042F109218
:100C2000E1020E9414058093E102811124C082ED4B
:100C30000E94E4048093E102882321F08130D9F4FA
:100C400082E019C08C2F0E94E1058093E10281119E
:100C50000FC0CF2DD12F0C0F1D2F111DC017D10785
:100C600081F089910E94E1058093E1028823B1F32C
:100C7000813009F483E0DF91CF911F910F91FF90B4
:100C800008950E94B8048093E1028823A1F3813083
:100C900091F787E0F0CF0895AF92BF92CF92DF92A5
:100CA000EF92FF920F931F93CF93DF936C017B0121
:100CB0008B01040F151FEB015E01AE18BF08C017B2
:100CC000D10759F06991D601ED91FC910190F08125
:100CD000E02DC6011995892B79F7C501DF91CF91D8
:100CE0001F910F91FF90EF90DF90CF90BF90AF904A
:100CF0000895FC01A089B1898C91A689B78982FDEC
:100D00000FC09C91818D8F5F8F73228D821749F068
:100D1000A18DAE0FBF2FB11D5D969C93818F08955D
:100D20008C910895FC01538D448D252F30E0842F44
:100D300090E0821B930B541710F0CF960895019703
:100D40000895FC01918D828D981761F0A28DAE0FF0
:100D5000BF2FB11D5D968C91928D9F5F9F73928F77
:100D600090E008958FEF9FEF08950F931F93CF9317
:100D7000DF93EC010E94AC04688779878A879B87A0
:100D8000CE010E94A10697FF15C00E94AC04088501
:100D900019852A853B85601B710B820B930B0C8197
:100DA0001D812E813F81601771078207930740F3F1
:100DB0008FEF9FEFDF91CF911F910F910895FC016D
:100DC000918D828D981731F0828DE80FF11D858D00
:100DD00090E008958FEF9FEF0895FC01918D228D93
:100DE000892F90E0805C9F4F821B91098F73992718
:100DF000089585E793E00E94ED0621E0892B09F430
:100E000020E0822F089582E194E00E94ED0621E027
:100E1000892B09F420E0822F08958FEA94E00E9444
:100E2000ED0621E0892B09F420E0822F0895FC01D2
:100E3000A48DA80FB92FB11DA35ABF4F2C91848D3B
:100E400090E001968F739927848FA689B7892C9398
:100E5000A089B1898C91837080648C93938D848DEB
:100E6000981306C00288F389E02D80818F7D8083EE
:100E70000895EF92FF920F931F93CF93DF93EC01AE
:100E800081E0888F9B8D8C8D98131AC0E889F98931
:100E9000808185FF15C09FB7F894EE89FF89608334
:100EA000E889F98980818370806480839FBF81E0B5
:100EB00090E0DF91CF911F910F91FF90EF900895F7
:100EC000F62E0B8D10E00F5F1F4F0F731127E02ED2
:100ED0008C8D8E110CC00FB607FCFACFE889F9890A
:100EE000808185FFF5CFCE010E941707F1CFEB8DF2
:100EF000EC0FFD2FF11DE35AFF4FF0829FB7F894DE
:100F00000B8FEA89FB8980818062CFCFCF93DF93FB
:100F1000EC01888D8823B9F0AA89BB89E889F98911
:100F20008C9185FD03C0808186FD0DC00FB607FC46
:100F3000F7CF8C9185FFF2CF808185FFEDCFCE0179
:100F40000E941707E9CFDF91CF91089580E090E0EC
:100F5000892B29F00E940D0781110E94000080E07A
:100F600090E0892B49F080E090E0892B29F00E94E5
:100F7000000081110E94000080E090E0892B29F0A0
:100F80000E94030781110E94000080E090E0892BFD
:100F900029F00E94F90681110C9400000895EF9247
:100FA000FF920F931F93CF93DF93EC01022F78836F
:100FB00069837A01229610E0101789F0F701818188
:100FC000F2E0EF0EF11C8883F7013297808189836C
:100FD000CE010E9426028A831F5F2396EDCF23E075
:100FE000129FC00111240296DF91CF911F910F91A2
:100FF000FF90EF900895CF93DF931F921F92CDB78C
:10100000DEB720E050E040E0BC01CE0101960E9436
:10101000CF0741E0BE016E5F7F4F89810E940606C7
:10102000082E000C990B0F900F90DF91CF9108952F
:10103000CF93DF93CDB7DEB7A0970FB6F894DEBF9E
:101040000FBECDBF242FAB01BC01CE0101960E9483
:10105000CF078823A1F04FEF480FBE016E5F7F4F8F
:1010600089810E940606082E000C990BA0960FB6E7
:10107000F894DEBF0FBECDBFDF91CF91089580E021
:10108000F2CFFC0160817181828193810E940A33D9
:10109000089508950895CF92DF92EF92FF92CF9333
:1010A000DF93EC010E9455046B017C0188A599A592
:1010B000AAA5BBA5B701A601481B590B6A0B7B0B60
:1010C0008B819C81AD81BE81481759076A077B07D8
:1010D00048F188899989AA89BB892A812223F1F05C
:1010E0000196A11DB11D888B998BAA8BBB8B48895A
:1010F00059896A897B89E881F9810484F585E02D25
:10110000CE011995C8A6D9A6EAA6FBA681E0DF9173
:10111000CF91FF90EF90DF90CF9008950197A109B4
:10112000B109E1CF80E0F3CF4F925F926F927F924F
:101130008F929F92AF92BF92CF92DF92EF92FF92E7
:10114000CF93DF9300D000D0CDB7DEB79E838D83E1
:10115000DC0158968D909D90AD90BC905B9720E0FF
:1011600030E0A901C501B4010E945F31882309F470
:1011700072C0A5019401C501B4010E94C5316B0183
:101180007C01ED81FE8160A171A182A193A19B01EF
:10119000AC010E94B1349B01AC01C701B6010E94B1
:1011A0008F350E9401366B017C01AD81BE81509666
:1011B0004D905D906D907C90539754968D919D913C
:1011C0000D90BC91A02D89839A83AB83BC8320E0D2
:1011D00030E0A901C501B4010E94B2361816B4F579
:1011E000BFEFCB1ADB0AEB0AFB0A4C0C5D1C6E1C32
:1011F0007F1C89819A81AB81BC8184159505A605E8
:10120000B70549F1AD81BE8154964D925D926D92C4
:101210007C925797ED91FC9111970084F185E02D18
:10122000CD0126960FB6F894DEBF0FBECDBFDF917D
:10123000CF91FF90EF90DF90CF90BF90AF909F90B5
:101240008F907F906F905F904F901994C094D0943E
:10125000E094F094CACF26960FB6F894DEBF0FBE86
:10126000CDBFDF91CF91FF90EF90DF90CF90BF90F7
:10127000AF909F908F907F906F905F904F90089568
:10128000CF93DF93FC012781222359F1EC0161E028
:1012900080850E94390361E089850E9439038F812E
:1012A000843011F08830B1F461E08A850E943903FE
:1012B00061E08B850E9439038FA58F3F91F061E03B
:1012C0000E9439036EA581E068278FA5DF91CF9139
:1012D0000C94F002833011F0863071F761E08A855A
:1012E000E9CFDF91CF910895CF93DF93FC01278160
:1012F0002223A9F0EC010190F081E02D0284F38516
:10130000E02D60E019958FA58F3F49F061E00E94C4
:1013100039036EA58FA5DF91CF910C94F002DF9178
:10132000CF910895DC01ED91FC91119722853385D1
:101330004770552766277727415051096109710980
:10134000473051056105710570F4FA018827E455AD
:10135000F64F8F4F0C940233B709B909BB09BD0989
:10136000BF09C109C30961E0CD01F901199465E024
:10137000FBCF64E0F9CF66E0F7CF62E0F5CF6AE03B
:10138000F3CF68E0F1CF69E0EFCFCF93DF93EC01CB
:10139000CB01BA0126E030E040E050E00E94E332A9
:1013A000623071058105910589F16CF46115710553
:1013B00081059105D1F06130710581059105F9F044
:1013C000DF91CF910895643071058105910561F138
:1013D00024F1653071058105910591F7E881F98166
:1013E0000284F385E02D66E006C0E881F98102847D
:1013F000F385E02D64E0CE01DF91CF911994E8816F
:10140000F9810284F385E02D65E0F5CFE881F9816B
:101410000284F385E02D61E0EECFE881F98102845A
:10142000F385E02D63E0E7CFE881F9810284F3855D
:10143000E02D62E0E0CFDC01ED91FC910284F385C8
:10144000E02D437055276627772742305105610507
:10145000710571F0433051056105710559F0413056
:1014600051056105710511F065E0199466E0FDCF45
:101470006AE0FBCF69E0F9CFCF93DF93EC01CB01BA
:10148000BA0123E030E040E050E00E94E3326130F6
:1014900071058105910599F062307105810591050D
:1014A000A9F0672B682B692BC1F4E881F9810284CC
:1014B000F385E02D64E0CE01DF91CF911994E881AE
:1014C000F9810284F385E02D61E0F5CFE881F981AF
:1014D0000284F385E02D62E0EECFDF91CF91089595
:1014E000DC01ED91FC910284F385E02D43705527DA
:1014F00066277727423051056105710571F0433049
:1015000051056105710559F04130510561057105BD
:1015100011F062E0199463E0FDCF61E0FBCF60E081
:10152000F9CFCF93DF93EC01E881F9810284F38551
:10153000E02D8A8160E0811162E0CE011995E88199
:10154000F9810284F385E02D8A8161E0811163E0F5
:10155000CE0119958CA59DA50E946A03E881F981A9
:101560000284F385E02D8A8160E0811162E0CE0182
:10157000DF91CF911994CF93DF93EC0120E030E01D
:10158000A901688D798D8A8D9B8D0E94B2361816BF
:101590002CF4E8A9F9A9DF91CF911994EAA9FBA944
:1015A000FACFCF92DF92EF92FF920F931F93CF93D8
:1015B000DF93DC011796CC91C43039F0C83059F173
:1015C000C33019F0C63049F1C2E08C01085F1F4FEB
:1015D000F12CE12CC62ED12CD1E0F8016481C6019A
:1015E0000E2C02C0959587950A94E2F780FD6D2731
:1015F0000F5F1F4F80810E94F002BFEFEB1AFB0AC2
:10160000EC1658F3DF91CF911F910F91FF90EF905F
:10161000DF90CF900895C4E0D8CFC3E0D6CFDC01EF
:101620001796EC911797E93008F042C0F0E0882750
:10163000E35EF44F8F4F0C940233260B2E0B350BC9
:101640003C0B430B580B4A0B580B510BED91FC9183
:1016500011970684F785E02DCD011994ED91FC9149
:1016600011970088F189E02DF7CFED91FC9111974A
:101670000288F389E02DF0CFED91FC911197048859
:10168000F589E02DE9CFED91FC9111970688F78956
:10169000E02DE2CFED91FC911197008CF18DE02DC2
:1016A000DBCFED91FC911197028CF38DE02DD4CF1F
:1016B00008954F925F926F927F92AF92BF92CF92B6
:1016C000DF92EF92FF920F931F93CF93DF93EC0182
:1016D0005A018B019A01AB01688D798D8A8D9B8DA2
:1016E0000E945F31882379F14C8C5D8C6E8C7F8CED
:1016F00073016201F7FAF094F7F8F094A7019601EC
:10170000B501C8010E945F3187FD0CC0A3019201A1
:10171000B501C8010E94B23673016201181614F0B7
:101720006501780120E030E0A901C701B6010E94FF
:101730005F31811117C01B821C821D821E82C88EE0
:10174000D98EEA8EFB8EDF91CF911F910F91FF9082
:10175000EF90DF90CF90BF90AF907F906F905F90B1
:101760004F900895A701960160E074E284E799E440
:101770000E948F359F770E9408366B837C838D8310
:101780009E8311E020E030E0A901C701B6010E946C
:10179000B23618160CF010E01A83D1CFCF92DF9238
:1017A000EF92FF920F931F93CF93DF93EC016A01A7
:1017B0007B0120E030E0A901CB01B6010E945F313E
:1017C00087FF04C0F7FAF094F7F8F094A7019601A8
:1017D0006C8D7D8D8E8D9F8D0E945F31882309F4E5
:1017E0004AC0CC8EDD8EEE8EFF8E8E01005C1F4FC8
:1017F000A701960160E074E284E799E40E948F35C6
:10180000F80160837183828393838CA99DA9AEA91B
:10181000BFA9181619061A061B066CF5688D798D76
:101820008A8D9B8D9B01AC010E94C5316B017C01AF
:1018300068A179A18AA19BA19B01AC010E94B1344E
:101840009B01AC01C701B6010E948F350E94013691
:101850006CAB7DAB8EAB9FABE881F9810084F185E9
:10186000E02DCE01DF91CF911F910F91FF90EF906E
:10187000DF90CF901994DF91CF911F910F91FF903E
:10188000EF90DF90CF9008954F925F926F927F928A
:101890008F929F92AF92BF92CF92DF92EF92FF9280
:1018A0000F931F93CF93DF93EC01CC88DD88EE88F4
:1018B000FF8888899989AA89BB89C81AD90AEA0A3E
:1018C000FB0A688D798D8A8D9B8D9B01AC010E94EE
:1018D000C5314B015C0168A179A18AA19BA19B0143
:1018E000AC010E94B1349B01AC01C501B4010E945E
:1018F0008F350E940136C114D104E104F10409F0CE
:10190000B6C062307105810591050CF0D0C01B8214
:101910001C821D821E82188E198E1A8E1B8E1CAA86
:101920001DAA1EAA1FAAC12CD12C7601C701B6017F
:10193000DF91CF911F910F91FF90EF90DF90CF90AB
:10194000BF90AF909F908F907F906F905F904F90DF
:1019500008951016110612061306B4F46C157D05D1
:101960008E059F051CF42A812111A1C09B01AC01A9
:1019700088279927DC01821B930BA40BB50B8CAB3A
:101980009DABAEABBFAB93C0011511052105310571
:1019900009F48DC06C157D058E059F050CF087C080
:1019A0008A81882309F483C030952095109501958C
:1019B0001F4F2F4F3F4F0CAB1DAB2EAB3FAB77C034
:1019C000011511052105310509F471C088249924F8
:1019D00054018C189D08AE08BF08681579058A0562
:1019E0009B050CF064C08A81811161C0DDCFCCAC55
:1019F000DDACEEACFFACA7019601C701B6010E94B9
:101A0000B1342B013C01C501B4010E94663120E0D4
:101A100030E040E850E40E94C53120E030E040E88A
:101A20005FE30E94B1349B01AC01C301B2010E948B
:101A30008F359B01AC01C701B6010E94B0343B0158
:101A40006C01FE01E05CFF4FE080F18002811381B8
:101A50009701A8010E94B236181614F4730186018A
:101A6000C701D8018CAF9DAFAEAFBFAF3AC00CA9D4
:101A70001DA92EA93FA91C141D041E041F040CF44B
:101A800068CF10161106120613060CF099CF002726
:101A9000112798010C191D092E093F0960177107BC
:101AA000820793070CF062CF2A8121115FCF8CA8A7
:101AB0009DA8AEA8BFA881149104A104B10409F0A7
:101AC00096CF88AD99ADAAADBBAD8CAF9DAFAEAF93
:101AD000BFAF81E01C141D041E041F040CF080E045
:101AE0008A833FEF831A930AA30AB30A8CAA9DAA9A
:101AF000AEAABFAA8CAC9DACAEACBFACC501B40164
:101B00000E9408366B017C01CB82DC82ED82FE8272
:101B1000A501940160E074E284E799E40E948F35A6
:101B2000688F798F8A8F9B8F2A812111FFCE9058E1
:101B3000688F798F8A8F9B8FF9CE08952091AF029D
:101B4000260F3327331F21323105ECF420916F0328
:101B5000FC0190E080E0243069F082E00895A091DB
:101B6000AF022191AC0141575D4FA40FB52FB11DBC
:101B70002C930196861798F38091AF02680F6093BB
:101B8000AF0280E0089581E0089510926F0381E034
:101B900080934E031092490361E084E10E94F002B9
:101BA00061E085E10E94F002E9EBF0E080818E7F48
:101BB000808380818D7F808388E48093B80085E472
:101BC0008093BC00089510920403109203031092B6
:101BD0000603109228030E94C50D8EE592E09093B3
:101BE000E0028093DF028FE592E09093DE02809323
:101BF000DD020895CF93DF9391E090938E028823C6
:101C0000B9F0C091B800D091BA008091BC008A7B35
:101C10008093BC0060E084E10E94F00260E085E116
:101C20000E94F0020E94C50DD093BA00C093B80084
:101C3000DF91CF9108958F929F92AF92BF92CF92F2
:101C4000DF92EF92FF920F931F93CF93DF93D82FE2
:101C5000C62F142F613208F09CC00E9455046B01FE
:101C60007C0180916F0381116FC081E080936F03CD
:101C700010934E039FEF90934D0310924C039C0FD3
:101C800090934B0380934A0380914A03DD0FD82B36
:101C9000D0934A0380914903813009F07CC01092AF
:101CA00049030E9455046B017C0180914A03809393
:101CB000BB008091710390917203A0917303B09166
:101CC0007403892B8A2B8B2BA1F00E945504009161
:101CD00071031091720320917303309174036C1996
:101CE0007D098E099F09061717072807390708F489
:101CF0004CC08091BC0083FDD8CF85EC8093BC00A4
:101D00000E9455046B017C0180916F03813009F4BE
:101D100044C080914C038C1710F4C0914C03E9E24D
:101D2000F3E0AFE4B3E080E08C1359C08C2FDF9177
:101D3000CF911F910F91FF90EF90DF90CF90BF90C8
:101D4000AF909F908F90089580917103909172034E
:101D5000A0917303B0917403892B8A2B8B2B09F408
:101D600080CF0E9455048090710390907203A090E0
:101D70007303B09074036C197D098E099F09861650
:101D80009706A806B90608F06CCF809170030E94F0
:101D9000FA0DC0E0CBCF85EEB1CF80917103909169
:101DA0007203A0917303B0917403892B8A2B8B2B40
:101DB00009F4AACF0E945504009171031091720397
:101DC00020917303309174036C197D098E099F096A
:101DD000061717072807390708F096CFD6CF919135
:101DE0009D938F5FA1CF8F929F92AF92BF92CF9220
:101DF000DF92EF92FF920F931F93CF93DF93D091D7
:101E00002803D13208F0D7C0182FC09127030E94B1
:101E100055046B017C0180916F0381116BC082E0DE
:101E200080936F0310934E038FEF80934D031092B6
:101E30004C03D0934B03A7E0B3E0E9E2F3E080E08A
:101E4000D81391C010924A0380914A03CC0FC82B3B
:101E5000C0934A0380914903813009F088C01092F1
:101E600049030E9455046B017C0180914A038093D1
:101E7000BB008091710390917203A0917303B091A4
:101E80007403892B8A2B8B2BA1F00E94550400919F
:101E900071031091720320917303309174036C19D4
:101EA0007D098E099F09061717072807390708F4C7
:101EB00042C08091BC0083FDD8CF85EC8093BC00EC
:101EC0000E9455046B017C0180916F03823009F4FC
:101ED00050C080914D038F3F09F46FC080914D0336
:101EE000803209F46CC080914D03803309F469C0DD
:101EF00084E026C08091710390917203A0917303D6
:101F0000B0917403892B8A2B8B2B09F484CF0E9408
:101F100055048090710390907203A0907303B09069
:101F200074036C197D098E099F0986169706A80609
:101F3000B90608F070CF809170030E94FA0D85E019
:101F4000109206031092280310920503DF91CF919F
:101F50001F910F91FF90EF90DF90CF90BF90AF90C7
:101F60009F908F9008959D9191938F5F69CF85EE9B
:101F7000A5CF8091710390917203A0917303B091EA
:101F80007403892B8A2B8B2B09F49ECF0E94550456
:101F900000917103109172032091730330917403C7
:101FA0006C197D098E099F0906171707280739073D
:101FB00008F08ACFC0CF81E0C3CF80E0C1CF82E0FC
:101FC000BFCF83E0BDCF1F93CF93DF93162FC8E51C
:101FD000D5E0A881B98191E09093050398E69093AC
:101FE00027031092060310922803ED91FC9111979C
:101FF0000190F081E02D682FCD011995888199819C
:10200000DC01ED91FC910190F081E02D612F19959B
:1020100081E0DF91CF911F910C94F30ECF93DF936A
:10202000EC018B818823A1F0888191E090930503D6
:1020300080932703109206031092280381E00E94E8
:10204000F30E91E0811190E0892FDF91CF910895F7
:102050000E94E30D81E08B83CE010E940E10982F29
:102060008111E2CFF1CF0895E09104038091030341
:10207000E81730F4F0E0E15BFC4F808190E00895D8
:102080008FEF9FEF089590910403809103032FEF4A
:102090003FEF981748F4E92FF0E0E15BFC4F208117
:1020A00030E09F5F90930403C9010895809103037A
:1020B00090910403891B990B0895CF92DF92EF92C0
:1020C000FF920F931F93CF93DF937C01CB018A0183
:1020D00020910503222389F0EB016B01C40ED51E6C
:1020E000CC15DD0569F06991D701ED91FC91019066
:1020F000F081E02DC7011995F3CF642F0E949E0D4A
:10210000C801DF91CF911F910F91FF90EF90DF9069
:10211000CF900895CF93DF931F92CDB7DEB7698339
:10212000209105032223F9F020912803203258F052
:1021300021E030E0FC013383228390E080E00F90C7
:10214000DF91CF91089580910603E82FF0E0E95FD9
:10215000FC4F998190838F5F8093060380932803BF
:1021600081E090E0ECCF61E0CE0101960E949E0DEF
:10217000F7CF90E080E008952F923F924F925F92C8
:102180006F927F928F929F92AF92BF92CF92DF9287
:10219000EF92FF920F931F93CF93DF9300D000D065
:1021A000CDB7DEB79E838D835C0188E0A80EB11C9D
:1021B000ED81FE817C96FC83EB83412C512C320116
:1021C00000E010E0F0E8F9838FEB8A83212C312CBA
:1021D00080E8882E9FEB992EF501C190D190E19077
:1021E000F1905F019101A401C701B6010E94B236CE
:1021F00018160CF489C020E030E040E85FEBB10134
:10220000C4010E945F31882309F47EC0980149818E
:102210005A81C701B6010E945F3187FD78C020E076
:1022200030E040E85FEBB80189819A810E945F311C
:10223000882309F46CC0A7019601C301B2010E9472
:10224000B1342B013C018B819C81A816B90621F683
:102250009101A401C301B2010E94B03498014981E7
:102260005A810E94B03420E030E040E450E40E9403
:102270008F356B017C01ED81FE81C082D182E282CB
:10228000F38220E030E040E85FEB64817581868175
:1022900097810E945F31811106C0ED81FE81C48269
:1022A000D582E682F782ED81FE81158E148E24811F
:1022B000358146815781C701B6010E94B13420E0C3
:1022C00030E040E05FE30E94C531ED81FE81648330
:1022D00075838683978326960FB6F894DEBF0FBE6C
:1022E000CDBFDF91CF911F910F91FF90EF90DF90C5
:1022F000CF90BF90AF909F908F907F906F905F90A6
:102300004F903F902F900895160147017FCF86018F
:10231000E982FA8290CFBF92CF92DF92EF92FF9242
:102320000F931F93CF93DF93CDB7DEB72E970FB6E2
:10233000F894DEBF0FBECDBF80915805909159052E
:1023400021E02093050328E620932703109206033B
:1023500010922803DC01ED91FC910190F081E02DB9
:102360006BE3199580E00E94F30E41E06EE088E691
:102370000E941B0E10920403809303038E010F5FD3
:102380001F4F6E01BFE0CB0ED11C8091580590917C
:102390005905DC01ED91FC910284F385E02D19953E
:1023A000B82E8091580590915905DC01ED91FC9172
:1023B0000284F385E02D1995E12C8E299B29F801E3
:1023C000819391938F01CE16DF06F9F6C0905E05DA
:1023D000D0905F05E0906005F090610569817A8199
:1023E000072E000C880B990B0E946631A7019601FD
:1023F0000E948F3520916E0530916F0540917005D8
:10240000509171050E94B03460937E0570937F05F2
:1024100080938005909381056B817C81072E000C51
:10242000880B990B0E946631A70196010E948F3597
:102430002091720530917305409174055091750596
:102440000E94B03460938205709383058093840565
:10245000909385056D817E81072E000C880B990B6A
:102460000E946631A70196010E948F352091760562
:102470003091770540917805509179050E94B034EC
:1024800060938605709387058093880590938905EE
:102490006F817885072E000C880B990B0E9466319E
:1024A00020E030EF41E456E40E94B13420E030E017
:1024B0004AEA53E40E948F3560937A0570937B0556
:1024C00080937C0590937D05C0905A05D0905B0564
:1024D000E0905C05F0905D0569857A85072E000C1B
:1024E000880B990B0E946631A70196010E948F35D7
:1024F0002091620530916305409164055091650516
:102500000E94B03460938A0570938B0580938C058C
:1025100090938D056B857C85072E000C880B990B9D
:102520000E946631A70196010E948F3520916605B1
:102530003091670540916805509169050E94B0345B
:1025400060938E0570938F0580939005909391050D
:102550006D857E85072E000C880B990B0E946631D5
:10256000A70196010E948F3520916A0530916B0575
:1025700040916C0550916D050E94B03460939205B6
:102580007093930580939405909395052E960FB6BE
:10259000F894DEBF0FBECDBFDF91CF911F910F9199
:1025A000FF90EF90DF90CF90BF9008956F927F9251
:1025B0008F929F92AF92BF92CF92DF92EF92FF9253
:1025C0000F931F93CF93DF936C013B017A0110E0CF
:1025D00000E0D60114968D919C91E701C01BD10BB0
:1025E0008C179D0708F4EC0141E0C7018C1B9D0B83
:1025F0000817190708F440E06C2FC13208F060E2B8
:10260000F60180810E941B0E109204038093030345
:102610008C171D0679F54301800E911E5401C501EA
:10262000881999098C179D0778F4D60111968D9118
:102630009C91DC01ED91FC910284F385E02D1995CC
:10264000F50181935F01EBCF0C0F1D1F0E151F05C8
:1026500008F4BFCF81E0DF91CF911F910F91FF90E0
:10266000EF90DF90CF90BF90AF909F908F907F9032
:102670006F90089580E0EFCF1F93CF93DF93DC013D
:102680001496ED91FC91E417F50710F490E01FC04B
:10269000122FEA01FC0181819281208131E0309387
:1026A0000503209327031092060310922803DC01F0
:1026B000ED91FC910280F381E02D1995C817D9079F
:1026C00029F7812F0E94F30E91E08111DFCF892F2E
:1026D000DF91CF911F910895EF92FF920F931F9377
:1026E000CF93DF93EC018A01790120E041E050E0D3
:1026F0000E943C13882359F0A701B801CE01DF9155
:10270000CF911F910F91FF90EF900C94D61280E023
:10271000DF91CF911F910F91FF90EF900895CF938C
:10272000DF9300D0CDB7DEB7E0916806F09169067F
:10273000898323E030E0AE014F5F5F4FBA013097ED
:10274000A9F0CF010E946C1329816A8170E090E0AA
:1027500080E0982F872F762F6627822B2B81622B84
:102760000F900F900F90DF91CF91089580916A069E
:1027700090916B060E942B04E7CF4F925F926F926D
:102780007F928F929F92AF92BF92CF92DF92EF9201
:10279000FF928AEF0E948F136115710520E882076E
:1027A000910509F49BC06B017C0184E0F594E794EA
:1027B000D794C7948A95D1F740907F0650908006B1
:1027C000C701B60128E030E040E050E00E94E3326B
:1027D000712C612CD301C201880F991FAA1FBB1F46
:1027E000281B390B4A0B5B0BA0918106B091820626
:1027F0000E9411334B015C01C701B60120E130E0BA
:1028000040E050E00E94E332CA01B9016419750941
:10281000860997099B01AC010E949D329B01AC0186
:102820007CE055954795379527957A95D1F7A091F6
:102830008306B09184060E9411332B013C01C5012F
:10284000B40120E038E040E050E00E94E33269014A
:102850007A01C301B20120E030E440E050E00E9480
:10286000E3322C0D3D1D4E1D5F1D80917B06909126
:102870007C06A0917D06B0917E06280F391F4A1F65
:102880005B1F209377063093780640937906509328
:102890007A06A5E0B0E00E94833260587F4F8F4FE8
:1028A0009F4F20E031E040E050E00E94E332CA0157
:1028B000B9010E94663120E030E048EC52E40E9409
:1028C0008F35FF90EF90DF90CF90BF90AF909F90AB
:1028D0008F907F906F905F904F90089560E070E0D0
:1028E00080EC9FE7EECFCF93DF931F921F92CDB77F
:1028F000DEB7E0916806F0916906898322E030E056
:10290000AE014F5F5F4FBA01309769F0CF010E946F
:102910006C1389819A819827892798270F900F90A7
:10292000DF91CF91089580916A0690916B060E9485
:102930002B04EFCF0E9473149827892798270895B6
:10294000CF93DF931F92CDB7DEB7E0916806F09189
:102950006906898321E030E0AE014F5F5F4FBA0125
:10296000309741F0CF010E946C1389810F90DF9165
:10297000CF91089580916A0690916B060E942B0476
:10298000F4CF0F931F93CF93DF931F921F92CDB776
:10299000DEB76A83E0916806F0916906309789F0A6
:1029A000898321E042E050E0BE016F5F7F4FCF019D
:1029B0000E943C130F900F90DF91CF911F910F91C8
:1029C00008958F77898300916A0610916B06C8017C
:1029D0000E9426036981C8010E9475036A81C801AB
:1029E0000E947503C8010E941E03E4CF0F931F933A
:1029F000CF93DF9300D01F921F92CDB7DEB78C012B
:102A000079836A831B824C83CE0103960E94400225
:102A10008D8321E045E050E0BE016F5F7F4FF801FC
:102A2000828993890E943C130F900F900F900F9012
:102A30000F90DF91CF911F910F910895BF92CF9288
:102A4000DF92EF92FF920F931F93CF93DF93CDB757
:102A5000DEB762970FB6F894DEBF0FBECDBF8C0114
:102A600083E089831A8221E042E050E0BE016F5F7B
:102A70007F4FF801828993890E943C13811112C013
:102A8000B12C8B2D62960FB6F894DEBF0FBECDBF72
:102A9000DF91CF911F910F91FF90EF90DF90CF903A
:102AA000BF90089564E070E080E090E00E947A04B6
:102AB00042E150E0BE016F5F7F4FF8018289938948
:102AC0000E94D612B82E8823D9F2CE0101967C013D
:102AD0006E0193E1C90ED11CC7010E944002F701AB
:102AE00092818913CDCFF3E0EF0EF11CEC14FD04BD
:102AF00099F74F81588554274527542770E060E0A7
:102B0000762F652F542F44278A85482B762F652FE3
:102B1000542F44278B85482B8D859E8598278927A0
:102B20009827B0E0A0E0BA2FA92F982F88272889EE
:102B3000822BBA2FA92F982F88272989822BC98009
:102B4000DA80DC24CD24DC24F12CE12CFE2CED2CCD
:102B5000DC2CCC242C81C22AFE2CED2CDC2CCC24A9
:102B60002D81C22AF801C282D382E482F582468393
:102B700057836087718782879387A487B58781CFC2
:102B80004F925F926F927F928F929F92AF92BF927D
:102B9000CF92DF92EF92FF92CF93DF93EC016A0125
:102BA0007B0120E030E0A901CB01B6010E945F313A
:102BB00087FF04C0F7FAF094F7F8F09488A099A082
:102BC000AAA0BBA0A7019601C501B4010E945F3174
:102BD000882309F44DC06CA97DA98EA99FA90E94E4
:102BE00066312B013C01A7019601C501B4010E9489
:102BF0008F359B01AC01C301B2010E94C5310E9417
:102C000001366CAB7DAB8EAB9FABA701960160E04C
:102C100070E080E090E40E948F350E94C53626E582
:102C20003EE04DE25FE30E94C53120E034E244E73C
:102C300059E40E94C53168AF79AF8AAF9BAFC8A293
:102C4000D9A2EAA2FBA2E881F9810084F185E02DF6
:102C5000CE01DF91CF91FF90EF90DF90CF90BF90AA
:102C6000AF909F908F907F906F905F904F9019944E
:102C7000DF91CF91FF90EF90DF90CF90BF90AF901A
:102C80009F908F907F906F905F904F9008954F929C
:102C90005F926F927F928F929F92AF92BF92CF92EC
:102CA000DF92EF92FF920F931F93CF93DF9300D0A9
:102CB00000D000D01F92CDB7DEB70E948B11C0901C
:102CC0008605D0908705E0908805F0908905A701DA
:102CD0009601C701B6010E94C53169837A838B834F
:102CE0009C8380907E0590907F05A0908005B09099
:102CF0008105A5019401C501B4010E94C531298156
:102D00003A814B815C810E94B1340E94C5366D834B
:102D10007E838F83988740908205509083056090D2
:102D200084057090850501E010E020E030E0A90105
:102D3000C701B6010E94B23687FF02C010E000E072
:102D400021E030E03A87298720E030E0A901C7017F
:102D5000B6010E945F3187FD02C01A861986B8014C
:102D600049855A85641B750B072E000C880B990B3F
:102D70000E9466312D813E814F8158850E94C53168
:102D80009B01AC01C301B2010E94303521EE3EE24D
:102D900045E652E40E94C53160939605709397050D
:102DA0008093980590939905A3019201C301B20104
:102DB0000E94C53129813A814B815C810E94B134E6
:102DC0000E94C5369B01AC01C501B4010E9430359B
:102DD000905821EE3EE245E652E40E94C5316093F0
:102DE0009A0570939B0580939C0590939D050E9486
:102DF000AC044B015C018091AA059091AB05A091B8
:102E0000AC05B091AD05A5019401281B390B4A0B07
:102E10005B0BCA01B9010E9464312FE632E143E83D
:102E20005AE30E94C5316B017C018092AA05909201
:102E3000AB05A092AC05B092AD058090AE05909028
:102E4000AF05A090B005B090B105A501940160E078
:102E500070E080E89FE30E94B0342B013C01209198
:102E60008A0530918B0540918C0550918D05C701E5
:102E7000B6010E94C53120919E0530919F05409179
:102E8000A0055091A1050E94B134A50194010E94B2
:102E9000C53169837A838B839C8320919605309119
:102EA00097054091980550919905C301B2010E9480
:102EB000C5319B01AC0169817A818B819C810E9423
:102EC000B13460939E0570939F058093A005909305
:102ED000A10520918E0530918F054091900550916C
:102EE0009105C701B6010E94C5312091A20530911C
:102EF000A3054091A4055091A5050E94B134A501F8
:102F000094010E94C5314B015C0120919A053091DA
:102F10009B0540919C0550919D05C301B2010E9403
:102F2000C5319B01AC01C501B4010E94B13460936D
:102F3000A2057093A3058093A4059093A505209105
:102F40009205309193054091940550919505C701E4
:102F5000B6010E94C5312091A6053091A705409188
:102F6000A8055091A9050E94B1346093A6057093FD
:102F7000A7058093A8059093A9052A960FB6F89403
:102F8000DEBF0FBECDBFDF91CF911F910F91FF909C
:102F9000EF90DF90CF90BF90AF909F908F907F90F9
:102FA0006F905F904F900895FB0101900020E9F72A
:102FB0003197AF01461B570B0C944C068F929F9292
:102FC000AF92BF920F931F93CF93DF93CDB7DEB72E
:102FD000A1970FB6F894DEBF0FBECDBF19A2423045
:102FE00008F44AE08E010F5D1F4F842E912CB12C06
:102FF000A12CA50194010E94C132E62FB901CA019A
:10300000EA3004F5E05DD801EE938D01232B242BEB
:10301000252B79F790E080E0109729F0BD0182E13F
:1030200094E00E94D417A1960FB6F894DEBF0FBEAD
:10303000CDBFDF91CF911F910F91BF90AF909F9027
:103040008F900895E95CDFCFBC01990F880B990B35
:103050004AE00C94DE17BC0190E080E04AE00C945A
:10306000DE17BC0182E194E00C94D417CF93DF9378
:10307000FC01448155816081718182E194E00E946C
:103080004C06EC016CE672E082E194E00E94D417F9
:103090008C0F9D1FDF91CF910895CF93DF93BC01DB
:1030A0008FEA94E00E94D417EC016CE672E08FEA9C
:1030B00094E00E94D4178C0F9D1FDF91CF9108954B
:1030C000209160063091610680915A0690915B06CE
:1030D00028173907F1F480915C0690915D066091A4
:1030E0005606709157060097D1F061157105A1F44D
:1030F000232BC1F0FC01808190E008C0232B91F0CC
:10310000FB01808190E091958195910921E0892BC7
:1031100009F020E0822F08950E942D39F7CF611524
:10312000710561F721E0F6CF0F931F93CF93DF93E3
:103130008C01EB01FC01808191810097E1F06881B5
:10314000798161157105A9F0428153812C813D81FE
:103150004217530770F00E9436398C819D81F80127
:10316000958384831D821C82DF91CF911F910F91E3
:1031700008950E94BA3788819981F80191838083EC
:103180008A819B81938382838C819D8195838483B3
:10319000198218821B821A82E5CFCF93DF93EC014C
:1031A00088819981009711F00E94BA37198218829C
:1031B0001D821C821B821A82DF91CF910895FC012F
:1031C00080819181009711F00C94BA3708950C9486
:1031D000BA370C94BA370C94BA37FF920F931F93F7
:1031E000CF93DF931F921F92CDB7DEB78C01DC0126
:1031F0001F965C934E931E974F5F5F4F51965C9363
:103200004E93509783ED898384E08A8321E042E0E6
:1032100050E0BE016F5F7F4F52968D919C910E944E
:103220003C136EE170E080E090E00E947A0450E090
:1032300040E060E170E0C8010E94F614882399F133
:1032400042E050E060E076E4C8010E94F614F82EF7
:10325000882391F187E090E00E941E37FC0188E10D
:1032600092E09183808383E09CE094838383168340
:103270000583D8015796FC93EE93569787E090E02C
:103280000E941E37FC018AE092E09183808382E0F5
:103290009CE09483838316830583D8015596FC9321
:1032A000EE9354970AC050E040E060E170E0C8013E
:1032B0000E94F6148111C4CFF12C8F2D0F900F9026
:1032C000DF91CF911F910F91FF9008950F931F935E
:1032D000CF93DF93EC0188819981009759F02A817F
:1032E0003B812617370730F081E0DF91CF911F91A6
:1032F0000F9108958B016F5F7F4F0E9443380097B5
:1033000059F0998388831B830A832C813D81232B69
:1033100059F7FC011082E8CF80E0E7CFEF92FF92EF
:103320000F931F93CF93DF93EC017B018A01BA01C6
:103330000E94661981110BC0CE010E94CD18CE01EA
:10334000DF91CF911F910F91FF90EF9008951D8312
:103350000C83B701888199810E943639F0CF609142
:103360005606709157066115710559F040915A063D
:1033700050915B068CE596E00E948E198CE596E0F4
:1033800008958CE596E00E94CD18F8CFFB010190DE
:103390000020E9F73197AF01461B570B0C948E19AB
:1033A000CF92DF92EF92FF920F931F93CF93DF9311
:1033B000C0905006D0905106E0905206F09053060F
:1033C000C701B6010E940136C8E6D1E0CB01BE01BB
:1033D0000E94AD328C0120E030E0A901C701B601A6
:1033E0000E945F3187FF29C0C01BD10BD0935506C7
:1033F000C093540680915406909155069C012E521C
:1034000031092D3041E03407E8F06FE672E086E5DF
:1034100096E00E94C6190E946018811148C08FE68C
:1034200092E00E944D18DF91CF911F910F91FF9074
:10343000EF90DF90CF900C94AF1910935506009346
:103440005406D8CF2935310568F461E772E086E586
:1034500096E00E94C6190E946018811128C081E779
:1034600092E0DFCF9C01285831092935310568F4F5
:1034700063E772E086E596E00E94C6190E94601834
:10348000811115C083E792E0CCCF825E9109893526
:10349000910568F465E772E086E596E00E94C6193A
:1034A0000E946018811103C085E792E0BACFDF91D6
:1034B000CF911F910F91FF90EF90DF90CF900895E3
:1034C000FC01118210821382128215821482FB0188
:1034D00001900020E9F73197AF01461B570B0C9480
:1034E0008E19CF92DF92EF92FF920F931F93CF939B
:1034F000DF931F921F92CDB7DEB78C016B016EE692
:1035000072E00E94601AC6010E94B50697FD21C0B4
:103510008A309105F1F089831A82F801E480F58000
:10352000FFEFEF1AFF0AB701C8010E94661988234E
:1035300051F3F8012081318184819581BE016F5F53
:103540007F4F820F931F0E943639F801F582E48283
:10355000DACFC8010F900F90DF91CF911F910F919B
:10356000FF90EF90DF90CF9008950F931F93CF932C
:10357000DF9300D000D0CDB7DEB76FEA74E0CE01A4
:1035800001960E94711A8D819E81892B79F00981A3
:103590001A8167E772E0C8010E942D39892BA9F4CE
:1035A00081E090E090933B0680933A06CE0101962D
:1035B0000E94DF1826960FB6F894DEBF0FBECDBF6F
:1035C000DF91CF911F910F91089569E772E0C801D3
:1035D0000E942D39892B51F710923B0610923A0622
:1035E000E5CFAF92BF92CF92DF92EF92FF920F930F
:1035F0001F93CF93DF936C015B017A01890124173C
:10360000350720F48F2D7901042F182F6EE672E014
:10361000C6010E94601AD5011496CD91DC91EC167A
:10362000FD06E0F40C171D0708F4E801D501ED9143
:10363000FC911197EC0FFD1F108110826D917C9110
:103640006E0D7F1DC60161157105A1F00E94C6199E
:10365000F50180819181C80FD91F1883C601DF91C0
:10366000CF911F910F91FF90EF90DF90CF90BF907F
:10367000AF9008950E94CD18EBCF0F931F93CF9377
:10368000DF938C01EB01DC0115968D919C910E94DA
:103690001E15F801058116810E94AC04AB01BC0126
:1036A000FE01349680E2DF011D928A95E9F784E2FB
:1036B00090E0A0E0B0E088839983AA83BB83F801FF
:1036C00080899189B0E0A0E08C839D83AE83BF8325
:1036D0008DE090E0A0E0B0E088879987AA87BB875B
:1036E000488B598B6A8B7B8B86819781A085B185AE
:1036F0008C8B9D8BAE8BBF8B81E0DF91CF911F9127
:103700000F9108950F931F93CF93DF938C01EB01DB
:10371000DC0115968D919C910E941E15F801058182
:1037200016810E94AC04AB01BC01FE01349680E21C
:10373000DF011D928A95E9F784E290E0A0E0B0E015
:1037400088839983AA83BB83F80186859785B0E037
:10375000A0E08C839D83AE83BF838CE090E0A0E0EB
:10376000B0E088879987AA87BB87488B598B6A8B7B
:103770007B8B82859385A485B5858C8B9D8BAE8B49
:10378000BF8B81E0DF91CF911F910F9108950F932F
:103790001F93CF93DF938C01EB0188E2FB01119221
:1037A0008A95E9F74BE050E06BE772E0CE010E94AA
:1037B0003D391B8681E090E0A0E0B0E08C879D87DA
:1037C000AE87BF87F80183819481092E000CAA0B74
:1037D000BB0B888B998BAA8BBB8B8DE090E0A0E014
:1037E000B0E08C8B9D8BAE8BBF8B1CA21DA21EA24A
:1037F0001FA280E090E0A0EFB1EC8C8F9D8FAE8F88
:10380000BF8F80E090E0A2EDB2E4888F998FAA8FFD
:10381000BB8F8CE990E5A8E0BBE388A399A3AAA39A
:10382000BBA3DF91CF911F910F9108950F931F9329
:10383000CF93DF938C01EB0188E2FB0111928A9513
:10384000E9F74BE050E063E872E0CE010E943D39B9
:103850001B8681E090E0A0E0B0E08C879D87AE877A
:10386000BF87F80183819481092E000CAA0BBB0B42
:10387000888B998BAA8BBB8B8CE090E0A0E0B0E0AA
:103880008C8B9D8BAE8BBF8B1CA21DA21EA21FA278
:1038900080E090E0A2E8B3E48C8F9D8FAE8FBF8F65
:1038A00080E090E8ADE9B4E4888F998FAA8FBB8F50
:1038B00088E195EFAFE7B9E388A399A3AAA3BBA3D7
:1038C000DF91CF911F910F91089585ED8093BC00FA
:1038D0008091710390917203A0917303B09174036E
:1038E0000796A11DB11D23E0B695A79597958795DD
:1038F0002A95D1F72091BC0024FD03C010926F03DC
:103900000895409171035091720360917303709117
:103910007403452B462B472B69F30097A105B1058E
:1039200041F025E32A95F1F700000197A109B109BB
:10393000E1CF809170030C94FA0D1F920F920FB695
:103940000F9211242F933F938F939F93AF93BF9325
:103950008091D5029091D602A091D702B091D80261
:103960003091D40223E0230F2D3758F50196A11D85
:10397000B11D2093D4028093D5029093D602A093D8
:10398000D702B093D8028091D9029091DA02A09127
:10399000DB02B091DC020196A11DB11D8093D9021A
:1039A0009093DA02A093DB02B093DC02BF91AF9157
:1039B0009F918F913F912F910F900FBE0F901F906D
:1039C000189526E8230F0296A11DB11DD2CF1F9294
:1039D0000F920FB60F9211240BB60F922F933F93B5
:1039E0004F935F936F937F938F939F93AF93BF9307
:1039F000EF93FF9385E793E00E941707FF91EF9104
:103A0000BF91AF919F918F917F916F915F914F91F6
:103A10003F912F910F900BBE0F900FBE0F901F90F4
:103A200018951F920F920FB60F9211240BB60F929A
:103A30002F933F934F935F936F937F938F939F93B6
:103A4000AF93BF93EF93FF9385E793E00E947906CE
:103A5000FF91EF91BF91AF919F918F917F916F9166
:103A60005F914F913F912F910F900BBE0F900FBE22
:103A70000F901F9018951F920F920FB60F9211245E
:103A80000BB60F922F933F934F935F936F937F9358
:103A90008F939F93AF93BF93EF93FF9382E194E053
:103AA0000E941707FF91EF91BF91AF919F918F9166
:103AB0007F916F915F914F913F912F910F900BBE2E
:103AC0000F900FBE0F901F9018951F920F920FB678
:103AD0000F9211240BB60F922F933F934F935F9346
:103AE0006F937F938F939F93AF93BF93EF93FF93C6
:103AF00082E194E00E947906FF91EF91BF91AF912E
:103B00009F918F917F916F915F914F913F912F91F5
:103B10000F900BBE0F900FBE0F901F9018951F9225
:103B20000F920FB60F9211240BB60F922F933F9363
:103B30004F935F936F937F938F939F93AF93BF93B5
:103B4000EF93FF938FEA94E00E941707FF91EF91A4
:103B5000BF91AF919F918F917F916F915F914F91A5
:103B60003F912F910F900BBE0F900FBE0F901F90A3
:103B700018951F920F920FB60F9211240BB60F9249
:103B80002F933F934F935F936F937F938F939F9365
:103B9000AF93BF93EF93FF938FEA94E00E9479066F
:103BA000FF91EF91BF91AF919F918F917F916F9115
:103BB0005F914F913F912F910F900BBE0F900FBED1
:103BC0000F901F9018951F920F920FB60F9211240D
:103BD0000BB60F922F933F934F935F936F937F9307
:103BE0008F939F93AF93BF93EF93FF938091B9000F
:103BF000887F803609F44DC008F040C0883209F44F
:103C0000A9C028F5803109F49DC0C8F4882309F4BF
:103C1000FBC0883009F496C0FF91EF91BF91AF913E
:103C20009F918F917F916F915F914F913F912F91D4
:103C30000F900BBE0F900FBE0F901F9018958831FC
:103C400009F488C0803241F780934D0314C080345A
:103C500009F49DC040F48033B9F38833E9F68093CA
:103C60004D0385ECB0C0803509F485C0883509F472
:103C700096C0883489F60E94651CCECF883909F435
:103C80008CC038F5883729F050F4883611F0803729
:103C900019F683E080936F031092D10257C08838E1
:103CA00009F47BC0803919F0803809F0B5CF8091D4
:103CB000D102803208F071C0E091D10281E08E0F14
:103CC0008093D1028091BB00F0E0EF54FD4F8083E0
:103CD0003DC0803B39F0E0F4803A09F479C0883A7D
:103CE00009F09ACF84E080936F031092B002109293
:103CF000AF02E091DF02F091E00219958091AF02EE
:103D000081110FC081E08093AF0210928F0209C031
:103D1000803C09F4A6CF883C09F4A3CF883B09F086
:103D20007BCFE091B00281E08E0F8093B002F0E093
:103D3000E157FD4F80818093BB009091B00280914C
:103D4000AF0229C080914A038093BB0085EC809329
:103D5000BC0062CF90914C0380914B03981758F5AB
:103D6000E0914C0381E08E0F80934C03F0E0E75D1F
:103D7000FC4F8081E9CFE0914C0381E08E0F80936E
:103D80004C038091BB00F0E0E75DFC4F8083909195
:103D90004C0380914B039817C8F285E8D8CFE09187
:103DA0004C0381E08E0F80934C038091BB00F0E0C8
:103DB000E75DFC4F808380914E0381115CCF81E0F1
:103DC0008093490384EA8093BC0010926F0324CF50
:103DD00085EC8093BC0010926F038091D1028032F9
:103DE00030F4E091D102F0E0EF54FD4F1082609189
:103DF000D10270E0E091DD02F091DE0281EB92E011
:103E000019951092D10208CF10924D0334CF6F92C2
:103E10007F928F929F92AF92BF92CF92DF92EF925A
:103E2000FF920F931F93CF93DF93E5E7F3E01382A5
:103E3000128288EE93E0A0E0B0E084839583A683AD
:103E4000B78326E232E03183208345E351E0558792
:103E5000448744E351E05787468740E351E0518B64
:103E6000408B41E351E0538B428B42E351E0558B51
:103E7000448B46E351E0578B468B118E128E138E86
:103E8000148EE2E1F4E01382128284839583A68388
:103E9000B7833183208345ED50E05587448744ED57
:103EA00050E05787468740ED50E0518B408B41ED05
:103EB00050E0538B428B42ED50E0558B448B46EDE6
:103EC00050E0578B468B118E128E138E148EEFEAB4
:103ED000F4E01382128284839583A683B7833183AF
:103EE000208325EC30E03587248724EC30E03787C9
:103EF000268720EC30E0318B208B21EC30E0338BB7
:103F0000228B22EC30E0358B248B26EC30E0378B93
:103F1000268B118E128E138E148ECCE4D5E01B826C
:103F20001A828C839D83AE83BF8388E392E099835A
:103F30008883E8E5F5E0D183C08388E491EEAAE7C1
:103F4000BFE38093AE059093AF05A093B005B09307
:103F5000B105128613861486158616861786108A72
:103F6000118A128A138A148A158A168A178A108E61
:103F7000118E128E138E148E158E168E178E10A221
:103F800011A280E5882E82E0982E9092B30580924F
:103F9000B20511E01093B9051092C2051092C30545
:103FA0001092C4051092C5051092C6051092C7055F
:103FB0001092C8051092C9051092CA051092CB053F
:103FC0001092CC051092CD051092CE051092CF051F
:103FD0001092D0051092D1051092D2051092D305FF
:103FE0001092D4051092D505C12CD12C90E8E92E61
:103FF0009FE3F92EC092D605D092D705E092D8055E
:10400000F092D9051092B5051092B6051092B70539
:104010001092B805AA24A394B12CB092DF05A09207
:10402000DE0566246A946092E1051092DA0510922A
:10403000DB051092DC051092DD0582E08093BA0565
:1040400083E08093BB0534E0732E7092BC0505E0DD
:104050000093BD051092E0051092E6051092E70569
:104060001092E8051092E9051092EA051092EB050E
:104070001092EC051092ED051092EE051092EF05EE
:104080001092F0051092F105C092F205D092F3055E
:10409000E092F405F092F5051092B4051092BE0579
:1040A0001092BF051092C0051092C10582EB95E0F9
:1040B0000E944009B701A60182EB95E00E94C0155D
:1040C000B701A60182EB95E00E94CE0B9092F70516
:1040D0008092F6051093FD051092060610920706D1
:1040E000109208061092090610920A0610920B060A
:1040F00010920C0610920D0610920E0610920F06EA
:1041000010921006109211061092120610921306C9
:1041100010921406109215061092160610921706A9
:104120001092180610921906C0921A06D0921B0619
:10413000E0921C06F0921D061092F9051092FA0505
:104140001092FB051092FC05B0922306A092220665
:104150006092250610921E0610921F0610922006ED
:10416000109221067092FE050093FF0570920006E2
:10417000009301061092240610922A0610922B0634
:1041800010922C0610922D0610922E0610922F06D9
:1041900010923006109231061092320610923306B9
:1041A0001092340610923506C0923606D092370629
:1041B000E0923806F09239061092F8051092020645
:1041C00010920306109204061092050686EF95E001
:1041D0000E944009B701A60186EF95E00E94C01534
:1041E000B701A60186EF95E00E94CE0B82E090E039
:1041F00090933B0680933A0688EB9BE090933D06B4
:1042000080933C0610923E0610923F0610924006A4
:104210001092410680ED97E090934306809342060A
:1042200010924406109245061092460610924706D8
:10423000109248061092490610924A0610924B06B8
:1042400010924D0610924C0610924F0610924E0698
:104250001092500610925106109252061092530678
:10426000109255061092540669E872E086E596E0D1
:104270000E94601A69E872E08CE596E00E94601A7C
:104280001092630610926206109265061092640600
:1042900010926706109266061092690610926806E0
:1042A00010926B0610926A0610926D0610926C06C0
:1042B00010926F0610926E061092710610927006A0
:1042C00010927B0610927C0610927D0610927E065C
:1042D00080E48093AF06D093B106C093B0061092ED
:1042E000A3061092A4061092A5061092A60610929C
:1042F000AB061092AC061092AD061092AE0610926C
:10430000A7061092A8061092A9061092AA068AE49F
:1043100092E09093B3068093B2061092C506109275
:10432000C4061092C7061092C6061092C9061092D3
:10433000C80669E772E08AED96E00E94601A69E7B4
:1043400072E080EE96E00E94601A1093E6062EE17D
:10435000E9EEF6E0DF01C22F1D92CA95E9F780E091
:1043600090E0A0E8BFEB8093ED069093EE06A0935B
:10437000EF06B093F006E7E0F7E0EF01322F199275
:104380003A95E9F780930B0790930C07A0930D07DC
:10439000B0930E07E5E2F7E0EF01322F19923A955C
:1043A000E9F78093290790932A07A0932B07B093EE
:1043B0002C07E3E4F7E0EF01322F19923A95E9F781
:1043C0008093470790934807A0934907B0934A0703
:1043D000E1E6F7E0EF01322F19923A95E9F7809381
:1043E000650790936607A0936707B0936807EFE7A8
:1043F000F7E0EF01322F19923A95E9F7809383079E
:1044000090938407A0938507B0938607EDE9F7E0C2
:10441000EF01322F19923A95E9F78093A107909313
:10442000A207A093A307B093A407EBEBF7E0EF017B
:1044300019922A95E9F78093BF079093C007A0933C
:10444000C107B093C207DF91CF911F910F91FF90E9
:10445000EF90DF90CF90BF90AF909F908F907F9024
:104460006F900895CF93DF93CDB7DEB7CC56D109C7
:104470000FB6F894DEBF0FBECDBF789484B58260CE
:1044800084BD84B5816084BD85B5826085BD85B5F8
:10449000816085BD80916E00816080936E00109276
:1044A00081008091810082608093810080918100F1
:1044B0008160809381008091800081608093800082
:1044C0008091B10084608093B1008091B0008160E0
:1044D0008093B000809191008260809391008091E0
:1044E0009100816080939100809190008160809321
:1044F00090008091A10082608093A1008091A10032
:1045000081608093A1008091A00081608093A000D1
:10451000809121018260809321018091210181603D
:1045200080932101809120018160809320018091FE
:104530007A00846080937A0080917A008260809310
:104540007A0080917A00816080937A0080917A006D
:10455000806880937A001092C10040E855E260E0E4
:1045600070E08FEA94E00E94E20140E051EE60E0EA
:1045700070E082E194E00E94E20140E855E260E0F0
:1045800070E085E793E00E94E20160E089E10E942B
:10459000E30F60E08AE10E94E30F80E090E0A3E88F
:1045A000B2E480935A0590935B05A0935C05B093A9
:1045B0005D0568E08BE10E94E30F80E090E0A0E8F9
:1045C000B6E480935E0590935F05A0936005B09379
:1045D000610560E08CE10E94E30F61E08BE60E94E0
:1045E000E30F0E9447168091960590919705A09140
:1045F0009805B091990580939E0590939F05A0938F
:10460000A005B093A10580919A0590919B05A0917A
:104610009C05B0919D058093A2059093A305A0935E
:10462000A405B093A5050E94AC046093AA057093FD
:10463000AB058093AC059093AD0568EE73E080E028
:1046400090E00E947A041092620510926305109225
:104650006405109265051092660510926705109228
:1046600068051092690510926A0510926B05109208
:104670006C0510926D0510926E0510926F051092E8
:1046800070051092710510927205109273051092C8
:1046900074051092750510927605109277051092A8
:1046A00078051092790504EF11E01FAA18AE19AE33
:1046B0001AAE1FA618AA19AA1AAA1BAA1CAA1DAAD2
:1046C0001EAAC12CD12C76014601570126013701C3
:1046D0000E948B1120917E0530917F0540918005CD
:1046E00050918105C301B2010E94B1342B013C01FC
:1046F0002091820530918305409184055091850574
:10470000C501B4010E94B1344B015C0120E030E0EE
:1047100040E85FE360918605709187058091880588
:10472000909189050E94B0349B01AC01C701B6018C
:104730000E94B1346B017C0120918A0530918B0578
:1047400040918C0550918D056BA97CA98DA99EA9DE
:104750000E94B1346BAB7CAB8DAB9EAB20918E05D0
:1047600030918F0540919005509191056FA578A9E2
:1047700089A99AA90E94B1346FA778AB89AB9AAB8B
:1047800020919205309193054091940550919505A3
:104790006FA978AD89AD9AAD0E94B1346FAB78AF97
:1047A00089AF9AAF61E070E080E090E00E947A0407
:1047B0000150110909F08CCF20E030E04AEF53E4BA
:1047C000C301B2010E948F3560936E0570936F052F
:1047D000809370059093710520E030E04AEF53E438
:1047E000C501B4010E948F35609372057093730503
:1047F000809374059093750520E030E04AEF53E410
:10480000C701B6010E948F356093760570937705D6
:10481000809378059093790520E030E04AEF53E4E7
:104820006BA97CA98DA99EA90E948F356093620512
:1048300070936305809364059093650520E030E0F4
:104840004AEF53E46FA578A989A99AA90E948F35E8
:10485000609366057093670580936805909369057A
:1048600020E030E04AEF53E46FA978AD89AD9AAD0E
:104870000E948F3560936A0570936B0580936C0579
:1048800090936D0560E0809162060E94390360E0BC
:10489000809164060E94390360E0809166060E9460
:1048A000390340E050E06AEF74E482EB95E00E9447
:1048B000C01540E050E06AEF74E486EF95E00E9496
:1048C000C01560913C0670913D06072E000C880BC8
:1048D000990B0E946631AB01BC0182EB95E00E940E
:1048E000CE0B60913C0670913D06072E000C880BA4
:1048F000990B0E946631AB01BC0186EF95E00E94E6
:10490000CE0B0E9447168091B5059091B605A091F7
:10491000B705B091B805892B8A2B8B2B21F082EB40
:1049200095E00E944B088091F9059091FA05A091BD
:10493000FB05B091FC05892B8A2B8B2B21F086EF90
:1049400095E00E944B086EE672E0CE0189960E94C7
:10495000601A85E793E00E94ED06181619060CF020
:1049600060C065E773E0CE0101960E94711ABE0136
:104970006F5F7F4FCE0189960E949418CE010196F9
:104980000E94DF1889A59AA50DA51EA530E020E09C
:104990002017310789F0FC01E20FF31F009721F483
:1049A0001092D302E3EDF2E0B9016F5F7F4F4081D7
:1049B0004C3209F07BC0890150E040E0BE01675DE8
:1049C0007F4FCE0101960E94F11ABE016F5F7F4FAB
:1049D0008AED96E00E949418CE0101960E94DF189D
:1049E0002DA53EA5A8014F5F5F4FBE01675D7F4FBC
:1049F000CE0101960E94F11ABE016F5F7F4F80EEDB
:104A000096E00E949418CE0101960E94DF188BE870
:104A100092E00E943118CE0189960E9436181092B9
:104A2000E606CE0189960E94DF1860914C067091CF
:104A30004D0680914E0690914F068617970721F1FB
:104A4000072E000C880B990B0E946631AB01BC014C
:104A500082EB95E00E94CE0B60914C0670914D0662
:104A6000072E000C880B990B0E946631AB01BC012C
:104A700086EF95E00E94CE0B80914C0690914D06FA
:104A800090934F0680934E0680913A0690913B0694
:104A90008230910509F424C15CF4009709F453C0F5
:104AA000019709F404C10E94A6072BCF9B0170CF88
:104AB0008430910509F487C10CF472C1059799F708
:104AC00082EB95E00E94940886EF95E00E9494089E
:104AD00000916A0610916B060115110509F082C15B
:104AE0008091680690916906009711F00E94BA378C
:104AF00086E090E00E941E378C0186E7D8018C93F7
:104B00008CE495E012969C938E93119713961C92C9
:104B1000139780E290E015969C938E9314971093D0
:104B20006906009368060E94E30D81E0F801838323
:104B3000C8010E940E1081119EC18091E70681601C
:104B40008093E706A1C288EB9BE090934D0680938B
:104B50004C0640E050E86BE375E482EB95E00E9480
:104B6000590B40E050E86BE375E486EF95E00E9456
:104B7000590B8FEA94E00E94ED061816190614F4FA
:104B80000E94B51A4090A6055090A7056090A80510
:104B90007090A905A301920160E070E0CB010E9432
:104BA000B0346B017C0120E030E0A9010E94B236F4
:104BB0001816BCF520E030E040E85FE3C701B6011D
:104BC0000E94B2361816BCF1A701960160913E060C
:104BD00070913F0680914006909141060E94B0344A
:104BE0004B015C0120E030E0A9010E94B2361816AA
:104BF0000CF045C020E030E040E05FE3C501B401C7
:104C00000E94B2361816BCF040E050E06AE774EC3F
:104C100082EB95E00E94590B40E050E06AE774E4B3
:104C200027C020E030E040E85FEBC701B6010E94FA
:104C30005F3187FFC9CFC0923E06D0923F06E09217
:104C40004006F092410620E030E0A901C301B20124
:104C50000E945F3187FF1EC040E050E06AE774ECBD
:104C600082EB95E00E94590B40E050E06AE774EC5B
:104C700086EF95E00E94590B0E94D01914CF20E0D6
:104C800030E040E05FEBC501B4010E945F3187FF77
:104C9000BBCFD1CF40E050E86BE375E482EB95E009
:104CA0000E94590B40E050E86BE375E4E1CF1092AD
:104CB0004D0610924C0682EB95E00E94940886EF18
:104CC00095E00E9494080E94D0198FEA94E00E9417
:104CD000ED06181619060CF0E6CE0E94B51AE3CEC2
:104CE00088E00E94C702909363068093620689E081
:104CF0000E94C70290936506809364068AE00E9432
:104D0000C70290936706809366060097D1F480915E
:104D1000640690916506019709F0C5CE8091620600
:104D20009091630640E050E0BA01892B09F0BBCEB8
:104D300082EB95E00E94590B40E050E06AEF74E48A
:104D40001BC0019709F0AFCE809164069091650673
:104D50000097B9F48091620690916306892B09F05F
:104D6000A2CE40E050E06AEF74EC82EB95E00E9446
:104D7000590B40E050E0BA0186EF95E00E94590BD4
:104D800092CE019709F08FCE8091620690916306D2
:104D9000892B09F088CE40E050E06AEF74ECC8CF70
:104DA0008CE291E090934D0680934C0640E050E0F9
:104DB0006AE774EC82EB95E00E94590B40E050E00A
:104DC0006AE774ECD9CF82EB95E00E94940886EFF5
:104DD00095E00E94940883E090E090933B068093D6
:104DE0003A0661CED8011B968C918F3F41F061E06D
:104DF0000E94390361E0F80183850E94F002D80126
:104E00008D919C91892B09F475C1FFB6F89480911E
:104E1000D202811127C0EDEBF2E08491E3E0F3E0F0
:104E20009491E82FF0E0EE0FFF1FE65CFD4FA59197
:104E3000B491EC91E92321F461E085E30E94F00252
:104E400061E085E30E9439038CB580618CBD8CB52F
:104E500080648CBD61E084E30E94390361E083E3F8
:104E60000E9439038091D2028F5F8093D202FFBEED
:104E700081E0F801838F80ED0E94A01490E0B0E003
:104E8000A0E08093730690937406A0937506B09388
:104E9000760680369105A105B10509F04ECE66EB88
:104EA00080EE0E94C1146AE070E080E090E00E9411
:104EB0007A0483EF0E94A01480FDF5CF88E80E9459
:104EC0009A149093800680937F068AE80E949A1431
:104ED00090938206809381068CE80E949A149093A6
:104EE0008406809383068EE80E949A149093860627
:104EF0008093850680E90E949A1490938806809397
:104F0000870682E90E949A1490938A068093890604
:104F100084E90E949A1490938C0680938B0686E90C
:104F20000E949A1490938E0680938D0688E90E94C1
:104F30009A149093900680938F068AE90E949A149F
:104F400090939206809391068CE90E949A14909314
:104F50009406809393068EE90E949A149093960685
:104F60008093950681EA0E94A0148093970681EEB3
:104F70000E949A14909399068093980683EE0E945B
:104F8000A01480939A0684EE0E94A014182F85EE38
:104F90000E94A014F0E11F02900111248F70282BB1
:104FA00030939C0620939B0686EE0E94A014182F37
:104FB00085EE0E94A01440E114029001112490E0BB
:104FC000F4E095958795FA95E1F7822B932B9093D2
:104FD0009E0680939D0687EE0E94A01480939F06F4
:104FE0008DEE8093A1068091A2068F71806A8093D6
:104FF000A2068091A006807C8F778093A00660E057
:1050000084EF0E94C1146091A20662956695677054
:1050100082EF0E94C1148091A006682F677050E251
:10502000659FB0011124282F269526952695277077
:1050300094E0299F90011124622B87FB882780F937
:10504000682B85EF0E94C1148091A106682F6770BC
:10505000A0E26A9FB0011124282F26952695269557
:105060002770B4E02B9F90011124622B82958695C6
:1050700086958370682B84EF0E94C11464E670E00B
:1050800080E090E00E947A04589A599A8091B90081
:105090008E7F8093B9008091B9008D7F8093B90095
:1050A00088E48093B80084E48093BC0083E091E1BD
:1050B0000E94FB0783E091E10E94FB07892B31F4FA
:1050C00066E070E080E090E00E947A0483E390ED77
:1050D0000E94FB07892B41F460E170E0CE0101964C
:1050E0000E943B05892B89F18091E70680648093BB
:1050F000E706DCCF61E0F80184850E943903D8011E
:105100001A968C911A978B7FE1F460E01C968C9133
:105110000E94F002D8011D968C918F3F41F061E012
:105120000E94390361E0F80185850E94F002D801F0
:105130001E968C918F3F09F49BCE60E00E9439034C
:1051400097CE61E0F8018485E3CF85E090E09A8313
:10515000898380E096E49C838B8342E050E0BE012B
:105160006F5F7F4F84E090E80E9418088C0165E132
:1051700070E080E090E00E947A04012B29F0809199
:10518000E70680648093E70680E093E09A83898352
:1051900041E050E0BE016F5F7F4F80E190E00E94F0
:1051A00018088C0165E170E080E090E00E947A04CC
:1051B00017FF05C08091E70680648093E706809121
:1051C000C4069091C506009711F00E94BA3786E098
:1051D00090E00E941E378C0181E6F80180838CE408
:1051E00095E092838183138280E290E095838483AB
:1051F0001093C5060093C4060E94E30D81E0D80118
:1052000013968C93C8010E940E1081112DC08091BD
:10521000E70680618093E7060E94E30D0E94E30D9C
:105220008091AF0691E0909305038093270310923D
:1052300006031092280381E00E94F30E882329F0D0
:105240008091E80680618093E806E6E0F0E061E0A6
:1052500070E080E090E0319789F0AAE0B0E09B0137
:10526000AC010E948332F7CF40E050E0BA0182EBFC
:1052700096E00E94ED188111CFCFC9CF0E94643112
:105280009B01AC0160E070E080E89FE30E948F35F5
:105290004B015C012FE632E143E05BE30E94C53144
:1052A0009B01AC016CEA75EC87EA9BE30E948F35A9
:1052B0006B017C0120E030E0A9010E94B23620E0C1
:1052C00030E040E05FE387FD26C0C701B6010E94E1
:1052D000B1340E9401366B017C01EAE04E2E512C64
:1052E000612C712CC114D104B1E0EB06F104C0F0C3
:1052F00020E030E040E251E4C501B4010E94C53134
:105300004B015C01C701B601A30192010E94C132A9
:1053100069017A01E7CFC701B6010E94B034D9CF45
:105320008092A3069092A406A092A506B092A6062B
:105330008091B0069091B1062091AF0631E0309394
:105340000503209327031092060310922803DC0123
:10535000ED91FC910190F081E02D65E0199580912F
:10536000B0069091B1066D2D7727DC01ED91FC918F
:105370000190F081E02D19958091B0069091B106D1
:10538000DC01ED91FC910190F081E02D6C2D1995DF
:1053900081E00E94F30E20E030E040E057E46091AD
:1053A000A3067091A4068091A5069091A6060E947E
:1053B000C5316093AB067093AC068093AD069093B5
:1053C000AE068FE692E1A3E0BBE38093A70690933D
:1053D000A806A093A906B093AA06E5E0F0E02596FA
:1053E000FFAFEEAF2597F2E0F983FA8321E042E0C8
:1053F00050E0BE016F5F7F4F8091C4069091C5065B
:105400000E943C1364E070E080E090E00E947A0427
:1054100042E050E0BE016F5F7F4F8091C4069091E3
:10542000C5060E94D61289819A818115914039F072
:105430006AE070E080E090E00E947A04D4CF82EBD2
:1054400096E00E941E150E94BD136D966CAF7DAF55
:105450008EAF9FAF6D970E94BD138DEF0E947314A6
:10546000B0E0A0E0811530E89307A105B10509F48B
:105470009DC6C0907706D0907806E0907906F090AF
:105480007A064CE2D41A41E0E40AF1084C015D01CD
:105490008EE0880C991CAA1CBB1C8A95D1F78091C0
:1054A0009B0690919C06092E000CAA0BBB0B24E1D5
:1054B000880F991FAA1FBB1F2A95D1F7881A990A2E
:1054C000AA0ABB0AA0919D06B0919E06A70196016B
:1054D0000E941133861A970AA80AB90AC501B401B5
:1054E000705C8F4F9F4F20E030E840E050E00E941A
:1054F000E33229013A01A0919A06B0E0A701960192
:105500000E94833220E038E040E050E00E94E33225
:1055100049015A0180E8980EA11CB11CA0919F0678
:105520000A2E000CBB0BA70196010E94113320E04C
:1055300034E040E050E00E94E332CA01B901A50125
:1055400094010E949D3220E034E040E050E00E944F
:10555000E332405E5F4FA0919806B09199060E9499
:105560001133705E8F4F9F4F20E030E440E050E0F9
:105570000E94E332C301B2010E949D326B017C01A3
:1055800020E030E840E050E00E94E332CA01B90177
:105590000E949D329B01AC0167E055954795379578
:1055A00027956A95D1F7A0919706B0E00E948332C3
:1055B00020E130E040E050E00E94E332C21AD30A1A
:1055C000E40AF50AF7FE03C0C12CD12C7601C7010D
:1055D000B601613071058105A9E19A0724F060E008
:1055E00070E080E099E10CE0959587957795679557
:1055F0000A95D1F70E94643120E030E040E85AE398
:105600000E94C5312D966CAF7DAF8EAF9FAF2D97A9
:105610008091B4069091B506A091B606B091B706F8
:10562000A1968CAF9DAFAEAFBFAFA1970E94BD1347
:1056300087EF0E948F1329966CAF7DAF8EAF9FAF1F
:105640002997611571058048910509F4BAC58091C3
:10565000770690917806A0917906B0917A066C0150
:105660007D01FF0CCC08DC2C76019C01AD016C2D7A
:105670007C2D8C2D9C2D345F4140510961097109AD
:10568000810991092FA73BAB4FAB5BAF6CAF7DAFEF
:105690008EAF9FAF59016A017B018C010E941933C3
:1056A00021962FAF219722963FAF229723964FAF97
:1056B000239760965FAF609761966FAF6197629630
:1056C0007FAF629763968FAF639764969FAF64973F
:1056D0003091880620918706932F990F990B492FB7
:1056E000592F692F792F892F0E9419330CE00E94BE
:1056F000483419012A013B014C0130918A0620915E
:105700008906932F990F990B2196AFAC219722967A
:10571000BFAC22972396CFAC23976096DFAC6097FF
:105720006196EFAC61976296FFAC629763960FAD9E
:10573000639764961FAD6497492F592F692F792F6E
:10574000892F0E941933F22E032F142FB52FF62F15
:10575000E72FD82EE92EA0E00E94903484F4215047
:105760003F4F4F4F5F4F6F4F7F4F8F4F9F4FF22EE7
:10577000032F142FB52FF62FE72FD82EE92E2F2D1C
:10578000302F412F5B2F6F2F7E2F8D2D9E2D08E008
:105790000E94613451016201730184010E947E34D0
:1057A00070588F4F9F4F209085063090860651018C
:1057B000C12CD12CE12CF12C00E010E00E94193317
:1057C000F22E032F142FB52FF62FE72FD82EE92E08
:1057D000A0E00E94903484F421503109410951091C
:1057E0006E4F7F4F8F4F9F4FF22E032F142FB52FE9
:1057F000F62FE72FD82EE92E2F2D302F412F5B2F9C
:105800006F2F7E2F8D2D9E2D01E20E9461346596B3
:105810002FAF659766963FAF669767964FAF6797CE
:1058200068965FAF689769966FAF6997272E382E95
:10583000492EA0E00E94903409F4C8C4309190062B
:1058400020918F06932F990F990B2196AFAC21973A
:105850002296BFAC22972396CFAC23976096DFACFD
:1058600060976196EFAC61976296FFAC6297639622
:105870000FAD639764961FAD6497492F592F692F19
:10588000792F892F0E94193321962FAF21972296C5
:105890003FAF229723964FAF2397552E3B014C01E4
:1058A00030918E0620918D06932F990F990BAFA4FE
:1058B000BBA8CFA8DBACECACFDAC0EAD1FAD492F47
:1058C000592F692F792F892F0E94193301E10E94E6
:1058D00048342196AFAC21972296BFAC22972396ED
:1058E000CFAC2397D52C730184010E947E345901DB
:1058F0006A017B01582E192F29968CAD9DADAEAD56
:10590000BFAD299724E0B595A795979587952A95DA
:10591000D1F720E030E040E150E0281B390B4A0B82
:105920005B0BDA01C90139014A01990C6608762C32
:1059300043019C01AD01662D762D862D962D0FE13C
:105940000E94483439014A01B62FA72FF82FE92FBA
:1059500030918C0620918B06932F990F990B492F2C
:10596000592F692F792F892F03E20E944834052D82
:105970000E947E3459016A017B018C019301A401CC
:105980006B2F7A2F8F2F9E2F0E948734E5E3AE2E48
:10599000FCE0BF2EC12CD12CE12CF12C00E010E05A
:1059A0000E9419336596AFAC65976696BFAC669753
:1059B0006796CFAC67976896DFAC68976996EFAC4F
:1059C0006997F22C032D142D0E94733319012A01BB
:1059D0003B014C01F22E032D142FB52DF62FE72D90
:1059E000D82EE92CA0E00E94903484F42150304E4F
:1059F0004F4F5F4F6F4F7F4F8F4F9F4FF22E032FB1
:105A0000142FB52FF62FE72FD82EE92E2F2D302F5C
:105A1000412F5B2F6F2F7E2F8D2D9E2D0DE00E942D
:105A200061342FA73BAB4FAB5BAF6CAF7DAF8EAF9D
:105A30009FAF3091960620919506932F990F990B61
:105A4000AFA4BBA86A017B01082F1FAD492F592FB6
:105A5000692F792F892F0E9419330E941933F22E52
:105A6000032F142FB52FF62FE72FD82EE92EA0E005
:105A70000E94903484F42150310941095E4F6F4FE8
:105A80007F4F8F4F9F4FF22E032F142FB52FF62FDE
:105A9000E72FD82EE92E2F2D302F412F5B2F6F2F80
:105AA0007E2F8D2D9E2D09E10E94613451016201EE
:105AB000730184010E947E342FA73BAB4FAB5BAFD9
:105AC0006CAF7DAF8EAF9FAF30919406209193065F
:105AD000932F990F990B492F592F692F792F892FC0
