:100000000C9497010C94C8010C94C8010C94C8017D
:100010000C94C8010C94C8010C94C8010C94C8013C
:100020000C94C8010C94C8010C94C8010C94C8012C
:100030000C94C8010C94C8010C94C8010C94C8011C
:100040000C94C8010C94C8010C94C8010C94C8010C
:100050000C94C8010C94C8010C94C8010C9435127E
:100060000C94C8010C94A9120C947F120C94C80132
:100070000C94C8010C94C8010C94C8010C94C801DC
:100080000C94C8010C94C8010C94C8010C94C801CC
:100090000C94C8010C94C8010C94C8010C94DF1294
:1000A0000C94C8010C94C8010C94C8010C94C801AC
:1000B0000C94C8010C94C8010C94C8010C94C8019C
:1000C0000C94C8010C94C8010C94C8010C94C8018C
:1000D0000C94C8010C94C8010C94C8010C94C8017C
:1000E0000C94C801084AD73B3BCE016E84BCBFFDCF
:1000F000C12F3D6C74319ABD56833DDA3D00C77FF8
:1001000011BED9E4BB4C3E916BAAAABE0000008090
:100110003F000C94F0050C94F6010C94FD010C9436
:10012000F2010C9412070C94A9060C94870B0C9402
:1001300023020C94F2050C94FE050C9415020C9409
:10014000CB050C944C030C94DD0B0C94FA010C942D
:1001500011020C9428020C94CA060C94040A0C9404
:1001600086100C947D070C9467070C94960B0C94E6
:100170006F070C9476070C9454060C94F8050C94B5
:10018000EE010C9484070C94FF130C94AB080C94B0
:1001900010030C941F020C94AE030C94FC050C94F9
:1001A00075060C940C0C0C941B020C9407020C9416
:1001B00092070C9450070C94FA050C9429020C94A5
:1001C000A0030C942D020C9479050C94E6030C9476
:1001D0003D030C94860B0C94FC060C9403020C94C7
:1001E000871A0C94F4050C940D020C94B00B0C942B
:1001F00033040C94F6050C94E8010C948B070C94D2
:1002000099070C94AD050C94A90B00002100240063
:1002100027002A002D0030003300010100000401F6
:1002200007010A0100002200250028002B002E00F3
:100230003100340002010000050108010B0100003B
:1002400020002300260029002C002F00320000018E
:100250000000030106010901050505050705080859
:100260000808020202020A0A080804040404010140
:100270000101010101010303030303030303040755
:1002800007070C0C0C0C0C0C0C0C020202020606EC
:100290000606060606060B0B0B0B0B0B0B0B0102DF
:1002A0001020200808102040102040800201020188
:1002B0000804020101020408102040808040201040
:1002C0000804020180040201804020100804020199
:1002D0000804020101020408102040800102040801
:1002E0001020408000000A0B02090C0D0E080703C5
:1002F00004010000000000000000000000000000F9
:1003000000000000000000000000000000000000ED
:1003100012111000000000000000000000000000AA
:1003200000000000000000000000FF13871A1124E5
:100330001FBECFEFD1E2DEBFCDBF00E00CBF24E097
:10034000ACE5B2E001C01D92A83DB207E1F712E0B2
:10035000A0E0B2E0EEEDF0E400E00BBF02C00790D9
:100360000D92AC35B107D9F711E0C6E9D1E000E054
:1003700006C021970109802FFE010E94081CC53983
:10038000D10780E00807A9F70E9421160C945D2090
:100390000C9400008150823108F05AC0E82FF0E040
:1003A0008827EA52FE4F8F4F0C94081CF601FA0181
:1003B000E801EE01F2012802FD01030207020D022D
:1003C000110215021B021F022802230229022D021C
:1003D000809180008F7780938000089580918000C5
:1003E0008F7DF9CF80918000877FF5CF84B58F779F
:1003F00084BD089584B58F7DFBCF8091B0008F7749
:100400008093B00008958091B0008F7DF9CF8091E6
:1004100090008F77809390000895809190008F7D59
:10042000F9CF80919000877FF5CF8091A0008F77E2
:100430008093A00008958091A0008F7DF9CF8091D6
:10044000A000877FF5CF809120018F7780932001D6
:100450000895809120018F7DF9CF80912001877FC1
:10046000F5CFCF93DF93282F30E0F901EC51FD4F0A
:100470008491F901E256FD4FD491F901E85AFD4FFC
:10048000C491CC23A1F081110E94CA01EC2FF0E0AD
:10049000EE0FFF1FE25CFD4FA591B491EC91ED23AF
:1004A00081E090E009F480E0DF91CF91089580E051
:1004B00090E0FACF1F93CF93DF93282F30E0F9011C
:1004C000EC51FD4F8491F901E256FD4FD491F901B1
:1004D000E85AFD4FC491CC23A9F0162F81110E9438
:1004E000CA01EC2FF0E0EE0FFF1FEC5DFD4FA59170
:1004F000B4918FB7F894EC91111108C0D095DE2318
:10050000DC938FBFDF91CF911F910895DE2BF8CF41
:10051000CF93DF9390E0FC01E256FD4F2491885A7F
:100520009D4FFC0184918823D1F090E0880F991FA2
:10053000FC01E65FFD4FA591B491FC01EC5DFD4F20
:10054000C591D49161110EC09FB7F8948C91E22FA0
:10055000E0958E238C932881E223E8839FBFDF916F
:10056000CF9108958FB7F894EC91E22BEC938FBF65
:10057000F6CF3FB7F8948091A1029091A202A0918A
:10058000A302B091A40226B5A89B05C02F3F19F085
:100590000196A11DB11D3FBFBA2FA92F982F882703
:1005A000BC01CD01620F711D811D911D42E0660FDE
:1005B000771F881F991F4A95D1F708958F929F92B0
:1005C000AF92BF92CF92DF92EF92FF924B015C010C
:1005D0000E94B9026B017C010E94B9026C197D096D
:1005E0008E099F09683E734081059105A8F321E0BB
:1005F000821A9108A108B10888EEC80E83E0D81EBF
:10060000E11CF11C81149104A104B10429F7FF90AD
:10061000EF90DF90CF90BF90AF909F908F90089514
:10062000AF92BF92CF92DF92EF92FF920F931F9300
:10063000CF93DF936C017B018B01040F151FEB013E
:100640005E01AE18BF08C017D10759F06991D601F5
:10065000ED91FC910190F081E02DC6011995892B57
:1006600079F7C501DF91CF911F910F91FF90EF9026
:10067000DF90CF90BF90AF900895FC01538D448DD3
:10068000252F30E0842F90E0821B930B541710F03D
:10069000CF96089501970895FC01918D828D98174A
:1006A00061F0A28DAE0FBF2FB11D5D968C91928D22
:1006B0009F5F9F73928F90E008958FEF9FEF089553
:1006C0002FB7F8948091A5029091A602A091A7025D
:1006D000B091A8022FBF8093230390932403A0938B
:1006E0002503B09326038BE193E00E944C0397FF10
:1006F00026C02FB7F8948091A5029091A602A091F0
:10070000A702B091A8022FBF409123035091240368
:100710006091250370912603841B950BA60BB70BE4
:1007200040911F0350912003609121037091220397
:1007300084179507A607B707B0F28FEF9FEF0895CC
:10074000FC01918D828D981731F0828DE80FF11D9B
:10075000858D90E008958FEF9FEF0895FC01918DB6
:10076000228D892F90E0805C9F4F821B91098F73AF
:10077000992708958BE193E00E94AE0321E0892B35
:1007800009F420E0822F0895FC01A48DA80FB92F51
:10079000B11DA35ABF4F2C91848D90E001968F73A9
:1007A0009927848FA689B7892C93A089B1898C91C8
:1007B000837080648C93938D848D981306C0028817
:1007C000F389E02D80818F7D80830895EF92FF92E1
:1007D0000F931F93CF93DF93EC0181E0888F9B8D64
:1007E0008C8D98131AC0E889F989808185FF15C01E
:1007F0009FB7F894EE89FF896083E889F989808141
:100800008370806480839FBF81E090E0DF91CF910F
:100810001F910F91FF90EF900895F62E0B8D10E031
:100820000F5F1F4F0F731127E02E8C8D8E110CC0A0
:100830000FB607FCFACFE889F989808185FFF5CFEB
:10084000CE010E94C403F1CFEB8DEC0FFD2FF11D03
:10085000E35AFF4FF0829FB7F8940B8FEA89FB8928
:1008600080818062CFCFCF93DF93EC01888D882386
:10087000B9F0AA89BB89E889F9898C9185FD03C003
:10088000808186FD0DC00FB607FCF7CF8C9185FFE8
:10089000F2CF808185FFEDCFCE010E94C403E9CF66
:1008A000DF91CF91089580E090E0892B29F00E949C
:1008B000BA0381110E94000080E090E0892B49F08A
:1008C00080E090E0892B29F00E94000081110E94B5
:1008D000000080E090E0892B49F080E090E0892BD7
:1008E00029F00E94000081110E94000080E090E049
:1008F000892B49F080E090E0892B29F00E940000CC
:1009000081110C9400000895CF92DF92EF92FF9234
:10091000CF93DF93EC010E94B9026B017C0188A5A3
:1009200099A5AAA5BBA5B701A601481B590B6A0B3F
:100930007B0B8B819C81AD81BE81481759076A076B
:100940007B0748F188899989AA89BB892A81222352
:10095000F1F00196A11DB11D888B998BAA8BBB8BE1
:10096000488959896A897B89E881F9810484F585F8
:10097000E02DCE011995C8A6D9A6EAA6FBA681E06E
:10098000DF91CF91FF90EF90DF90CF900895019786
:10099000A109B109E1CF80E0F3CF4F925F926F924E
:1009A0007F928F929F92AF92BF92CF92DF92EF92FF
:1009B000FF92CF93DF9300D000D0CDB7DEB79E83F8
:1009C0008D83DC0158968D909D90AD90BC905B9787
:1009D00020E030E0A901C501B4010E948F1A8823EC
:1009E00009F472C0A5019401C501B4010E94F51A71
:1009F0006B017C01ED81FE8160A171A182A193A1B7
:100A00009B01AC010E94251C9B01AC01C701B601F2
:100A10000E94031D0E94751D6B017C01AD81BE818A
:100A200050964D905D906D907C90539754968D911B
:100A30009D910D90BC91A02D89839A83AB83BC833B
:100A400020E030E0A901C501B4010E94D21D1816B2
:100A5000B4F5BFEFCB1ADB0AEB0AFB0A4C0C5D1CAA
:100A60006E1C7F1C89819A81AB81BC8184159505A0
:100A7000A605B70549F1AD81BE8154964D925D92B0
:100A80006D927C925797ED91FC9111970084F185BE
:100A9000E02DCD0126960FB6F894DEBF0FBECDBF78
:100AA000DF91CF91FF90EF90DF90CF90BF90AF900C
:100AB0009F908F907F906F905F904F901994C0940B
:100AC000D094E094F094CACF26960FB6F894DEBF87
:100AD0000FBECDBFDF91CF91FF90EF90DF90CF9011
:100AE000BF90AF909F908F907F906F905F904F904E
:100AF0000895CF93DF93FC012781222359F1EC0164
:100B000061E080850E94880261E089850E948802F8
:100B10008F81843011F08830B1F461E08A850E94C1
:100B2000880261E08B850E9488028FA58F3F91F03B
:100B300061E00E9488026EA581E068278FA5DF91A1
:100B4000CF910C945A02833011F0863071F761E036
:100B50008A85E9CFDF91CF910895CF93DF93FC0190
:100B600027812223A9F0EC010190F081E02D02847D
:100B7000F385E02D60E019958FA58F3F49F061E086
:100B80000E9488026EA58FA5DF91CF910C945A0226
:100B9000DF91CF910895DC01ED91FC9111972285B1
:100BA00033854770552766277727415051096109DA
:100BB0007109473051056105710570F4FA01882704
:100BC000EB51FA4F8F4F0C94081CF005F205F40519
:100BD000F605F805FA05FC0561E0CD01F901199467
:100BE00065E0FBCF64E0F9CF66E0F7CF62E0F5CFD8
:100BF0006AE0F3CF68E0F1CF69E0EFCFCF93DF9306
:100C0000EC01CB01BA0126E030E040E050E00E9468
:100C1000E91B623071058105910589F16CF461155C
:100C2000710581059105D1F061307105810591054E
:100C3000F9F0DF91CF910895643071058105910538
:100C400061F124F1653071058105910591F7E88125
:100C5000F9810284F385E02D66E006C0E881F98120
:100C60000284F385E02D64E0CE01DF91CF911994E9
:100C7000E881F9810284F385E02D65E0F5CFE88114
:100C8000F9810284F385E02D61E0EECFE881F981FE
:100C90000284F385E02D63E0E7CFE881F9810284E7
:100CA000F385E02D62E0E0CFDC01ED91FC91028460
:100CB000F385E02D4370552766277727423051058D
:100CC0006105710571F0433051056105710559F0F9
:100CD000413051056105710511F065E0199466E038
:100CE000FDCF6AE0FBCF69E0F9CFCF93DF93EC0152
:100CF000CB01BA0123E030E040E050E00E94E91B64
:100D0000613071058105910599F0623071058105A9
:100D10009105A9F0672B682B692BC1F4E881F98153
:100D20000284F385E02D64E0CE01DF91CF91199428
:100D3000E881F9810284F385E02D61E0F5CFE88157
:100D4000F9810284F385E02D62E0EECFDF91CF914F
:100D50000895DC01ED91FC910284F385E02D437050
:100D6000552766277727423051056105710571F0D7
:100D7000433051056105710559F041305105610558
:100D8000710511F062E0199463E0FDCF61E0FBCFE3
:100D900060E0F9CFCF93DF93EC01E881F981028421
:100DA000F385E02D8A8160E0811162E0CE01199522
:100DB000E881F9810284F385E02D8A8161E0811167
:100DC00063E0CE0119958CA59DA58230910538F080
:100DD000880F991F880F991F05970197F1F7E881F0
:100DE000F9810284F385E02D8A8160E0811162E05F
:100DF000CE01DF91CF911994CF93DF93EC0120E0E6
:100E000030E0A901688D798D8A8D9B8D0E94D21D5D
:100E100018162CF4E8A9F9A9DF91CF911994EAA941
:100E2000FBA9FACFCF92DF92EF92FF920F931F931D
:100E3000CF93DF93DC011796CC91C43039F0C830E2
:100E400059F1C33019F0C63049F1C2E08C01085F96
:100E50001F4FF12CE12CC62ED12CD1E0F80164817A
:100E6000C6010E2C02C0959587950A94E2F780FD85
:100E70006D270F5F1F4F80810E945A02BFEFEB1A50
:100E8000FB0AEC1658F3DF91CF911F910F91FF9061
:100E9000EF90DF90CF900895C4E0D8CFC3E0D6CFD5
:100EA000DC011796EC911797E93008F042C0F0E0AA
:100EB0008827E25AF84F8F4F0C94081C67076F077A
:100EC00076077D07840799078B0799079207ED91AD
:100ED000FC9111970684F785E02DCD011994ED91D1
:100EE000FC9111970088F189E02DF7CFED91FC91ED
:100EF00011970288F389E02DF0CFED91FC911197C5
:100F00000488F589E02DE9CFED91FC9111970688D1
:100F1000F789E02DE2CFED91FC911197008CF18DD6
:100F2000E02DDBCFED91FC911197028CF38DE02D3C
:100F3000D4CF08954F925F926F927F92AF92BF92FB
:100F4000CF92DF92EF92FF920F931F93CF93DF9395
:100F5000EC015A018B019A01AB01688D798D8A8D64
:100F60009B8D0E948F1A882379F14C8C5D8C6E8C3E
:100F70007F8C73016201F7FAF094F7F8F094A701FF
:100F80009601B501C8010E948F1A87FD0CC0A3010C
:100F90009201B501C8010E94D21D730162011816A9
:100FA00014F06501780120E030E0A901C701B60125
:100FB0000E948F1A811117C01B821C821D821E8203
:100FC000C88ED98EEA8EFB8EDF91CF911F910F9143
:100FD000FF90EF90DF90CF90BF90AF907F906F9099
:100FE0005F904F900895A701960160E074E284E756
:100FF00099E40E94031D9F770E947C1D6B837C8374
:101000008D839E8311E020E030E0A901C701B60185
:101010000E94D21D18160CF010E01A83D1CFCF9287
:10102000DF92EF92FF9269017A019B01AC0160E0CF
:1010300070E08AE794E40E94241CAB01BC018EE1BD
:1010400094E00E949A07A701960160E070E08AE7A9
:1010500094E40E94241CAB01BC0182E694E0FF9062
:10106000EF90DF90CF900C949A07CF92DF92EF929F
:10107000FF920F931F93CF93DF93EC016A017B01E3
:1010800020E030E0A901CB01B6010E948F1A87FF52
:1010900004C0F7FAF094F7F8F094A70196016C8D6C
:1010A0007D8D8E8D9F8D0E948F1A882309F44AC0F2
:1010B000CC8EDD8EEE8EFF8E8E01005C1F4FA70161
:1010C000960160E074E284E799E40E94031DF80150
:1010D00060837183828393838CA99DA9AEA9BFA9E4
:1010E000181619061A061B066CF5688D798D8A8DFF
:1010F0009B8D9B01AC010E94F51A6B017C0168A1DC
:1011000079A18AA19BA19B01AC010E94251C9B0196
:10111000AC01C701B6010E94031D0E94751D6CAB96
:101120007DAB8EAB9FABE881F9810084F185E02D2A
:10113000CE01DF91CF911F910F91FF90EF90DF9043
:10114000CF901994DF91CF911F910F91FF90EF9065
:10115000DF90CF9008954F925F926F927F928F921F
:101160009F92AF92BF92CF92DF92EF92FF920F9336
:101170001F93CF93DF93EC01CC88DD88EE88FF8846
:1011800088899989AA89BB89C81AD90AEA0AFB0AF7
:10119000688D798D8A8D9B8D9B01AC010E94F51A1B
:1011A0004B015C0168A179A18AA19BA19B01AC01C3
:1011B0000E94251C9B01AC01C501B4010E94031DC6
:1011C0000E94751DC114D104E104F10409F0B6C0F8
:1011D00062307105810591050CF0D0C01B821C8224
:1011E0001D821E82188E198E1A8E1B8E1CAA1DAA95
:1011F0001EAA1FAAC12CD12C7601C701B601DF910E
:10120000CF911F910F91FF90EF90DF90CF90BF9003
:10121000AF909F908F907F906F905F904F900895C8
:101220001016110612061306B4F46C157D058E0512
:101230009F051CF42A812111A1C09B01AC018827C4
:101240009927DC01821B930BA40BB50B8CAB9DABD8
:10125000AEABBFAB93C0011511052105310509F4F3
:101260008DC06C157D058E059F050CF087C08A81A9
:10127000882309F483C030952095109501951F4F60
:101280002F4F3F4F0CAB1DAB2EAB3FAB77C00115C3
:1012900011052105310509F471C0882499245401F0
:1012A0008C189D08AE08BF08681579058A059B054E
:1012B0000CF064C08A81811161C0DDCFCCACDDACA3
:1012C000EEACFFACA7019601C701B6010E94251C38
:1012D0002B013C01C501B4010E94961A20E030E0C8
:1012E00040E850E40E94F51A20E030E040E85FE377
:1012F0000E94251C9B01AC01C301B2010E94031D89
:101300009B01AC01C701B6010E94241C3B016C018A
:10131000FE01E05CFF4FE080F180028113819701C4
:10132000A8010E94D21D181614F473018601C7018A
:10133000D8018CAF9DAFAEAFBFAF3AC00CA91DA90D
:101340002EA93FA91C141D041E041F040CF468CF11
:1013500010161106120613060CF099CF002711275C
:1013600098010C191D092E093F09601771078207A2
:1013700093070CF062CF2A8121115FCF8CA89DA822
:10138000AEA8BFA881149104A104B10409F096CFBE
:1013900088AD99ADAAADBBAD8CAF9DAFAEAFBFAFC1
:1013A00081E01C141D041E041F040CF080E08A83DD
:1013B0003FEF831A930AA30AB30A8CAA9DAAAEAA86
:1013C000BFAA8CAC9DACAEACBFACC501B4010E9451
:1013D0007C1D6B017C01CB82DC82ED82FE82A5014B
:1013E000940160E074E284E799E40E94031D688F31
:1013F000798F8A8F9B8F2A812111FFCE9058688F19
:10140000798F8A8F9B8FF9CE08951F93CF93DF93A7
:10141000C1E0C0935C02882399F1D091B80010918B
:10142000BA008091BC008A7B8093BC0060E084E1BC
:101430000E945A0260E085E10E945A021092F10275
:10144000C093F0021092CB0261E084E10E945A0244
:1014500061E085E10E945A028091B9008E7F8093FD
:10146000B9008091B9008D7F8093B90088E48093A2
:10147000B80085E48093BC001093BA00D093B80004
:10148000DF91CF911F9108958F929F92AF92BF925B
:10149000CF92DF92EF92FF920F931F93CF93DF9340
:1014A000D0911A03D13208F0D7C0182FC091190378
:1014B0000E94B9026B017C018091F10281116BC025
:1014C00082E08093F1021093F0028FEF8093EF029D
:1014D0001092EE02D093ED02A9EFB2E0EDECF2E053
:1014E00080E0D81391C01092CC028091CC02CC0F36
:1014F000C82BC093CC028091CB02813009F088C008
:101500001092CB020E94B9026B017C018091CC0247
:101510008093BB008091F3029091F402A091F502B8
:10152000B091F602892B8A2B8B2BA1F00E94B90275
:101530000091F3021091F4022091F5023091F6022D
:101540006C197D098E099F090617170728073907A7
:1015500008F442C08091BC0083FDD8CF85EC809315
:10156000BC000E94B9026B017C018091F1028230C3
:1015700009F450C08091EF028F3F09F46FC0809151
:10158000EF02803209F46CC08091EF02803309F4DD
:1015900069C084E026C08091F3029091F402A0918A
:1015A000F502B091F602892B8A2B8B2B09F484CF9C
:1015B0000E94B9028090F3029090F402A090F5028C
:1015C000B090F6026C197D098E099F098616970660
:1015D000A806B90608F070CF8091F2020E94050AB1
:1015E00085E01092F80210921A031092F702DF9130
:1015F000CF911F910F91FF90EF90DF90CF90BF9010
:10160000AF909F908F9008959D9191938F5F69CF38
:1016100085EEA5CF8091F3029091F402A091F5029E
:10162000B091F602892B8A2B8B2B09F49ECF0E9456
:10163000B9020091F3021091F4022091F502309169
:10164000F6026C197D098E099F09061717072807EE
:10165000390708F08ACFC0CF81E0C3CF80E0C1CF87
:1016600082E0BFCF83E0BDCF1F93CF93DF93162FD0
:10167000C4ECD3E0A881B98191E09093F70298E699
:10168000909319031092F80210921A03ED91FC91B5
:1016900011970190F081E02D682FCD011995888177
:1016A0009981DC01ED91FC910190F081E02D612F99
:1016B000199581E0DF91CF911F910C94440A2091FC
:1016C0007D02260F3327331F21323105ECF42091A0
:1016D000F102FC0190E080E0243069F082E008959E
:1016E000A0917D022191AC01435A5D4FA40FB52F0B
:1016F000B11D2C930196861798F380917D02680F97
:1017000060937D0280E0089581E008950895E0915E
:10171000AA028091A902E81730F4F0E0E555FD4FE8
:10172000808190E008958FEF9FEF08959091AA0235
:101730008091A9022FEF3FEF981748F4E92FF0E0CE
:10174000E555FD4F208130E09F5F9093AA02C901CB
:1017500008958091A9029091AA02891B990B08957E
:10176000CF92DF92EF92FF920F931F93CF93DF936D
:101770007C01CB018A012091F702222389F0EB0141
:101780006B01C40ED51ECC15DD0569F06991D7013A
:10179000ED91FC910190F081E02DC7011995F3CFF7
:1017A000642F0E945F0BC801DF91CF911F910F91B1
:1017B000FF90EF90DF90CF900895CF93DF931F922B
:1017C000CDB7DEB769832091F7022223F9F020918B
:1017D0001A03203258F021E030E0FC0133832283E9
:1017E00090E080E00F90DF91CF9108958091F80212
:1017F000E82FF0E0E750FD4F998190838F5F809351
:10180000F80280931A0381E090E0ECCF61E0CE0112
:1018100001960E945F0BF7CF90E080E008958F92D1
:101820009F92AF92BF92CF92DF92EF92FF920F936F
:101830001F93CF93DF93CDB7DEB72E970FB6F894F3
:10184000DEBF0FBECDBF8091C4039091C50321E0E0
:101850002093F70228E6209319031092F8021092C1
:101860001A03DC01ED91FC910190F081E02D6BE316
:10187000199580E00E94440A0E94B9024B015C0164
:101880008091F102811165C081E08093F102809323
:10189000F0029FEF9093EF021092EE029DE0909382
:1018A000ED028093CC028091CC02806D8093CC02BB
:1018B0008091CB02813009F091C11092CB020E943D
:1018C000B9024B015C018091CC028093BB008091F6
:1018D000F3029091F402A091F502B091F602892BE7
:1018E0008A2B8B2BA1F00E94B9020091F302109178
:1018F000F4022091F5023091F602681979098A09FB
:101900009B09061717072807390708F443C0809179
:10191000BC0083FDD8CF85EC8093BC000E94B90247
:101920004B015C018091F102813009F459C1809131
:10193000EE028E3008F076C18091EE02ADECB2E09E
:10194000EBEAF2E090E0981751F12D9121939F5F1F
:10195000FACF8091F3029091F402A091F502B09138
:10196000F602892B8A2B8B2B09F48ACF0E94B902AD
:101970000091F3021091F4022091F5023091F602E9
:10198000681979098A099B09061717072807390773
:1019900008F076CF8091F2020E94050A80E0109252
:1019A000AA028093A9028E010F5F1F4F6E01BFE054
:1019B000CB0ED11C8091C4039091C503DC01ED9145
:1019C000FC910284F385E02D1995B82E8091C40313
:1019D0009091C503DC01ED91FC910284F385E02D2B
:1019E0001995E12C8E299B29F801819391938F0100
:1019F000CE16DF06F9F6C090CA03D090CB03E09074
:101A0000CC03F090CD0369817A81072E000C880BFE
:101A1000990B0E94961AA70196010E94031D20911E
:101A2000DA033091DB034091DC035091DD030E9427
:101A3000241C6093EA037093EB038093EC03909370
:101A4000ED036B817C81072E000C880B990B0E94A3
:101A5000961AA70196010E94031D2091DE03309182
:101A6000DF034091E0035091E1030E94241C609346
:101A7000EE037093EF038093F0039093F1036D8175
:101A80007E81072E000C880B990B0E94961AA701E5
:101A900096010E94031D2091E2033091E3034091DF
:101AA000E4035091E5030E94241C6093F2037093B9
:101AB000F3038093F4039093F5036F817885072EE9
:101AC000000C880B990B0E94961A20E030EF41E43D
:101AD00056E40E94251C20E030E04AEA53E40E94CC
:101AE000031D6093E6037093E7038093E8039093EC
:101AF000E903C090C603D090C703E090C803F090FC
:101B0000C90369857A85072E000C880B990B0E9402
:101B1000961AA70196010E94031D2091CE033091D1
:101B2000CF034091D0035091D1030E94241C6093B5
:101B3000F6037093F7038093F8039093F9036B8592
:101B40007C85072E000C880B990B0E94961AA70122
:101B500096010E94031D2091D2033091D30340913E
:101B6000D4035091D5030E94241C6093FA03709310
:101B7000FB038093FC039093FD036D857E85072E08
:101B8000000C880B990B0E94961AA70196010E94DF
:101B9000031D2091D6033091D7034091D803509173
:101BA000D9030E94241C6093FE037093FF0380936B
:101BB0000004909301042E960FB6F894DEBF0FBE7A
:101BC000CDBFDF91CF911F910F91FF90EF90DF90EC
:101BD000CF90BF90AF909F908F90089585EE9CCE50
:101BE0008091F3029091F402A091F502B091F60277
:101BF000892B8A2B8B2B09F495CE0E94B902009178
:101C0000F3021091F4022091F5023091F602681966
:101C100079098A099B09061717072807390708F069
:101C200081CEB8CE8EE08ACEFC0101900020E9F78B
:101C30003197AF01481B590BBC018BE193E00C9429
:101C40001003CF93DF930E94140EEC018AE492E01C
:101C50000E94140E8C0F9D1FDF91CF9108954F921B
:101C60005F926F927F928F929F92AF92BF92CF922C
:101C7000DF92EF92FF92CF93DF93EC016A017B0139
:101C800020E030E0A901CB01B6010E948F1A87FF46
:101C900004C0F7FAF094F7F8F09488A099A0AAA0ED
:101CA000BBA0A7019601C501B4010E948F1A882329
:101CB00009F44DC06CA97DA98EA99FA90E94961A0E
:101CC0002B013C01A7019601C501B4010E94031D2F
:101CD0009B01AC01C301B2010E94F51A0E94751D5F
:101CE0006CAB7DAB8EAB9FABA701960160E070E063
:101CF00080E090E40E94031D0E94E51D26E53EE081
:101D00004DE25FE30E94F51A20E034E244E759E433
:101D10000E94F51A68AF79AF8AAF9BAFC8A2D9A26B
:101D2000EAA2FBA2E881F9810084F185E02DCE01D1
:101D3000DF91CF91FF90EF90DF90CF90BF90AF9069
:101D40009F908F907F906F905F904F901994DF914C
:101D5000CF91FF90EF90DF90CF90BF90AF909F908A
:101D60008F907F906F905F904F9008954F925F9209
:101D70006F927F928F929F92AF92BF92CF92DF929B
:101D8000EF92FF920F931F93CF93DF9300D000D079
:101D900000D01F92CDB7DEB70E940F0CC090F203A7
:101DA000D090F303E090F403F090F503A7019601BF
:101DB000C701B6010E94F51A69837A838B839C83DD
:101DC0008090EA039090EB03A090EC03B090ED03B9
:101DD000A5019401C501B4010E94F51A29813A8137
:101DE0004B815C810E94251C0E94E51D6D837E83D2
:101DF0008F8398874090EE035090EF036090F0033C
:101E00007090F10301E010E020E030E0A901C7018B
:101E1000B6010E94D21D87FF02C010E000E021E061
:101E200030E03A87298720E030E0A901C701B601F8
:101E30000E948F1A87FD02C01A861986B80149854B
:101E40005A85641B750B072E000C880B990B0E949A
:101E5000961A2D813E814F8158850E94F51A9B016B
:101E6000AC01C301B2010E94A41C21EE3EE245E692
:101E700052E40E94F51A6093020470930304809365
:101E8000040490930504A3019201C301B2010E94CE
:101E9000F51A29813A814B815C810E94251C0E94A0
:101EA000E51D9B01AC01C501B4010E94A41C905822
:101EB00021EE3EE245E652E40E94F51A60930604E4
:101EC0007093070480930804909309048FB7F894E3
:101ED0008090A5029090A602A090A702B090A802C0
:101EE0008FBF8091160490911704A0911804B091AF
:101EF0001904A5019401281B390B4A0B5B0BCA017D
:101F0000B9010E94941A2FE632E143E85AE30E9495
:101F1000F51A6B017C018092160490921704A0922E
:101F20001804B092190480901A0490901B04A09099
:101F30001C04B0901D04A501940160E070E080E8ED
:101F40009FE30E94241C2B013C012091F603309159
:101F5000F7034091F8035091F903C701B6010E94BD
:101F6000F51A20910A0430910B0440910C04509111
:101F70000D040E94251CA50194010E94F51A698395
:101F80007A838B839C8320910204309103044091D7
:101F9000040450910504C301B2010E94F51A9B018B
:101FA000AC0169817A818B819C810E94251C6093A0
:101FB0000A0470930B0480930C0490930D042091F9
:101FC000FA033091FB034091FC035091FD03C701DC
:101FD000B6010E94F51A20910E0430910F04409131
:101FE0001004509111040E94251CA50194010E9427
:101FF000F51A4B015C0120910604309107044091D1
:10200000080450910904C301B2010E94F51A9B0112
:10201000AC01C501B4010E94251C60930E047093AD
:102020000F0480931004909311042091FE033091CB
:10203000FF034091000450910104C701B6010E94C2
:10204000F51A209112043091130440911404509118
:1020500015040E94251C609312047093130480934E
:102060001404909315042A960FB6F894DEBF0FBEA1
:10207000CDBFDF91CF911F910F91FF90EF90DF9037
:10208000CF90BF90AF909F908F907F906F905F9018
:102090004F9008952091CC043091CD048091C604D6
:1020A0009091C70428173907F1F48091C8049091E2
:1020B000C9046091C2047091C3040097D1F0611506
:1020C0007105A1F4232BC1F0FC01808190E008C0D0
:1020D000232B91F0FB01808190E0919581959109EE
:1020E00021E0892B09F020E0822F08950E944D20E5
:1020F000F7CF6115710561F721E0F6CFFC01808112
:102100009181009711F00C94DA1E08950C94DA1E58
:102110000F931F93CF93DF93EC01888199810097F0
:1021200059F02A813B812617370730F081E0DF9193
:10213000CF911F910F9108958B016F5F7F4F0E9488
:10214000631F009759F0998388831B830A832C812E
:102150003D81232B59F7FC011082E8CF80E0E7CFC7
:10216000EF92FF920F931F93CF93DF93EC017B01CC
:102170008A01BA010E94881028813981811114C016
:102180002115310519F0C9010E94DA1E1982188241
:102190001D821C821B821A82CE01DF91CF911F917A
:1021A0000F91FF90EF9008951D830C83B701C90133
:1021B0000E945620F1CF0F931F93CF93DF9300D04F
:1021C00000D01F921F92CDB7DEB71A8219821C82EF
:1021D0001B821E821D8250E040E06CE472E0CE0162
:1021E00001960E94B0100E9460030D811E8197FD30
:1021F0001CC08A309105C9F08F8318860F5F1F4F6E
:10220000B801CE0101960E948810882361F32981CC
:102210003A818D819E81BE01695F7F4F820F931F3E
:102220000E9456201E830D83DECF012B79F0098199
:102230001A816DE472E0C8010E944D20892BA9F437
:1022400081E090E09093A7048093A604CE010196CC
:102250000E947E1028960FB6F894DEBF0FBECDBF49
:10226000DF91CF911F910F9108956FE472E0C80143
:102270000E944D20892B51F71092A7041092A604BA
:10228000E5CF6091C2047091C3046115710559F0E6
:102290004091C6045091C70488EC94E00E94B010AD
:1022A00088EC94E008958091C8049091C904009747
:1022B00011F00E94DA1E1092C9041092C804109204
:1022C000CD041092CC041092CB041092CA04E8CF33
:1022D000FC0101900020E9F73197AF01481B590B31
:1022E000BC0182EC94E00C94B010CF92DF92EF929C
:1022F000FF920F931F93CF93DF93C090BC04D090B5
:10230000BD04E090BE04F090BF04C701B6010E9476
:10231000751DC8E6D1E0CB01BE010E94B31B8C0144
:1023200020E030E0A901C701B6010E948F1A87FFA3
:1023300027C0C01BD10BD093C104C093C0048091AF
:10234000C0049091C1049C012E5231092D3041E00E
:102350003407D8F081E592E00E9468110E944A108B
:10236000811142C081E592E00E94210EDF91CF9160
:102370001F910F91FF90EF90DF90CF900C9441113F
:102380001093C1040093C004DACF2935310558F405
:1023900083E592E00E9468110E944A10811124C0D6
:1023A00083E592E0E1CF9C012858310929353105B8
:1023B00058F485E592E00E9468110E944A1081114C
:1023C00013C085E592E0D0CF825E910989359105F1
:1023D00058F487E592E00E9468110E944A1081112A
:1023E00003C087E592E0C0CFDF91CF911F910F919D
:1023F000FF90EF90DF90CF90089585ED8093BC0023
:102400008091F3029091F402A091F502B091F6024E
:102410000796A11DB11D23E0B695A79597958795C1
:102420002A95D1F72091BC0024FD03C01092F1023F
:1024300008954091F3025091F4026091F502709179
:10244000F602452B462B472B69F30097A105B105F2
:1024500041F025E32A95F1F700000197A109B109A0
:10246000E1CF8091F2020C94050A1F920F920FB6F1
:102470000F9211242F933F938F939F93AF93BF930A
:102480008091A5029091A602A091A702B091A80206
:102490003091A00223E0230F2D3758F50196A11D9E
:1024A000B11D2093A0028093A5029093A602A09351
:1024B000A702B093A8028091A1029091A202A091DC
:1024C000A302B091A4020196A11DB11D8093A102A7
:1024D0009093A202A093A302B093A402BF91AF91E4
:1024E0009F918F913F912F910F900FBE0F901F9052
:1024F000189526E8230F0296A11DB11DD2CF1F9279
:102500000F920FB60F9211240BB60F922F933F9399
:102510004F935F936F937F938F939F93AF93BF93EB
:10252000EF93FF938BE193E00E94C403FF91EF913F
:10253000BF91AF919F918F917F916F915F914F91DB
:102540003F912F910F900BBE0F900FBE0F901F90D9
:1025500018951F920F920FB60F9211240BB60F927F
:102560002F938F939F93EF93FF93E0912B03F09121
:102570002C038081E0913103F091320382FD1DC074
:102580009081809134038F5F8F7320913503821780
:1025900041F0E0913403F0E0E55EFC4F958F8093CD
:1025A0003403FF91EF919F918F912F910F900BBE6C
:1025B0000F900FBE0F901F9018958081F2CF1F9241
:1025C0000F920FB60F9211240BB60F922F933F93D9
:1025D0004F935F936F937F938F939F93AF93BF932B
:1025E000EF93FF938091B900887F803609F44DC046
:1025F00008F040C0883209F4A7C028F5803109F4FA
:102600009BC0C8F4882309F4F7C0883009F494C04B
:10261000FF91EF91BF91AF919F918F917F916F91BA
:102620005F914F913F912F910F900BBE0F900FBE76
:102630000F901F901895883109F486C0803241F7B9
:102640008093EF0214C0803409F49BC040F48033BF
:10265000B9F38833E9F68093EF0285ECAEC080359C
:1026600009F483C0883509F494C0883489F60E943F
:10267000FD11CECF883909F48AC038F5883729F0A2
:1026800050F4883611F0803719F683E08093F10218
:1026900010929F0255C0883809F479C0803919F02A
:1026A000803809F0B5CF80919F02803208F06FC06A
:1026B000E0919F0281E08E0F80939F028091BB008A
:1026C000F0E0E158FD4F80833BC0803B39F0D0F40F
:1026D000803A09F477C0883A09F09ACF84E0809371
:1026E000F10210927E0210927D02F0E0E0E0199576
:1026F00080917D0281110FC081E080937D02109254
:102700005D0209C0803C09F4A8CF883C09F4A5CF3C
:10271000883B09F07DCFE0917E0281E08E0F8093AF
:102720007E02F0E0E35AFD4F80818093BB009091E0
:102730007E0280917D0229C08091CC028093BB00F3
:1027400085EC8093BC0064CF9091EE028091ED0205
:10275000981758F5E091EE0281E08E0F8093EE021B
:10276000F0E0E353FD4F8081E9CFE091EE0281E09C
:102770008E0F8093EE028091BB00F0E0E353FD4F9B
:1027800080839091EE028091ED029817C8F285E85F
:10279000D8CFE091EE0281E08E0F8093EE0280911F
:1027A000BB00F0E0E353FD4F80838091F002811184
:1027B0005ECF81E08093CB0284EA8093BC001092CC
:1027C000F10226CF85EC8093BC001092F10280913B
:1027D0009F02803230F4E0919F02F0E0E158FD4F1B
:1027E000108260919F0270E08FE792E0F0E0E0E0FD
:1027F000199510929F020CCF1092EF0238CF8F9252
:102800009F92AF92BF92CF92DF92EF92FF920F937F
:102810001F93CF93DF93EBE1F3E01382128248EE34
:1028200053E060E070E044835583668377838AE0F9
:1028300092E09183808385EC90E09587848784EC97
:1028400090E09787868780EC90E0918B808B81EC7D
:1028500090E0938B828B82EC90E0958B848B86EC5E
:1028600090E0978B868B118E128E138E148EA8EBB0
:10287000B3E013961C921E92129714964D935D939B
:102880006D937C9317978CE192E011969C938E93B5
:10289000E4ECF3E0B183A08388E491EEAAE7BFE320
:1028A00080931A0490931B04A0931C04B0931D04FE
:1028B000128613861486158616861786108A118A44
:1028C000128A138A148A158A168A178A108E118E14
:1028D000128E138E148E158E168E178E10A211A2C4
:1028E0008EE2A82E82E0B82EB0921F04A0921E04A1
:1028F000882483948092250410922E0410922F0431
:102900001092300410923104109232041092330469
:102910001092340410923504109236041092370449
:10292000109238041092390410923A0410923B0429
:1029300010923C0410923D0410923E0410923F0409
:102940001092400410924104C12CD12C90E8E92E41
:102950009FE3F92EC0924204D0924304E0924404D3
:10296000F092450410922104109222041092230444
:102970001092240401E010E010934B0400934A04E9
:1029800099249A9490924D04109246041092470410
:10299000109248041092490482E08093260483E058
:1029A00080932704D4E0D0932804C5E0C093290481
:1029B00010924C041092520410925304109254043A
:1029C0001092550410925604109257041092580415
:1029D0001092590410925A0410925B0410925C04F5
:1029E00010925D04C0925E04D0925F04E092600495
:1029F000F09261041092200410922A0410922B0489
:102A000010922C0410922D048EE194E00E9479051E
:102A1000B701A6018EE194E00E942F0EB701A60136
:102A20008EE194E00E943508B0926304A0926204A3
:102A300080926904109272041092730410927404CC
:102A40001092750410927604109277041092780414
:102A50001092790410927A0410927B0410927C04F4
:102A600010927D0410927E0410927F0410928004D4
:102A700010928104109282041092830410928404B4
:102A800010928504C0928604D0928704E092880454
:102A9000F092890410926504109266041092670403
:102AA0001092680410938F0400938E049092910406
:102AB00010928A0410928B0410928C0410928D0450
:102AC000D0936A04C0936B04D0936C04C0936D04DC
:102AD0001092900410929604109297041092980409
:102AE0001092990410929A0410929B0410929C04E4
:102AF00010929D0410929E0410929F041092A004C4
:102B00001092A104C092A204D092A304E092A40463
:102B1000F092A5041092640410926E0410926F0457
:102B2000109270041092710482E694E00E9479057C
:102B3000B701A60182E694E00E942F0EB701A6011C
:102B400082E694E00E9435081092A7041092A60431
:102B500088EB9BE09093A9048093A8041092AA04A8
:102B60001092AB041092AC041092AD0480ED97E08B
:102B70009093AF048093AE041092B0041092B1040D
:102B80001092B2041092B3041092B4041092B504DF
:102B90001092B6041092B7041092B9041092B804BF
:102BA0001092BB041092BA041092BC041092BD049F
:102BB0001092BE041092BF041092C1041092C0047F
:102BC0001092C3041092C2041092C5041092C4045F
:102BD0001092C7041092C60441E050E069E572E02B
:102BE00082EC94E00E94B0101092C9041092C804C4
:102BF0001092CB041092CA041092CD041092CC040F
:102C000041E050E069E572E088EC94E00E94B01089
:102C10001092CF041092CE041092D1041092D004DE
:102C20001092D3041092D204DF91CF911F910F9193
:102C3000FF90EF90DF90CF90BF90AF909F908F90DC
:102C40000895CF93DF93CDB7DEB7AD970FB6F89465
:102C5000DEBF0FBECDBF789484B5826084BD84B5DD
:102C6000816084BD85B5826085BD85B5816085BD87
:102C700080916E00816080936E001092810080913F
:102C800081008260809381008091810081608093C7
:102C90008100809180008160809380008091B100EC
:102CA00084608093B1008091B00081608093B00017
:102CB0008091910082608093910080919100816069
:102CC000809391008091900081608093900080912A
:102CD000A10082608093A1008091A1008160809317
:102CE000A1008091A00081608093A00080912101CB
:102CF0008260809321018091210181608093210174
:102D00008091200181608093200180917A0084600D
:102D100080937A0080917A00826080937A0080911B
:102D20007A00816080937A0080917A008068809335
:102D30007A001092C100E0912B03F0912C0382E005
:102D40008083E0912703F09128031082E09129030A
:102D5000F0912A038FEC808310923303E0912F03CC
:102D6000F091300386E08083E0912D03F0912E03F3
:102D7000808180618083E0912D03F0912E0380811A
:102D800088608083E0912D03F0912E03808180681C
:102D90008083E0912D03F0912E0380818F7D8083CD
:102DA00060E089E10E94340B60E08AE10E94340B0C
:102DB00080E090E0A3E8B2E48093C6039093C70359
:102DC000A093C803B093C90368E08BE10E94340B61
:102DD00080E090E0A0E8B6E48093CA039093CB0330
:102DE000A093CC03B093CD0360E08CE10E94340B40
:102DF00061E08BE60E94340B0E94B60E80910204C3
:102E000090910304A0910404B091050480930A04F6
:102E100090930B04A0930C04B0930D0480910604CE
:102E200090910704A0910804B091090480930E04C6
:102E300090930F04A0931004B09311042FB7F8944B
:102E40008091A5029091A602A091A702B091A8023C
:102E50002FBF8093160490931704A0931804B09387
:102E6000190468EE73E080E090E00E94DE021092A8
:102E7000CE031092CF031092D0031092D103109280
:102E8000D2031092D3031092D4031092D503109260
:102E9000D6031092D7031092D8031092D903109240
:102EA000DA031092DB031092DC031092DD03109220
:102EB000DE031092DF031092E0031092E103109200
:102EC000E2031092E3031092E4031092E50304EF8F
:102ED00011E01EA21FA218A619A61AA21BA21CA2CC
:102EE0001DA21AA61BA61CA61DA6C12CD12C7601BC
:102EF00046015701260137010E940F0C2091EA0379
:102F00003091EB034091EC035091ED03C301B2010A
:102F10000E94251C2B013C012091EE033091EF0310
:102F20004091F0035091F103C501B4010E94251CAA
:102F30004B015C0120E030E040E85FE36091F20388
:102F40007091F3038091F4039091F5030E94241C87
:102F50009B01AC01C701B6010E94251C6B017C01DD
:102F60002091F6033091F7034091F8035091F90353
:102F70006AA57BA58CA59DA50E94251C6AA77BA799
:102F80008CA79DA72091FA033091FB034091FC038D
:102F90005091FD036AA17BA18CA19DA10E94251CDB
:102FA0006AA37BA38CA39DA32091FE033091FF0312
:102FB00040910004509101046EA17FA188A599A5BC
:102FC0000E94251C6EA37FA388A799A761E070E0EB
:102FD00080E090E00E94DE020150110909F08CCFE0
:102FE00020E030E04AEF53E4C301B2010E94031D28
:102FF0006093DA037093DB038093DC039093DD032B
:1030000020E030E04AEF53E4C501B4010E94031D03
:103010006093DE037093DF038093E0039093E103FA
:1030200020E030E04AEF53E4C701B6010E94031DDF
:103030006093E2037093E3038093E4039093E503CA
:1030400020E030E04AEF53E46AA57BA58CA59DA55E
:103050000E94031D6093CE037093CF038093D0032F
:103060009093D10320E030E04AEF53E46AA17BA1C2
:103070008CA19DA10E94031D6093D2037093D30382
:103080008093D4039093D50320E030E04AEF53E4DB
:103090006EA17FA188A599A50E94031D6093D60308
:1030A0007093D7038093D8039093D90360E0809105
:1030B000CE040E94880260E08091D0040E948802C1
:1030C00060E08091D2040E94880240E050E06AEF04
:1030D00074E48EE194E00E942F0E40E050E06AEF2D
:1030E00074E482E694E00E942F0E6091A80470912F
:1030F000A904072E000C880B990B0E94961AAB01AD
:10310000BC018EE194E00E9435086091A8047091A2
:10311000A904072E000C880B990B0E94961AAB018C
:10312000BC0182E694E00E94350888EB282E8BE0F3
:10313000382E04E010E00E94B60E80912104909198
:103140002204A0912304B0912404892B8A2B8B2B79
:1031500021F08EE194E00E948404809165049091B6
:103160006604A0916704B0916804892B8A2B8B2B8D
:1031700021F082E694E00E9484046091B80470918A
:10318000B9048091BA049091BB048617970709F49B
:1031900055C0072E000C880B990B0E94961AAB01A4
:1031A000BC018EE194E00E9435086091B8047091F2
:1031B000B904072E000C880B990B0E94961AAB01DC
:1031C000BC0182E694E00E943508C090B804D0901B
:1031D000B904D092BB04C092BA040D2C000CEE08C6
:1031E000FF08F7FE3CC06DE28BE193E00E94E6032E
:1031F00022273327A9012C193D094E095F0919A27D
:10320000CE0181967C01CA01B9012AE030E040E09C
:1032100050E00E94C71B605DF70162937F0121159A
:1032200031054105510579F7E114F10419F0C701A1
:103230000E94140E8AE492E00E94140E8091A6046B
:103240009091A7048230910509F4EAC004F5009733
:1032500099F1019709F4CBC00E9453046CCFA701E8
:10326000960119A2CE0181967C01CA01B9012AE01A
:1032700030E040E050E00E94C71B605DF7016293C0
:103280007F01211531054105510579F7CDCF8430F6
:10329000910509F42DC10CF41CC10597E9F68EE1E6
:1032A00094E00E94CD0482E694E00E94CD04109246
:1032B000A7041092A604D0CF3092B9042092B8048B
:1032C00040E050E86BE375E48EE194E00E949A07D9
:1032D00040E050E86BE375E482E694E00E949A07D0
:1032E0008BE193E00E94AE031816190614F40E94B5
:1032F000DB104090120450901304609014047090FE
:103300001504A301920160E070E0CB010E94241C2F
:103310006B017C0120E030E0A9010E94D21D18164B
:103320008CF520E030E040E85FE3C701B6010E9481
:10333000D21D18168CF1A70196016091AA04709114
:10334000AB048091AC049091AD040E94241C4B010D
:103350005C0120E030E0A9010E94D21D1816E4F5BE
:1033600020E030E040E05FE3C501B4010E94D21DDF
:10337000181694F020E030E0A90160E070E08AEFD8
:1033800094E425C020E030E040E85FEBC701B601DF
:103390000E948F1A87FFCFCFC092AA04D092AB04AD
:1033A000E092AC04F092AD0420E030E0A901C3014A
:1033B000B2010E948F1A20E030E04AEF54E487FD0A
:1033C00004C020E030E04AEF54ECCA01B9010E9489
:1033D0000F080E94751140CF20E030E040E05FEB25
:1033E000C501B4010E948F1A87FFC4CFD5CF1092B8
:1033F000B9041092B8048EE194E00E94CD0482E6F4
:1034000094E00E94CD040E9475118BE193E00E942C
:10341000AE03181619060CF01FCF0E94DB101CCF4C
:1034200088E00E9431029093CF048093CE0489E01B
:103430000E9431029093D1048093D0048AE00E94CC
:1034400031029093D3048093D20481309105B9F472
:103450008091D0049091D104892BB9F58091CE044C
:103460009091CF04892B89F520E030E84BE354E4B8
:1034700060E070E08AEF93E40E940F08D1CF892BBF
:1034800021F58091D0049091D104009779F4809136
:10349000CE049091CF040197C1F420E030E04AEFD0
:1034A00053E460E070E88BE394E4E6CF019769F4BD
:1034B0008091CE049091CF04892B39F420E030E044
:1034C0004AEF53E4CA01B901D7CF1093A704009380
:1034D000A6048CE291E09093B9048093B80420E0B4
:1034E00030E04AEF54E4CA01B9010E940F08B4CE9B
:1034F0008EE194E00E94CD0482E694E00E94CD0427
:10350000E3E0F0E0F093A704E093A604A5CE88ECF6
:1035100094E00E947E1082EC94E00C947E100E9455
:10352000D11A08F481E00895E89409C097FB3EF4AD
:1035300090958095709561957F4F8F4F9F4F992300
:10354000A9F0F92F96E9BB279395F695879577957E
:103550006795B795F111F8CFFAF4BB0F11F460FF3E
:103560001BC06F5F7F4F8F4F9F4F16C0882311F096
:1035700096E911C0772321F09EE8872F762F05C0AA
:10358000662371F096E8862F70E060E02AF09A9545
:10359000660F771F881FDAF7880F9695879597F93A
:1035A0000895990F0008550FAA0BE0E8FEEF1616D4
:1035B0001706E807F907C0F012161306E407F50727
:1035C00098F0621B730B840B950B39F40A2661F09B
:1035D000232B242B252B21F408950A2609F4A1403E
:1035E000A6958FEF811D811D08950E94081B0C94E4
:1035F000791B0E946B1B38F00E94721B20F09523F0
:1036000011F00C94621B0C94681B11240C94AD1BDC
:103610000E948A1B70F3959FC1F3950F50E0551FD0
:10362000629FF001729FBB27F00DB11D639FAA2717
:10363000F00DB11DAA1F649F6627B00DA11D661F66
:10364000829F2227B00DA11D621F739FB00DA11D87
:10365000621F839FA00D611D221F749F3327A00D41
:10366000611D231F849F600D211D822F762F6A2FDD
:1036700011249F5750409AF0F1F088234AF0EE0F42
:10368000FF1FBB1F661F771F881F91505040A9F76F
:103690009E3F510580F00C94621B0C94AD1B5F3F64
:1036A000E4F3983ED4F3869577956795B795F795AB
:1036B000E7959F5FC1F7FE2B880F911D9695879523
:1036C00097F9089597F99F6780E870E060E00895A2
:1036D0009FEF80EC089500240A941616170618062A
:1036E0000906089500240A94121613061406050606
:1036F0000895092E0394000C11F4882352F0BB0F97
:1037000040F4BF2B11F460FF04C06F5F7F4F8F4FF9
:103710009F4F089557FD9058440F551F59F05F3F34
:1037200071F04795880F97FB991F61F09F3F79F0E3
:1037300087950895121613061406551FF2CF469565
:10374000F1DF08C0161617061806991FF1CF8695E7
:103750007105610508940895E894BB2766277727CB
:10376000CB0197F9089597FB072E16F4009407D024
:1037700077FD09D00E94101C07FC05D03EF49095FF
:1037800081959F4F0895709561957F4F0895A1E2AF
:103790001A2EAA1BBB1BFD010DC0AA1FBB1FEE1FCB
:1037A000FF1FA217B307E407F50720F0A21BB30B16
:1037B000E40BF50B661F771F881F991F1A9469F792
:1037C00060957095809590959B01AC01BD01CF01EE
:1037D0000895052E97FB1EF400940E94001C57FDCF
:1037E00007D00E94C71B07FC03D04EF40C94001CAA
:1037F00050954095309521953F4F4F4F5F4F08951D
:1038000090958095709561957F4F8F4F9F4F08954C
:10381000EE0FFF1F881F8BBF0790F691E02D1994C4
:10382000AA1BBB1B51E107C0AA1FBB1FA617B707E6
:1038300010F0A61BB70B881F991F5A95A9F7809502
:103840009095BC01CD0108955058BB27AA270E942E
:103850003C1C0C94791B0E946B1B38F00E94721B5D
:1038600020F039F49F3F19F426F40C94681B0EF4F1
:10387000E095E7FB0C94621BE92F0E948A1B58F32A
:10388000BA17620773078407950720F079F4A6F545
:103890000C94AC1B0EF4E0950B2EBA2FA02D0B014F
:1038A000B90190010C01CA01A0011124FF27591B85
:1038B00099F0593F50F4503E68F11A16F040A22F8B
:1038C000232F342F4427585FF3CF469537952795FC
:1038D000A795F0405395C9F77EF41F16BA0B620BFB
:1038E000730B840BBAF09150A1F0FF0FBB1F661F42
:1038F000771F881FC2F70EC0BA0F621F731F841F85
:1039000048F4879577956795B795F7959E3F08F0AA
:10391000B0CF9395880F08F09927EE0F979587956C
:1039200008950E946B1B60F080E891E009F49EEF1F
:103930000E94721B28F040E851E071F45EEF0CC069
:103940000C94681B0C94AC1BE92FE0780E948A1B36
:1039500040F3092E052AB1F3261737074807590700
:1039600038F00E2E07F8E02569F0E025E0640AC083
:10397000EF6307F8009407FADB01B9019D01DC0150
:10398000CA01AD01EF930E941A1D0E94791B0E948B
:10399000D41C5F91552339F02BED3FE049E450FDF5
:1039A00049EC0C94251C0895DF93DD27B92FBF77D0
:1039B00040E85FE31616170648075B0718F4D92F8F
:1039C0000E94D71D9F938F937F936F930E94251E14
:1039D000E4EEF0E00E94AB1D0E94791B2F913F9115
:1039E0004F915F910E94081BDD2351F09058A2EA8D
:1039F0002AED3FE049EC5FE3D0785D270E943C1C54
:103A0000DF910C94791B0E94171D0C94791B0E9466
:103A1000721B58F00E946B1B40F029F45F3F29F0A5
:103A20000C94621B51110C94AD1B0C94681B0E94EA
:103A30008A1B68F39923B1F3552391F3951B550B1A
:103A4000BB27AA2762177307840738F09F5F5F4F71
:103A5000220F331F441FAA1FA9F335D00E2E3AF0B0
:103A6000E0E832D091505040E695001CCAF72BD0C8
:103A7000FE2F29D0660F771F881FBB1F2617370719
:103A80004807AB07B0E809F0BB0B802DBF01FF274B
:103A900093585F4F3AF09E3F510578F00C94621BAB
:103AA0000C94AD1B5F3FE4F3983ED4F38695779575
:103AB0006795B795F7959F5FC9F7880F911D969504
:103AC000879597F90895E1E0660F771F881FBB1F60
:103AD000621773078407BA0720F0621B730B840B0D
:103AE000BA0BEE1F88F7E09508950E947C1D68943C
:103AF000B1110C94AD1B08950E94921B88F09F5742
:103B000098F0B92F9927B751B0F0E1F0660F771F01
:103B1000881F991F1AF0BA95C9F714C0B13091F0F7
:103B20000E94AC1BB1E008950C94AC1B672F782F5A
:103B30008827B85F39F0B93FCCF3869577956795BC
:103B4000B395D9F73EF490958095709561957F4F28
:103B50008F4F9F4F0895DF93CF931F930F93FF9243
:103B6000EF92DF927B018C01689406C0DA2EEF01A0
:103B70000E94081BFE01E894A5912591359145917D
:103B80005591A6F3EF010E943C1CFE019701A8018C
:103B9000DA9469F7DF90EF90FF900F911F91CF912A
:103BA000DF9108950E94D11A08F48FEF08959B01C8
:103BB000AC0160E070E080E89FE30C94031D19F411
:103BC00016F40C94681B0C94291E0E94921BB8F3E7
:103BD0009923C9F3B6F39F57550B87FF0E94371EF1
:103BE0000024A0E640EA900180585695979528F465
:103BF000805C660F771F881F20F02617370748075D
:103C000030F4621B730B840B202931294A2BA695B3
:103C100017940794202531254A2758F7660F771FF8
:103C2000881F20F026173707480730F4620B730B04
:103C3000840B200D311D411DA09581F7B901842F02
:103C40009158880F9695879508959B01AC010C9427
:103C5000F51A9F3F31F0915020F48795779567953D
:103C6000B795880F911D9695879597F9089591506E
:103C70005040660F771F881FD2F708950F931F9348
:103C8000CF93DF938230910510F482E090E0E091D1
:103C9000D604F091D70430E020E0B0E0A0E0309707
:103CA00099F42115310509F44AC0281B390B243039
:103CB0003105D8F58A819B816115710589F1FB0178
:103CC00093838283FE0111C040815181028113815F
:103CD00048175907E0F04817590799F4109761F011
:103CE00012960C93129713961C933296CF01DF9184
:103CF000CF911F910F9108950093D6041093D7048C
:103D0000F4CF2115310551F04217530738F0A901BE
:103D1000DB019A01BD01DF01F801C1CFEF01F9CF4D
:103D20009093D7048093D604CDCFFE01E20FF31F0A
:103D3000819391932250310939832883D7CF2091E1
:103D4000D4043091D504232B41F420910202309108
:103D500003023093D5042093D404209100023091C3
:103D600001022115310541F42DB73EB740910402FF
:103D700050910502241B350BE091D404F091D50439
:103D8000E217F307A0F42E1B3F0B2817390778F032
:103D9000AC014E5F5F4F2417350748F04E0F5F1F91
:103DA0005093D5044093D404819391939FCFF0E036
:103DB000E0E09CCFCF93DF930097E9F0FC013297CE
:103DC00013821282A091D604B091D704ED0130E0A5
:103DD00020E01097A1F420813181820F931F209160
:103DE000D4043091D5042817390709F061C0F09345
:103DF000D504E093D404DF91CF910895EA01CE1762
:103E0000DF07E8F54A815B819E0141155105B1F755
:103E1000E901FB83EA8349915991C40FD51FEC173F
:103E2000FD0761F4808191810296840F951FE9015D
:103E300099838883828193819B838A83F0E0E0E089
:103E400012968D919C9113970097B9F52D913C9105
:103E50001197CD010296820F931F2091D4043091C7
:103E6000D5042817390739F6309751F51092D70441
:103E70001092D604B093D504A093D404BCCFD383BE
:103E8000C28340815181840F951FC817D90761F4FF
:103E90004E5F5F4F88819981480F591F518340833E
:103EA0008A819B81938382832115310509F0B0CFEC
:103EB000F093D704E093D6049ECFFD01DC01C0CF80
:103EC00013821282D7CF4F925F926F927F928F921E
:103ED0009F92AF92BF92CF92DF92EF92FF920F9399
:103EE0001F93CF93DF938C01009799F4CB01DF915F
:103EF000CF911F910F91FF90EF90DF90CF90BF90E7
:103F0000AF909F908F907F906F905F904F900C94A8
:103F10003E1EFC01E60FF71F9C0122503109E217FB
:103F2000F30708F4AEC0D901CD91DC911197C61703
:103F3000D70720F1C530D10578F0CE010497861758
:103F4000970750F0C61BD70B2297C193D1936D935F
:103F50007C93CF010E94DA1EC801DF91CF911F919F
:103F60000F91FF90EF90DF90CF90BF90AF909F9018
:103F70008F907F906F905F904F9008955B01AC1A87
:103F8000BD0A4C018C0E9D1EA091D604B091D704A1
:103F9000512C412CF12CE12C109731F58091D40457
:103FA0009091D5048815990509F05CC0461657060E
:103FB00008F058C08091000290910102009741F4EE
:103FC0008DB79EB74091040250910502841B950B5A
:103FD000E817F90708F055C0F093D504E093D4042E
:103FE000F90171836083B8CF8D919C9111971296DE
:103FF0006C90129713967C901397A815B90559F5F4
:104000006C0142E0C40ED11CCA14DB0420F1AC01E7
:104010004A195B09DA011296159780F06282738261
:1040200051834083D9016D937C93E114F10471F0C5
:10403000D7011396FC93EE9312978ECF22968C0F96
:104040009D1FF90191838083F301EFCFF093D70493
:10405000E093D60481CF4816590608F42C017D015F
:10406000D3019ACFCB010E943E1E7C01009749F0FC
:10407000AE01B8010E944420C8010E94DA1E8701E7
:104080006BCF10E000E068CFFB01DC0102C00190C3
:104090000D9241505040D8F70895FB01DC018D91FD
:1040A000019080190110D9F3990B0895FB01DC01EF
:1040B00001900D920020E1F7089511E0C6E9D1E0EA
:1040C00000E006C0802FFE010E94081C2196011D01
:0E40D000C739D10780E00807A9F7F894FFCFA1
:1040DE000000D804800000000000E60310033D033A
:1040EE003304AE034C03A00300000000DD0BB00B45
:1040FE000C0C860BA90B960B870B00000000AD0570
:10410E007905040A8610AB0812075007FC06CA068A
:10411E00A90675065406FE05CB050D0A00310030C2
:0C412E00004E00570053004500500000F8
:00000001FF
