:100000000C94AF010C94E0010C94E0010C94E0011D
:100010000C94E0010C94E0010C94E0010C94E001DC
:100020000C94E0010C94E0010C94E0010C94E001CC
:100030000C94E0010C94E0010C94E0010C94E001BC
:100040000C94E0010C94E0010C94E0010C94E001AC
:100050000C94E0010C94E0010C94E0010C949D1CC4
:100060000C94E0010C94B91D0C948F1D0C94E001CC
:100070000C94E0010C94E0010C94E0010C94E0017C
:100080000C94E0010C94E0010C94E0010C94E0016C
:100090000C94E0010C94E0010C94E0010C94E31D3D
:1000A0000C94E0010C94E0010C94E0010C94E0014C
:1000B0000C94E0010C94E0010C94E0010C94E0013C
:1000C0000C94E0010C94E0010C94E0010C94651D8B
:1000D0000C943B1D0C94E0010C94111D0C94E71C36
:1000E0000C94E001084AD73B3BCE016E84BCBFFDB7
:1000F000C12F3D6C74319ABD56833DDA3D00C77FF8
:1001000011BED9E4BB4C3E916BAAAABE0000008090
:100110003F000C944C060C94430B0C948C020C94F2
:1001200088020C9492090C94071F0C94BB0A0C943F
:100130005E020C949B330C94BD090C94700A0C94D1
:10014000AB020C943D1B0C949D0D0C9440090C9437
:1001500049080C94E9180C94B9100C94510B0C94A8
:1001600056100C94C3090C94A3020C94440C0C94E8
:10017000E7180C944A0B0C94910A0C94C5090C9442
:10018000D10A0C9439070C94C1090C94B9020C944F
:100190001B0A0C9433100C94260B0C94C71B0C9464
:1001A000BE020C945F020C9409310C94A7020C94CB
:1001B0008A100C94580B0C94B5020C947E020C948B
:1001C000161C0C94B9090C9493020C9492060C948E
:1001D0003C0A0C949D020C9474090C94BF090C9475
:1001E00034100C94BB090C94C3020C94EB180C94BF
:1001F0000F0B0C942E0B0C9499020C943C0B0C944A
:10020000B1020C94DF060C9490020C9443100C94F1
:10021000350B0C94821B0C9486070C94B7090C9434
:10022000ED180C944A080C94BF020C94A1060C948F
:10023000ED060C9484020C945D1000002100240053
:1002400027002A002D0030003300010100000401C6
:1002500007010A0100002200250028002B002E00C3
:100260003100340002010000050108010B0100000B
:1002700020002300260029002C002F00320000015E
:100280000000030106010901050505050705080829
:100290000808020202020A0A080804040404010110
:1002A0000101010101010303030303030303040725
:1002B00007070C0C0C0C0C0C0C0C020202020606BC
:1002C0000606060606060B0B0B0B0B0B0B0B0102AF
:1002D0001020200808102040102040800201020158
:1002E0000804020101020408102040808040201010
:1002F0000804020180040201804020100804020169
:1003000008040201010204081020408001020408D0
:100310001020408000000A0B02090C0D0E08070394
:1003200004010000000000000000000000000000C8
:1003300000000000000000000000000000000000BD
:10034000121110000000000000000000000000007A
:1003500000000000000000000000071F0931112408
:100360001FBECFEFD1E2DEBFCDBF00E00CBF27E064
:10037000AEE9B2E001C01D92AD3EB207E1F712E076
:10038000A0E0B2E0E4EFF2E700E00BBF02C00790AC
:100390000D92AE39B107D9F711E0CEEAD1E000E015
:1003A00006C021970109802FFE010E941E33CD3A1D
:1003B000D10780E00807A9F70E9432220C9468391F
:1003C0000C940000CF93DF93EC019A01AB01E88914
:1003D000F98982E08083211581EE380741055105B6
:1003E00081F160E079E08DE390E00E94DD32215000
:1003F0003109410951095695479537952795EC855F
:10040000FD851082EE85FF852083188EEC89FD899D
:1004100086E08083EA89FB89808180618083EA8924
:10042000FB89808188608083EA89FB89808180687C
:100430008083EA89FB8980818F7D8083DF91CF91E2
:100440000895E889F989108220E1D9CFFC019081D3
:10045000909528E081E397FF03C0990F982701C08A
:10046000990F2150C1F78181892798E021E387FF07
:1004700003C0880F822701C0880F9150C1F70895EB
:10048000FC019081909528E030E081E397FF03C064
:10049000990F982701C0990F21503109B9F781812F
:1004A000892728E030E091E387FF03C0880F892780
:1004B00001C0880F21503109B9F7089508950895B2
:1004C0008150823108F05AC0E82FF0E08827E459C3
:1004D000FD4F8F4F0C941E338C0290027E028402DB
:1004E0008802BE02930299029D02A302A702AB02F8
:1004F000B102B502BE02B902BF02C3028091800000
:100500008F77809380000895809180008F7DF9CF50
:1005100080918000877FF5CF84B58F7784BD089563
:1005200084B58F7DFBCF8091B0008F778093B00032
:1005300008958091B0008F7DF9CF809190008F77E2
:10054000809390000895809190008F7DF9CF8091E5
:100550009000877FF5CF8091A0008F778093A000D7
:1005600008958091A0008F7DF9CF8091A000877FB2
:10057000F5CF809120018F7780932001089580919D
:1005800020018F7DF9CF80912001877FF5CFCF9318
:10059000DF93282F30E0F901EC5EFC4F8491F901E4
:1005A000E253FD4FD491F901E857FD4FC491CC239C
:1005B000A1F081110E946002EC2FF0E0EE0FFF1F0E
:1005C000E259FD4FA591B491EC91ED2381E090E0CB
:1005D00009F480E0DF91CF91089580E090E0FACFB8
:1005E0001F93CF93DF93282F30E0F901EC5EFC4F8F
:1005F0008491F901E253FD4FD491F901E857FD4F81
:10060000C491CC23A9F0162F81110E946002EC2F17
:10061000F0E0EE0FFF1FEC5AFD4FA591B4918FB79C
:10062000F894EC91111108C0D095DE23DC938FBFB4
:10063000DF91CF911F910895DE2BF8CFFC018081CF
:100640009181892B39F0A281B3819C9111968C9173
:100650009CBD8DBD83858F3F19F060E00C94F00246
:100660000895FC0183858F3F19F061E00C94F0023E
:100670000895CF93DF9390E0FC01E253FD4F249166
:1006800088579D4FFC0184918823D1F090E0880F1A
:10069000991FFC01E65CFD4FA591B491FC01EC5A59
:1006A000FD4FC591D49161110EC09FB7F8948C9104
:1006B000E22FE0958E238C932881E223E8839FBF6D
:1006C000DF91CF9108958FB7F894EC91E22BEC93E2
:1006D0008FBFF6CF8230910538F0880F991F880FB1
:1006E000991F05970197F1F70895AF92BF92CF92A6
:1006F000DF92EF92FF920F931F93CF93DF93EC0162
:1007000088819981892B89F06EBD0DB407FEFDCFDC
:10071000BEB48B2DDF91CF911F910F91FF90EF9081
:10072000DF90CF90BF90AF9008958885998511E0B4
:10073000892B09F010E8AA24A394862F812309F0BD
:10074000A12C062F2C813D814E815F8160E271EAF0
:1007500087E090E00E94DD32F22EB02EE12CC22E16
:10076000D12CFF2019F0C6010E946A038A85877F79
:1007700009F042C08D858F3F89F0902F912381E051
:1007800009F480E08A1551F0EF85F8898F89992363
:1007900069F19081892B8083AA24A394E989FA893D
:1007A0008081998D892B8083FF2019F0C6010E94DA
:1007B0006A038E858F3F39F0EB89FC898081988DA3
:1007C000892309F0E12AE989FA899081898D809548
:1007D000892380838E858F3F09F0BE2C888599857B
:1007E000892BB9F5110F1111BCCF93CF9081809552
:1007F00089238083A12CD2CFE989FA898081998DC0
:10080000892B8083FF2019F0C6010E946A038D8521
:100810008F3F49F0EF85F8898F89902F9123A9F0B8
:100820009081892B8083E989FA899081898D8095CF
:10083000892380838E858F3F69F2EB89FC898081D3
:10084000988D892339F2E12AC5CF9081809589233B
:10085000E9CF1695C8CFCF92DF92EF92FF920F9318
:100860001F93CF93DF938C01EB016A0179010E9402
:100870001E036881C8010E947503E601EC0CFD1C93
:100880006FEFC8010E9475038993CE15DF05C1F78C
:10089000C8010E94310381E0DF91CF911F910F9138
:1008A000FF90EF90DF90CF9008953FB7F89480913C
:1008B000E9029091EA02A091EB02B091EC0226B518
:1008C000A89B05C02F3F19F00196A11DB11D3FBF88
:1008D000BA2FA92F982F8827BC01CD01620F711D57
:1008E000811D911D42E0660F771F881F991F4A9551
:1008F000D1F708958F929F92AF92BF92CF92DF92DD
:10090000EF92FF924B015C010E9455046B017C0148
:100910000E9455046C197D098E099F09683E734039
:1009200081059105A8F321E0821A9108A108B10878
:1009300088EEC80E83E0D81EE11CF11C81149104DE
:10094000A104B10429F7FF90EF90DF90CF90BF9002
:10095000AF909F908F9008952FB7F8946091E50223
:100960007091E6028091E7029091E8022FBF08950E
:100970000E94AC0484E98093BC008091BC0084FD9B
:10098000FCCF80E00895CF93C82F0E94AC0484EC84
:10099000C11101C084E88093BC008091BC0087FF36
:1009A000FCCF8091B900887F883351F48091B900E1
:1009B000887F1092BC0094E49093BC00CF9108957E
:1009C0008091B900887FFACFCF938093BB000E94BB
:1009D000AC0484E88093BC008091BC0087FFFCCF0E
:1009E0008091B900887F8831E9F08091B900887FD3
:1009F0008034C1F0C091B900C87F8091B900887F70
:100A0000803269F08091B900887F883441F010927B
:100A1000BC0084E48093BC008C2FCF9108950E9489
:100A2000B804FACFC0E0F8CF0E94AC0484EA809307
:100A3000BC008091BC0087FFFCCF8091B900887F0B
:100A40008830B9F08091B900887F803191F0809131
:100A5000B900887F883349F48091B900887F10926B
:100A6000BC0094E49093BC0008958091B900887F05
:100A7000089580E008956F927F928F929F92AF9237
:100A8000BF92CF92DF92EF92FF920F931F93CF937B
:100A9000DF93CDB7DEB7C054D1090FB6F894DEBFEF
:100AA0000FBECDBF3C015B01AA0CBB1CA60EB71E3E
:100AB0000A2D8FEF8A0D8093F2021092F1020E94AC
:100AC00014058093F10281111BC083ED0E94E404A0
:100AD0008093F102882321F0813091F485E010C0E9
:100AE000CE0101967C0110E08091F20281135BC07F
:100AF00080E00E94C3048093F1028130E9F586E032
:100B0000082F880F110B01151105F9F4CE0101967C
:100B10004C0163017C01C7010E942602F70192810A
:100B200098134CC08081F6018083F7018181F60122
:100B30008183F3E0EF0EF11C82E0C80ED11CC701E7
:100B4000881999098A159B0530F3C801C05CDF4FED
:100B50000FB6F894DEBF0FBECDBFDF91CF911F91CE
:100B60000F91FF90EF90DF90CF90BF90AF909F904C
:100B70008F907F906F900895883511F68091BB001B
:100B8000F70181937F011F5F101708F4ADCF0E941A
:100B9000B8048093F102882309F4B2CF813009F0C0
:100BA000AFCF87E0ADCF81E00E94C3048093F10214
:100BB000813009F4A4CF803509F3A2CF0FEF1FEFE6
:100BC000C4CFCF938093BB000E94AC0484E8809391
:100BD000BC008091BC0087FFFCCF8091B900887F6A
:100BE000C0E0883251F0C091B900C87F8091B9004F
:100BF000887F803329F40E94B8048C2FCF91089508
:100C00001092BC0084E48093BC00F7CFFF920F9356
:100C10001F93CF93DF93C82FF62E172F042F109218
:100C2000F1020E9414058093F102811124C082ED2B
:100C30000E94E4048093F102882321F08130D9F4EA
:100C400082E019C08C2F0E94E1058093F10281118E
:100C50000FC0CF2DD12F0C0F1D2F111DC017D10785
:100C600081F089910E94E1058093F1028823B1F31C
:100C7000813009F483E0DF91CF911F910F91FF90B4
:100C800008950E94B8048093F1028823A1F3813073
:100C900091F787E0F0CF0895AF92BF92CF92DF92A5
:100CA000EF92FF920F931F93CF93DF936C017B0121
:100CB0008B01040F151FEB015E01AE18BF08C017B2
:100CC000D10759F06991D601ED91FC910190F08125
:100CD000E02DC6011995892B79F7C501DF91CF91D8
:100CE0001F910F91FF90EF90DF90CF90BF90AF904A
:100CF0000895FC01A089B1898C91A689B78982FDEC
:100D00000FC09C91818D8F5F8F73228D821749F068
:100D1000A18DAE0FBF2FB11D5D969C93818F08955D
:100D20008C910895FC01538D448D252F30E0842F44
:100D300090E0821B930B541710F0CF960895019703
:100D40000895FC01918D828D981761F0A28DAE0FF0
:100D5000BF2FB11D5D968C91928D9F5F9F73928F77
:100D600090E008958FEF9FEF08950F931F93CF9317
:100D7000DF93EC010E94AC04688779878A879B87A0
:100D8000CE010E94A10697FF15C00E94AC04088501
:100D900019852A853B85601B710B820B930B0C8197
:100DA0001D812E813F81601771078207930740F3F1
:100DB0008FEF9FEFDF91CF911F910F910895FC016D
:100DC000918D828D981731F0828DE80FF11D858D00
:100DD00090E008958FEF9FEF0895FC01918D228D93
:100DE000892F90E0805C9F4F821B91098F73992718
:100DF000089585E893E00E94ED0621E0892B09F42F
:100E000020E0822F089582E294E00E94ED0621E026
:100E1000892B09F420E0822F08958FEB94E00E9443
:100E2000ED0621E0892B09F420E0822F0895FC01D2
:100E3000A48DA80FB92FB11DA35ABF4F2C91848D3B
:100E400090E001968F739927848FA689B7892C9398
:100E5000A089B1898C91837080648C93938D848DEB
:100E6000981306C00288F389E02D80818F7D8083EE
:100E70000895EF92FF920F931F93CF93DF93EC01AE
:100E800081E0888F9B8D8C8D98131AC0E889F98931
:100E9000808185FF15C09FB7F894EE89FF89608334
:100EA000E889F98980818370806480839FBF81E0B5
:100EB00090E0DF91CF911F910F91FF90EF900895F7
:100EC000F62E0B8D10E00F5F1F4F0F731127E02ED2
:100ED0008C8D8E110CC00FB607FCFACFE889F9890A
:100EE000808185FFF5CFCE010E941707F1CFEB8DF2
:100EF000EC0FFD2FF11DE35AFF4FF0829FB7F894DE
:100F00000B8FEA89FB8980818062CFCFCF93DF93FB
:100F1000EC01888D8823B9F0AA89BB89E889F98911
:100F20008C9185FD03C0808186FD0DC00FB607FC46
:100F3000F7CF8C9185FFF2CF808185FFEDCFCE0179
:100F40000E941707E9CFDF91CF91089580E090E0EC
:100F5000892B29F00E940D0781110E94000080E07A
:100F600090E0892B49F080E090E0892B29F00E94E5
:100F7000000081110E94000080E090E0892B29F0A0
:100F80000E94030781110E94000080E090E0892BFD
:100F900029F00E94F90681110C9400000895EF9247
:100FA000FF920F931F93CF93DF93EC01022F78836F
:100FB00069837A01229610E0101789F0F701818188
:100FC000F2E0EF0EF11C8883F7013297808189836C
:100FD000CE010E9426028A831F5F2396EDCF23E075
:100FE000129FC00111240296DF91CF911F910F91A2
:100FF000FF90EF900895CF93DF931F921F92CDB78C
:10100000DEB720E050E040E0BC01CE0101960E9436
:10101000CF0741E0BE016E5F7F4F89810E940606C7
:10102000082E000C990B0F900F90DF91CF9108952F
:10103000CF93DF93CDB7DEB7A0970FB6F894DEBF9E
:101040000FBECDBF242FAB01BC01CE0101960E9483
:10105000CF078823A1F04FEF480FBE016E5F7F4F8F
:1010600089810E940606082E000C990BA0960FB6E7
:10107000F894DEBF0FBECDBFDF91CF91089580E021
:10108000F2CFFC0160817181828193810E942633BD
:10109000089508950895CF92DF92EF92FF92CF9333
:1010A000DF93EC010E9455046B017C0188A599A592
:1010B000AAA5BBA5B701A601481B590B6A0B7B0B60
:1010C0008B819C81AD81BE81481759076A077B07D8
:1010D00048F188899989AA89BB892A812223F1F05C
:1010E0000196A11DB11D888B998BAA8BBB8B48895A
:1010F00059896A897B89E881F9810484F585E02D25
:10110000CE011995C8A6D9A6EAA6FBA681E0DF9173
:10111000CF91FF90EF90DF90CF9008950197A109B4
:10112000B109E1CF80E0F3CF4F925F926F927F924F
:101130008F929F92AF92BF92CF92DF92EF92FF92E7
:10114000CF93DF9300D000D0CDB7DEB79E838D83E1
:10115000DC0158968D909D90AD90BC905B9720E0FF
:1011600030E0A901C501B4010E947B31882309F454
:1011700072C0A5019401C501B4010E94E1316B0167
:101180007C01ED81FE8160A171A182A193A19B01EF
:10119000AC010E94CD349B01AC01C701B6010E9495
:1011A000AB350E941D366B017C01AD81BE8150962E
:1011B0004D905D906D907C90539754968D919D913C
:1011C0000D90BC91A02D89839A83AB83BC8320E0D2
:1011D00030E0A901C501B4010E94CE361816B4F55D
:1011E000BFEFCB1ADB0AEB0AFB0A4C0C5D1C6E1C32
:1011F0007F1C89819A81AB81BC8184159505A605E8
:10120000B70549F1AD81BE8154964D925D926D92C4
:101210007C925797ED91FC9111970084F185E02D18
:10122000CD0126960FB6F894DEBF0FBECDBFDF917D
:10123000CF91FF90EF90DF90CF90BF90AF909F90B5
:101240008F907F906F905F904F901994C094D0943E
:10125000E094F094CACF26960FB6F894DEBF0FBE86
:10126000CDBFDF91CF91FF90EF90DF90CF90BF90F7
:10127000AF909F908F907F906F905F904F90089568
:10128000CF93DF93FC012781222359F1EC0161E028
:1012900080850E94390361E089850E9439038F812E
:1012A000843011F08830B1F461E08A850E943903FE
:1012B00061E08B850E9439038FA58F3F91F061E03B
:1012C0000E9439036EA581E068278FA5DF91CF9139
:1012D0000C94F002833011F0863071F761E08A855A
:1012E000E9CFDF91CF910895CF93DF93FC01278160
:1012F0002223A9F0EC010190F081E02D0284F38516
:10130000E02D60E019958FA58F3F49F061E00E94C4
:1013100039036EA58FA5DF91CF910C94F002DF9178
:10132000CF910895DC01ED91FC91119722853385D1
:101330004770552766277727415051096109710980
:10134000473051056105710570F4FA018827E455AD
:10135000F64F8F4F0C941E33B709B909BB09BD096D
:10136000BF09C109C30961E0CD01F901199465E024
:10137000FBCF64E0F9CF66E0F7CF62E0F5CF6AE03B
:10138000F3CF68E0F1CF69E0EFCFCF93DF93EC01CB
:10139000CB01BA0126E030E040E050E00E94FF328D
:1013A000623071058105910589F16CF46115710553
:1013B00081059105D1F06130710581059105F9F044
:1013C000DF91CF910895643071058105910561F138
:1013D00024F1653071058105910591F7E881F98166
:1013E0000284F385E02D66E006C0E881F98102847D
:1013F000F385E02D64E0CE01DF91CF911994E8816F
:10140000F9810284F385E02D65E0F5CFE881F9816B
:101410000284F385E02D61E0EECFE881F98102845A
:10142000F385E02D63E0E7CFE881F9810284F3855D
:10143000E02D62E0E0CFDC01ED91FC910284F385C8
:10144000E02D437055276627772742305105610507
:10145000710571F0433051056105710559F0413056
:1014600051056105710511F065E0199466E0FDCF45
:101470006AE0FBCF69E0F9CFCF93DF93EC01CB01BA
:10148000BA0123E030E040E050E00E94FF326130DA
:1014900071058105910599F062307105810591050D
:1014A000A9F0672B682B692BC1F4E881F9810284CC
:1014B000F385E02D64E0CE01DF91CF911994E881AE
:1014C000F9810284F385E02D61E0F5CFE881F981AF
:1014D0000284F385E02D62E0EECFDF91CF91089595
:1014E000DC01ED91FC910284F385E02D43705527DA
:1014F00066277727423051056105710571F0433049
:1015000051056105710559F04130510561057105BD
:1015100011F062E0199463E0FDCF61E0FBCF60E081
:10152000F9CFCF93DF93EC01E881F9810284F38551
:10153000E02D8A8160E0811162E0CE011995E88199
:10154000F9810284F385E02D8A8161E0811163E0F5
:10155000CE0119958CA59DA50E946A03E881F981A9
:101560000284F385E02D8A8160E0811162E0CE0182
:10157000DF91CF911994CF93DF93EC0120E030E01D
:10158000A901688D798D8A8D9B8D0E94CE361816A3
:101590002CF4E8A9F9A9DF91CF911994EAA9FBA944
:1015A000FACFCF92DF92EF92FF920F931F93CF93D8
:1015B000DF93DC011796CC91C43039F0C83059F173
:1015C000C33019F0C63049F1C2E08C01085F1F4FEB
:1015D000F12CE12CC62ED12CD1E0F8016481C6019A
:1015E0000E2C02C0959587950A94E2F780FD6D2731
:1015F0000F5F1F4F80810E94F002BFEFEB1AFB0AC2
:10160000EC1658F3DF91CF911F910F91FF90EF905F
:10161000DF90CF900895C4E0D8CFC3E0D6CFDC01EF
:101620001796EC911797E93008F042C0F0E0882750
:10163000E35EF44F8F4F0C941E33260B2E0B350BAD
:101640003C0B430B580B4A0B580B510BED91FC9183
:1016500011970684F785E02DCD011994ED91FC9149
:1016600011970088F189E02DF7CFED91FC9111974A
:101670000288F389E02DF0CFED91FC911197048859
:10168000F589E02DE9CFED91FC9111970688F78956
:10169000E02DE2CFED91FC911197008CF18DE02DC2
:1016A000DBCFED91FC911197028CF38DE02DD4CF1F
:1016B00008954F925F926F927F92AF92BF92CF92B6
:1016C000DF92EF92FF920F931F93CF93DF93EC0182
:1016D0005A018B019A01AB01688D798D8A8D9B8DA2
:1016E0000E947B31882379F14C8C5D8C6E8C7F8CD1
:1016F00073016201F7FAF094F7F8F094A7019601EC
:10170000B501C8010E947B3187FD0CC0A301920185
:10171000B501C8010E94CE3673016201181614F09B
:101720006501780120E030E0A901C701B6010E94FF
:101730007B31811117C01B821C821D821E82C88EC4
:10174000D98EEA8EFB8EDF91CF911F910F91FF9082
:10175000EF90DF90CF90BF90AF907F906F905F90B1
:101760004F900895A701960160E074E284E799E440
:101770000E94AB359F770E9424366B837C838D83D8
:101780009E8311E020E030E0A901C701B6010E946C
:10179000CE3618160CF010E01A83D1CFCF92DF921C
:1017A000EF92FF920F931F93CF93DF93EC016A01A7
:1017B0007B0120E030E0A901CB01B6010E947B3122
:1017C00087FF04C0F7FAF094F7F8F094A7019601A8
:1017D0006C8D7D8D8E8D9F8D0E947B31882309F4C9
:1017E0004AC0CC8EDD8EEE8EFF8E8E01005C1F4FC8
:1017F000A701960160E074E284E799E40E94AB35AA
:10180000F80160837183828393838CA99DA9AEA91B
:10181000BFA9181619061A061B066CF5688D798D76
:101820008A8D9B8D9B01AC010E94E1316B017C0193
:1018300068A179A18AA19BA19B01AC010E94CD3432
:101840009B01AC01C701B6010E94AB350E941D3659
:101850006CAB7DAB8EAB9FABE881F9810084F185E9
:10186000E02DCE01DF91CF911F910F91FF90EF906E
:10187000DF90CF901994DF91CF911F910F91FF903E
:10188000EF90DF90CF9008954F925F926F927F928A
:101890008F929F92AF92BF92CF92DF92EF92FF9280
:1018A0000F931F93CF93DF93EC01CC88DD88EE88F4
:1018B000FF8888899989AA89BB89C81AD90AEA0A3E
:1018C000FB0A688D798D8A8D9B8D9B01AC010E94EE
:1018D000E1314B015C0168A179A18AA19BA19B0127
:1018E000AC010E94CD349B01AC01C501B4010E9442
:1018F000AB350E941D36C114D104E104F10409F096
:10190000B6C062307105810591050CF0D0C01B8214
:101910001C821D821E82188E198E1A8E1B8E1CAA86
:101920001DAA1EAA1FAAC12CD12C7601C701B6017F
:10193000DF91CF911F910F91FF90EF90DF90CF90AB
:10194000BF90AF909F908F907F906F905F904F90DF
:1019500008951016110612061306B4F46C157D05D1
:101960008E059F051CF42A812111A1C09B01AC01A9
:1019700088279927DC01821B930BA40BB50B8CAB3A
:101980009DABAEABBFAB93C0011511052105310571
:1019900009F48DC06C157D058E059F050CF087C080
:1019A0008A81882309F483C030952095109501958C
:1019B0001F4F2F4F3F4F0CAB1DAB2EAB3FAB77C034
:1019C000011511052105310509F471C088249924F8
:1019D00054018C189D08AE08BF08681579058A0562
:1019E0009B050CF064C08A81811161C0DDCFCCAC55
:1019F000DDACEEACFFACA7019601C701B6010E94B9
:101A0000CD342B013C01C501B4010E94823120E09C
:101A100030E040E850E40E94E13120E030E040E86E
:101A20005FE30E94CD349B01AC01C301B2010E946F
:101A3000AB359B01AC01C701B6010E94CC343B0120
:101A40006C01FE01E05CFF4FE080F18002811381B8
:101A50009701A8010E94CE36181614F4730186016E
:101A6000C701D8018CAF9DAFAEAFBFAF3AC00CA9D4
:101A70001DA92EA93FA91C141D041E041F040CF44B
:101A800068CF10161106120613060CF099CF002726
:101A9000112798010C191D092E093F0960177107BC
:101AA000820793070CF062CF2A8121115FCF8CA8A7
:101AB0009DA8AEA8BFA881149104A104B10409F0A7
:101AC00096CF88AD99ADAAADBBAD8CAF9DAFAEAF93
:101AD000BFAF81E01C141D041E041F040CF080E045
:101AE0008A833FEF831A930AA30AB30A8CAA9DAA9A
:101AF000AEAABFAA8CAC9DACAEACBFACC501B40164
:101B00000E9424366B017C01CB82DC82ED82FE8256
:101B1000A501940160E074E284E799E40E94AB358A
:101B2000688F798F8A8F9B8F2A812111FFCE9058E1
:101B3000688F798F8A8F9B8FF9CE08952091BF028D
:101B4000260F3327331F21323105ECF420917F0318
:101B5000FC0190E080E0243069F082E00895A091DB
:101B6000BF022191AC0141565D4FA40FB52FB11DAD
:101B70002C930196861798F38091BF02680F6093AB
:101B8000BF0280E0089581E0089510927F0381E014
:101B900080935E031092590361E084E10E94F00299
:101BA00061E085E10E94F002E9EBF0E080818E7F48
:101BB000808380818D7F808388E48093B80085E472
:101BC0008093BC0008951092140310921303109296
:101BD0001603109238030E94C50D8EE592E0909393
:101BE000F0028093EF028FE592E09093EE028093F3
:101BF000ED020895CF93DF9391E090939E028823A6
:101C0000B9F0C091B800D091BA008091BC008A7B35
:101C10008093BC0060E084E10E94F00260E085E116
:101C20000E94F0020E94C50DD093BA00C093B80084
:101C3000DF91CF9108958F929F92AF92BF92CF92F2
:101C4000DF92EF92FF920F931F93CF93DF93D82FE2
:101C5000C62F142F613208F09CC00E9455046B01FE
:101C60007C0180917F0381116FC081E080937F03AD
:101C700010935E039FEF90935D0310925C039C0FA3
:101C800090935B0380935A0380915A03DD0FD82B06
:101C9000D0935A0380915903813009F07CC010928F
:101CA00059030E9455046B017C0180915A03809373
:101CB000BB008091810390918203A0918303B09136
:101CC0008403892B8A2B8B2BA1F00E945504009151
:101CD00081031091820320918303309184036C1956
:101CE0007D098E099F09061717072807390708F489
:101CF0004CC08091BC0083FDD8CF85EC8093BC00A4
:101D00000E9455046B017C0180917F03813009F4AE
:101D100044C080915C038C1710F4C0915C03E9E32C
:101D2000F3E0AFE5B3E080E08C1359C08C2FDF9176
:101D3000CF911F910F91FF90EF90DF90CF90BF90C8
:101D4000AF909F908F90089580918103909182032E
:101D5000A0918303B0918403892B8A2B8B2B09F4E8
:101D600080CF0E9455048090810390908203A090C0
:101D70008303B09084036C197D098E099F09861630
:101D80009706A806B90608F06CCF809180030E94E0
:101D9000FA0DC0E0CBCF85EEB1CF80918103909159
:101DA0008203A0918303B0918403892B8A2B8B2B10
:101DB00009F4AACF0E945504009181031091820377
:101DC00020918303309184036C197D098E099F094A
:101DD000061717072807390708F096CFD6CF919135
:101DE0009D938F5FA1CF8F929F92AF92BF92CF9220
:101DF000DF92EF92FF920F931F93CF93DF93D091D7
:101E00003803D13208F0D7C0182FC09137030E9491
:101E100055046B017C0180917F0381116BC082E0CE
:101E200080937F0310935E038FEF80935D03109286
:101E30005C03D0935B03A7E1B3E0E9E3F3E080E068
:101E4000D81391C010925A0380915A03CC0FC82B1B
:101E5000C0935A0380915903813009F088C01092D1
:101E600059030E9455046B017C0180915A038093B1
:101E7000BB008091810390918203A0918303B09174
:101E80008403892B8A2B8B2BA1F00E94550400918F
:101E900081031091820320918303309184036C1994
:101EA0007D098E099F09061717072807390708F4C7
:101EB00042C08091BC0083FDD8CF85EC8093BC00EC
:101EC0000E9455046B017C0180917F03823009F4EC
:101ED00050C080915D038F3F09F46FC080915D0316
:101EE000803209F46CC080915D03803309F469C0CD
:101EF00084E026C08091810390918203A0918303A6
:101F0000B0918403892B8A2B8B2B09F484CF0E94F8
:101F100055048090810390908203A0908303B09039
:101F200084036C197D098E099F0986169706A806F9
:101F3000B90608F070CF809180030E94FA0D85E009
:101F4000109216031092380310921503DF91CF916F
:101F50001F910F91FF90EF90DF90CF90BF90AF90C7
:101F60009F908F9008959D9191938F5F69CF85EE9B
:101F7000A5CF8091810390918203A0918303B091BA
:101F80008403892B8A2B8B2B09F49ECF0E94550446
:101F90000091810310918203209183033091840387
:101FA0006C197D098E099F0906171707280739073D
:101FB00008F08ACFC0CF81E0C3CF80E0C1CF82E0FC
:101FC000BFCF83E0BDCF1F93CF93DF93162FC8E61B
:101FD000D5E0A881B98191E09093150398E690939C
:101FE00037031092160310923803ED91FC9111976C
:101FF0000190F081E02D682FCD011995888199819C
:10200000DC01ED91FC910190F081E02D612F19959B
:1020100081E0DF91CF911F910C94F30ECF93DF936A
:10202000EC018B818823A1F0888191E090931503C6
:1020300080933703109216031092380381E00E94B8
:10204000F30E91E0811190E0892FDF91CF910895F7
:102050000E94E30D81E08B83CE010E940E10982F29
:102060008111E2CFF1CF0895E09114038091130321
:10207000E81730F4F0E0E15AFC4F808190E00895D9
:102080008FEF9FEF089590911403809113032FEF2A
:102090003FEF981748F4E92FF0E0E15AFC4F208118
:1020A00030E09F5F90931403C9010895809113035A
:1020B00090911403891B990B0895CF92DF92EF92B0
:1020C000FF920F931F93CF93DF937C01CB018A0183
:1020D00020911503222389F0EB016B01C40ED51E5C
:1020E000CC15DD0569F06991D701ED91FC91019066
:1020F000F081E02DC7011995F3CF642F0E949E0D4A
:10210000C801DF91CF911F910F91FF90EF90DF9069
:10211000CF900895CF93DF931F92CDB7DEB7698339
:10212000209115032223F9F020913803203258F032
:1021300021E030E0FC013383228390E080E00F90C7
:10214000DF91CF91089580911603E82FF0E0E95ECA
:10215000FC4F998190838F5F80931603809338039F
:1021600081E090E0ECCF61E0CE0101960E949E0DEF
:10217000F7CF90E080E008952F923F924F925F92C8
:102180006F927F928F929F92AF92BF92CF92DF9287
:10219000EF92FF920F931F93CF93DF9300D000D065
:1021A000CDB7DEB79E838D835C0188E0A80EB11C9D
:1021B000ED81FE817C96FC83EB83412C512C320116
:1021C00000E010E0F0E8F9838FEB8A83212C312CBA
:1021D00080E8882E9FEB992EF501C190D190E19077
:1021E000F1905F019101A401C701B6010E94CE36B2
:1021F00018160CF489C020E030E040E85FEBB10134
:10220000C4010E947B31882309F47EC09801498172
:102210005A81C701B6010E947B3187FD78C020E05A
:1022200030E040E85FEBB80189819A810E947B3100
:10223000882309F46CC0A7019601C301B2010E9472
:10224000CD342B013C018B819C81A816B90621F667
:102250009101A401C301B2010E94CC3498014981CB
:102260005A810E94CC3420E030E040E450E40E94E7
:10227000AB356B017C01ED81FE81C082D182E282AF
:10228000F38220E030E040E85FEB64817581868175
:1022900097810E947B31811106C0ED81FE81C4824D
:1022A000D582E682F782ED81FE81158E148E24811F
:1022B000358146815781C701B6010E94CD3420E0A7
:1022C00030E040E05FE30E94E131ED81FE81648314
:1022D00075838683978326960FB6F894DEBF0FBE6C
:1022E000CDBFDF91CF911F910F91FF90EF90DF90C5
:1022F000CF90BF90AF909F908F907F906F905F90A6
:102300004F903F902F900895160147017FCF86018F
:10231000E982FA8290CFBF92CF92DF92EF92FF9242
:102320000F931F93CF93DF93CDB7DEB72E970FB6E2
:10233000F894DEBF0FBECDBF80916805909169050E
:1023400021E02093150328E620933703109216030B
:1023500010923803DC01ED91FC910190F081E02DA9
:102360006BE3199580E00E94F30E41E06EE088E691
:102370000E941B0E10921403809313038E010F5FB3
:102380001F4F6E01BFE0CB0ED11C8091680590916C
:102390006905DC01ED91FC910284F385E02D19952E
:1023A000B82E8091680590916905DC01ED91FC9152
:1023B0000284F385E02D1995E12C8E299B29F801E3
:1023C000819391938F01CE16DF06F9F6C0906E05CA
:1023D000D0906F05E0907005F090710569817A8169
:1023E000072E000C880B990B0E948231A7019601E1
:1023F0000E94AB3520917E0530917F05409180058C
:10240000509181050E94CC3460938E0570938F05A6
:1024100080939005909391056B817C81072E000C31
:10242000880B990B0E948231A70196010E94AB355F
:102430002091820530918305409184055091850556
:102440000E94CC3460939205709393058093940519
:10245000909395056D817E81072E000C880B990B5A
:102460000E948231A70196010E94AB35209186051A
:102470003091870540918805509189050E94CC34A0
:1024800060939605709397058093980590939905AE
:102490006F817885072E000C880B990B0E94823182
:1024A00020E030EF41E456E40E94CD3420E030E0FB
:1024B0004AEA53E40E94AB3560938A0570938B051A
:1024C00080938C0590938D05C0906A05D0906B0524
:1024D000E0906C05F0906D0569857A85072E000CFB
:1024E000880B990B0E948231A70196010E94AB359F
:1024F00020917205309173054091740550917505D6
:102500000E94CC3460939A0570939B0580939C0540
:1025100090939D056B857C85072E000C880B990B8D
:102520000E948231A70196010E94AB352091760569
:102530003091770540917805509179050E94CC340F
:1025400060939E0570939F058093A0059093A105CD
:102550006D857E85072E000C880B990B0E948231B9
:10256000A70196010E94AB3520917A0530917B0539
:1025700040917C0550917D050E94CC346093A2056A
:102580007093A3058093A4059093A5052E960FB68E
:10259000F894DEBF0FBECDBFDF91CF911F910F9199
:1025A000FF90EF90DF90CF90BF9008956F927F9251
:1025B0008F929F92AF92BF92CF92DF92EF92FF9253
:1025C0000F931F93CF93DF936C013B017A0110E0CF
:1025D00000E0D60114968D919C91E701C01BD10BB0
:1025E0008C179D0708F4EC0141E0C7018C1B9D0B83
:1025F0000817190708F440E06C2FC13208F060E2B8
:10260000F60180810E941B0E109214038093130325
:102610008C171D0679F54301800E911E5401C501EA
:10262000881999098C179D0778F4D60111968D9118
:102630009C91DC01ED91FC910284F385E02D1995CC
:10264000F50181935F01EBCF0C0F1D1F0E151F05C8
:1026500008F4BFCF81E0DF91CF911F910F91FF90E0
:10266000EF90DF90CF90BF90AF909F908F907F9032
:102670006F90089580E0EFCF1F93CF93DF93DC013D
:102680001496ED91FC91E417F50710F490E01FC04B
:10269000122FEA01FC0181819281208131E0309387
:1026A0001503209337031092160310923803DC01B0
:1026B000ED91FC910280F381E02D1995C817D9079F
:1026C00029F7812F0E94F30E91E08111DFCF892F2E
:1026D000DF91CF911F910895EF92FF920F931F9377
:1026E000CF93DF93EC018A01790120E041E050E0D3
:1026F0000E943C13882359F0A701B801CE01DF9155
:10270000CF911F910F91FF90EF900C94D61280E023
:10271000DF91CF911F910F91FF90EF900895CF938C
:10272000DF9300D0CDB7DEB7E0917806F09179065F
:10273000898323E030E0AE014F5F5F4FBA013097ED
:10274000A9F0CF010E946C1329816A8170E090E0AA
:1027500080E0982F872F762F6627822B2B81622B84
:102760000F900F900F90DF91CF91089580917A068E
:1027700090917B060E942B04E7CF4F925F926F925D
:102780007F928F929F92AF92BF92CF92DF92EF9201
:10279000FF928AEF0E948F136115710520E882076E
:1027A000910509F49BC06B017C0184E0F594E794EA
:1027B000D794C7948A95D1F740908F065090900691
:1027C000C701B60128E030E040E050E00E94FF324F
:1027D000712C612CD301C201880F991FAA1FBB1F46
:1027E000281B390B4A0B5B0BA0919106B091920606
:1027F0000E942D334B015C01C701B60120E130E09E
:1028000040E050E00E94FF32CA01B9016419750925
:10281000860997099B01AC010E94B9329B01AC016A
:102820007CE055954795379527957A95D1F7A091F6
:102830009306B09194060E942D332B013C01C501F3
:10284000B40120E038E040E050E00E94FF3269012E
:102850007A01C301B20120E030E440E050E00E9480
:10286000FF322C0D3D1D4E1D5F1D80918B069091FA
:102870008C06A0918D06B0918E06280F391F4A1F35
:102880005B1F2093870630938806409389065093F8
:102890008A06A5E0B0E00E949F3260587F4F8F4FBC
:1028A0009F4F20E031E040E050E00E94FF32CA013B
:1028B000B9010E94823120E030E048EC52E40E94ED
:1028C000AB35FF90EF90DF90CF90BF90AF909F908F
:1028D0008F907F906F905F904F90089560E070E0D0
:1028E00080EC9FE7EECFCF93DF931F921F92CDB77F
:1028F000DEB7E0917806F0917906898322E030E036
:10290000AE014F5F5F4FBA01309769F0CF010E946F
:102910006C1389819A819827892798270F900F90A7
:10292000DF91CF91089580917A0690917B060E9465
:102930002B04EFCF0E9473149827892798270895B6
:10294000CF93DF931F92CDB7DEB7E0917806F09179
:102950007906898321E030E0AE014F5F5F4FBA0115
:10296000309741F0CF010E946C1389810F90DF9165
:10297000CF91089580917A0690917B060E942B0456
:10298000F4CF0F931F93CF93DF931F921F92CDB776
:10299000DEB76A83E0917806F0917906309789F086
:1029A000898321E042E050E0BE016F5F7F4FCF019D
:1029B0000E943C130F900F90DF91CF911F910F91C8
:1029C00008958F77898300917A0610917B06C8015C
:1029D0000E941E036981C8010E9475036A81C801B3
:1029E0000E947503C8010E943103E4CF0F931F9327
:1029F000CF93DF9300D01F921F92CDB7DEB78C012B
:102A000079836A831B824C83CE0103960E94400225
:102A10008D8321E045E050E0BE016F5F7F4FF801FC
:102A2000828993890E943C130F900F900F900F9012
:102A30000F90DF91CF911F910F910895BF92CF9288
:102A4000DF92EF92FF920F931F93CF93DF93CDB757
:102A5000DEB762970FB6F894DEBF0FBECDBF8C0114
:102A600083E089831A8221E042E050E0BE016F5F7B
:102A70007F4FF801828993890E943C13811112C013
:102A8000B12C8B2D62960FB6F894DEBF0FBECDBF72
:102A9000DF91CF911F910F91FF90EF90DF90CF903A
:102AA000BF90089564E070E080E090E00E947A04B6
:102AB00042E150E0BE016F5F7F4FF8018289938948
:102AC0000E94D612B82E8823D9F2CE0101967C013D
:102AD0006E0193E1C90ED11CC7010E944002F701AB
:102AE00092818913CDCFF3E0EF0EF11CEC14FD04BD
:102AF00099F74F81588554274527542770E060E0A7
:102B0000762F652F542F44278A85482B762F652FE3
:102B1000542F44278B85482B8D859E8598278927A0
:102B20009827B0E0A0E0BA2FA92F982F88272889EE
:102B3000822BBA2FA92F982F88272989822BC98009
:102B4000DA80DC24CD24DC24F12CE12CFE2CED2CCD
:102B5000DC2CCC242C81C22AFE2CED2CDC2CCC24A9
:102B60002D81C22AF801C282D382E482F582468393
:102B700057836087718782879387A487B58781CFC2
:102B80004F925F926F927F928F929F92AF92BF927D
:102B9000CF92DF92EF92FF92CF93DF93EC016A0125
:102BA0007B0120E030E0A901CB01B6010E947B311E
:102BB00087FF04C0F7FAF094F7F8F09488A099A082
:102BC000AAA0BBA0A7019601C501B4010E947B3158
:102BD000882309F44DC06CA97DA98EA99FA90E94E4
:102BE00082312B013C01A7019601C501B4010E946D
:102BF000AB359B01AC01C301B2010E94E1310E94DF
:102C00001D366CAB7DAB8EAB9FABA701960160E030
:102C100070E080E090E40E94AB350E94E13626E54A
:102C20003EE04DE25FE30E94E13120E034E244E720
:102C300059E40E94E13168AF79AF8AAF9BAFC8A277
:102C4000D9A2EAA2FBA2E881F9810084F185E02DF6
:102C5000CE01DF91CF91FF90EF90DF90CF90BF90AA
:102C6000AF909F908F907F906F905F904F9019944E
:102C7000DF91CF91FF90EF90DF90CF90BF90AF901A
:102C80009F908F907F906F905F904F9008954F929C
:102C90005F926F927F928F929F92AF92BF92CF92EC
:102CA000DF92EF92FF920F931F93CF93DF9300D0A9
:102CB00000D000D01F92CDB7DEB70E948B11C0901C
:102CC0009605D0909705E0909805F0909905A7019A
:102CD0009601C701B6010E94E13169837A838B8333
:102CE0009C8380908E0590908F05A0909005B09069
:102CF0009105A5019401C501B4010E94E13129812A
:102D00003A814B815C810E94CD340E94E1366D8313
:102D10007E838F83988740909205509093056090B2
:102D200094057090950501E010E020E030E0A901E5
:102D3000C701B6010E94CE3687FF02C010E000E056
:102D400021E030E03A87298720E030E0A901C7017F
:102D5000B6010E947B3187FD02C01A861986B80130
:102D600049855A85641B750B072E000C880B990B3F
:102D70000E9482312D813E814F8158850E94E13130
:102D80009B01AC01C301B2010E944C3521EE3EE231
:102D900045E652E40E94E1316093A6057093A705D1
:102DA0008093A8059093A905A3019201C301B201E4
:102DB0000E94E13129813A814B815C810E94CD34AE
:102DC0000E94E1369B01AC01C501B4010E944C3563
:102DD000905821EE3EE245E652E40E94E1316093D4
:102DE000AA057093AB058093AC059093AD050E9446
:102DF000AC044B015C018091BA059091BB05A09198
:102E0000BC05B091BD05A5019401281B390B4A0BE7
:102E10005B0BCA01B9010E9480312FE632E143E821
:102E20005AE30E94E1316B017C018092BA059092D5
:102E3000BB05A092BC05B092BD058090BE059090E8
:102E4000BF05A090C005B090C105A501940160E048
:102E500070E080E89FE30E94CC342B013C0120917C
:102E60009A0530919B0540919C0550919D05C701A5
:102E7000B6010E94E1312091AE053091AF0540913D
:102E8000B0055091B1050E94CD34A50194010E9476
:102E9000E13169837A838B839C832091A6053091ED
:102EA000A7054091A8055091A905C301B2010E9450
:102EB000E1319B01AC0169817A818B819C810E9407
:102EC000CD346093AE057093AF058093B0059093B9
:102ED000B10520919E0530919F054091A00550912C
:102EE000A105C701B6010E94E1312091B2053091E0
:102EF000B3054091B4055091B5050E94CD34A501AC
:102F000094010E94E1314B015C012091AA053091AE
:102F1000AB054091AC055091AD05C301B2010E94D3
:102F2000E1319B01AC01C501B4010E94CD34609335
:102F3000B2057093B3058093B4059093B5052091C5
:102F4000A2053091A3054091A4055091A505C701A4
:102F5000B6010E94E1312091B6053091B70540914C
:102F6000B8055091B9050E94CD346093B6057093B1
:102F7000B7058093B8059093B9052A960FB6F894D3
:102F8000DEBF0FBECDBFDF91CF911F910F91FF909C
:102F9000EF90DF90CF90BF90AF909F908F907F90F9
:102FA0006F905F904F900895FB0101900020E9F72A
:102FB0003197AF01461B570B0C944C068F929F9292
:102FC000AF92BF920F931F93CF93DF93CDB7DEB72E
:102FD000A1970FB6F894DEBF0FBECDBF19A2423045
:102FE00008F44AE08E010F5D1F4F842E912CB12C06
:102FF000A12CA50194010E94DD32E62FB901CA017E
:10300000EA3004F5E05DD801EE938D01232B242BEB
:10301000252B79F790E080E0109729F0BD0182E23E
:1030200094E00E94D417A1960FB6F894DEBF0FBEAD
:10303000CDBFDF91CF911F910F91BF90AF909F9027
:103040008F900895E95CDFCFBC01990F880B990B35
:103050004AE00C94DE17BC0190E080E04AE00C945A
:10306000DE17BC0182E294E00C94D417CF93DF9377
:10307000FC01448155816081718182E294E00E946B
:103080004C06EC016CE672E082E294E00E94D417F8
:103090008C0F9D1FDF91CF910895CF93DF93BC01DB
:1030A0008FEB94E00E94D417EC016CE672E08FEB9A
:1030B00094E00E94D4178C0F9D1FDF91CF9108954B
:1030C000209170063091710680916A0690916B068E
:1030D00028173907F1F480916C0690916D06609184
:1030E0006606709167060097D1F061157105A1F42D
:1030F000232BC1F0FC01808190E008C0232B91F0CC
:10310000FB01808190E091958195910921E0892BC7
:1031100009F020E0822F08950E944939F7CF611508
:10312000710561F721E0F6CF0F931F93CF93DF93E3
:103130008C01EB01FC01808191810097E1F06881B5
:10314000798161157105A9F0428153812C813D81FE
:103150004217530770F00E9452398C819D81F8010B
:10316000958384831D821C82DF91CF911F910F91E3
:1031700008950E94D63788819981F80191838083D0
:103180008A819B81938382838C819D8195838483B3
:10319000198218821B821A82E5CFCF93DF93EC014C
:1031A00088819981009711F00E94D6371982188280
:1031B0001D821C821B821A82DF91CF910895FC012F
:1031C00080819181009711F00C94D63708950C946A
:1031D000D6370C94D6370C94D637FF920F931F93A3
:1031E000CF93DF931F921F92CDB7DEB78C01DC0126
:1031F0001F965C934E931E974F5F5F4F51965C9363
:103200004E93509783ED898384E08A8321E042E0E6
:1032100050E0BE016F5F7F4F52968D919C910E944E
:103220003C136EE170E080E090E00E947A0450E090
:1032300040E060E170E0C8010E94F614882399F133
:1032400042E050E060E076E4C8010E94F614F82EF7
:10325000882391F187E090E00E943A37FC0188E1F1
:1032600092E09183808383E09CE094838383168340
:103270000583D8015796FC93EE93569787E090E02C
:103280000E943A37FC018AE092E09183808382E0D9
:103290009CE09483838316830583D8015596FC9321
:1032A000EE9354970AC050E040E060E170E0C8013E
:1032B0000E94F6148111C4CFF12C8F2D0F900F9026
:1032C000DF91CF911F910F91FF9008950F931F935E
:1032D000CF93DF93EC0188819981009759F02A817F
:1032E0003B812617370730F081E0DF91CF911F91A6
:1032F0000F9108958B016F5F7F4F0E945F38009799
:1033000059F0998388831B830A832C813D81232B69
:1033100059F7FC011082E8CF80E0E7CFEF92FF92EF
:103320000F931F93CF93DF93EC017B018A01BA01C6
:103330000E94661981110BC0CE010E94CD18CE01EA
:10334000DF91CF911F910F91FF90EF9008951D8312
:103350000C83B701888199810E945239F0CF609126
:103360006606709167066115710559F040916A060D
:1033700050916B068CE696E00E948E198CE696E0E2
:1033800008958CE696E00E94CD18F8CFFB010190DD
:103390000020E9F73197AF01461B570B0C948E19AB
:1033A000CF92DF92EF92FF920F931F93CF93DF9311
:1033B000C0906006D0906106E0906206F0906306CF
:1033C000C701B6010E941D36C8E6D1E0CB01BE019F
:1033D0000E94C9328C0120E030E0A901C701B6018A
:1033E0000E947B3187FF29C0C01BD10BD09365069B
:1033F000C093640680916406909165069C012E52EC
:1034000031092D3041E03407E8F06FE672E086E6DE
:1034100096E00E94C6190E946018811148C08FE68C
:1034200092E00E944D18DF91CF911F910F91FF9074
:10343000EF90DF90CF900C94AF1910936506009336
:103440006406D8CF2935310568F461E772E086E675
:1034500096E00E94C6190E946018811128C081E779
:1034600092E0DFCF9C01285831092935310568F4F5
:1034700063E772E086E696E00E94C6190E94601833
:10348000811115C083E792E0CCCF825E9109893526
:10349000910568F465E772E086E696E00E94C61939
:1034A0000E946018811103C085E792E0BACFDF91D6
:1034B000CF911F910F91FF90EF90DF90CF900895E3
:1034C000FC01118210821382128215821482FB0188
:1034D00001900020E9F73197AF01461B570B0C9480
:1034E0008E19CF92DF92EF92FF920F931F93CF939B
:1034F000DF931F921F92CDB7DEB78C016B016EE692
:1035000072E00E94601AC6010E94B50697FD21C0B4
:103510008A309105F1F089831A82F801E480F58000
:10352000FFEFEF1AFF0AB701C8010E94661988234E
:1035300051F3F8012081318184819581BE016F5F53
:103540007F4F820F931F0E945239F801F582E48267
:10355000DACFC8010F900F90DF91CF911F910F919B
:10356000FF90EF90DF90CF9008950F931F93CF932C
:10357000DF9300D000D0CDB7DEB76FEB74E0CE01A3
:1035800001960E94711A8D819E81892B79F00981A3
:103590001A8167E772E0C8010E944939892BA9F4B2
:1035A00081E090E090934B0680934A06CE0101960D
:1035B0000E94DF1826960FB6F894DEBF0FBECDBF6F
:1035C000DF91CF911F910F91089569E772E0C801D3
:1035D0000E944939892B51F710924B0610924A06E6
:1035E000E5CFAF92BF92CF92DF92EF92FF920F930F
:1035F0001F93CF93DF936C015B017A01890124173C
:10360000350720F48F2D7901042F182F6EE672E014
:10361000C6010E94601AD5011496CD91DC91EC167A
:10362000FD06E0F40C171D0708F4E801D501ED9143
:10363000FC911197EC0FFD1F108110826D917C9110
:103640006E0D7F1DC60161157105A1F00E94C6199E
:10365000F50180819181C80FD91F1883C601DF91C0
:10366000CF911F910F91FF90EF90DF90CF90BF907F
:10367000AF9008950E94CD18EBCF0F931F93CF9377
:10368000DF938C01EB01DC0115968D919C910E94DA
:103690001E15F801058116810E94AC04AB01BC0126
:1036A000FE01349680E2DF011D928A95E9F784E2FB
:1036B00090E0A0E0B0E088839983AA83BB83F801FF
:1036C00080899189B0E0A0E08C839D83AE83BF8325
:1036D0008DE090E0A0E0B0E088879987AA87BB875B
:1036E000488B598B6A8B7B8B86819781A085B185AE
:1036F0008C8B9D8BAE8BBF8B81E0DF91CF911F9127
:103700000F9108950F931F93CF93DF938C01EB01DB
:10371000DC0115968D919C910E941E15F801058182
:1037200016810E94AC04AB01BC01FE01349680E21C
:10373000DF011D928A95E9F784E290E0A0E0B0E015
:1037400088839983AA83BB83F80186859785B0E037
:10375000A0E08C839D83AE83BF838CE090E0A0E0EB
:10376000B0E088879987AA87BB87488B598B6A8B7B
:103770007B8B82859385A485B5858C8B9D8BAE8B49
:10378000BF8B81E0DF91CF911F910F9108950F932F
:103790001F93CF93DF938C01EB0188E2FB01119221
:1037A0008A95E9F74BE050E06BE772E0CE010E94AA
:1037B00059391B8681E090E0A0E0B0E08C879D87BE
:1037C000AE87BF87F80183819481092E000CAA0B74
:1037D000BB0B888B998BAA8BBB8B8DE090E0A0E014
:1037E000B0E08C8B9D8BAE8BBF8B1CA21DA21EA24A
:1037F0001FA280E090E0A0EFB1EC8C8F9D8FAE8F88
:10380000BF8F80E090E0A2EDB2E4888F998FAA8FFD
:10381000BB8F8CE990E5A8E0BBE388A399A3AAA39A
:10382000BBA3DF91CF911F910F9108950F931F9329
:10383000CF93DF938C01EB0188E2FB0111928A9513
:10384000E9F74BE050E063E872E0CE010E9459399D
:103850001B8681E090E0A0E0B0E08C879D87AE877A
:10386000BF87F80183819481092E000CAA0BBB0B42
:10387000888B998BAA8BBB8B8CE090E0A0E0B0E0AA
:103880008C8B9D8BAE8BBF8B1CA21DA21EA21FA278
:1038900080E090E0A2E8B3E48C8F9D8FAE8FBF8F65
:1038A00080E090E8ADE9B4E4888F998FAA8FBB8F50
:1038B00088E195EFAFE7B9E388A399A3AAA3BBA3D7
:1038C000DF91CF911F910F91089585ED8093BC00FA
:1038D0008091810390918203A0918303B09184032E
:1038E0000796A11DB11D23E0B695A79597958795DD
:1038F0002A95D1F72091BC0024FD03C010927F03CC
:1039000008954091810350918203609183037091E7
:103910008403452B462B472B69F30097A105B1057E
:1039200041F025E32A95F1F700000197A109B109BB
:10393000E1CF809180030C94FA0D1F920F920FB685
:103940000F9211242F933F938F939F93AF93BF9325
:103950008091E5029091E602A091E702B091E80221
:103960003091E40223E0230F2D3758F50196A11D75
:10397000B11D2093E4028093E5029093E602A093A8
:10398000E702B093E8028091E9029091EA02A091E7
:10399000EB02B091EC020196A11DB11D8093E902EA
:1039A0009093EA02A093EB02B093EC02BF91AF9127
:1039B0009F918F913F912F910F900FBE0F901F906D
:1039C000189526E8230F0296A11DB11DD2CF1F9294
:1039D0000F920FB60F9211240BB60F922F933F93B5
:1039E0004F935F936F937F938F939F93AF93BF9307
:1039F000EF93FF9385E893E00E941707FF91EF9103
:103A0000BF91AF919F918F917F916F915F914F91F6
:103A10003F912F910F900BBE0F900FBE0F901F90F4
:103A200018951F920F920FB60F9211240BB60F929A
:103A30002F933F934F935F936F937F938F939F93B6
:103A4000AF93BF93EF93FF9385E893E00E947906CD
:103A5000FF91EF91BF91AF919F918F917F916F9166
:103A60005F914F913F912F910F900BBE0F900FBE22
:103A70000F901F9018951F920F920FB60F9211245E
:103A80000BB60F922F933F934F935F936F937F9358
:103A90008F939F93AF93BF93EF93FF9382E294E052
:103AA0000E941707FF91EF91BF91AF919F918F9166
:103AB0007F916F915F914F913F912F910F900BBE2E
:103AC0000F900FBE0F901F9018951F920F920FB678
:103AD0000F9211240BB60F922F933F934F935F9346
:103AE0006F937F938F939F93AF93BF93EF93FF93C6
:103AF00082E294E00E947906FF91EF91BF91AF912D
:103B00009F918F917F916F915F914F913F912F91F5
:103B10000F900BBE0F900FBE0F901F9018951F9225
:103B20000F920FB60F9211240BB60F922F933F9363
:103B30004F935F936F937F938F939F93AF93BF93B5
:103B4000EF93FF938FEB94E00E941707FF91EF91A3
:103B5000BF91AF919F918F917F916F915F914F91A5
:103B60003F912F910F900BBE0F900FBE0F901F90A3
:103B700018951F920F920FB60F9211240BB60F9249
:103B80002F933F934F935F936F937F938F939F9365
:103B9000AF93BF93EF93FF938FEB94E00E9479066E
:103BA000FF91EF91BF91AF919F918F917F916F9115
:103BB0005F914F913F912F910F900BBE0F900FBED1
:103BC0000F901F9018951F920F920FB60F9211240D
:103BD0000BB60F922F933F934F935F936F937F9307
:103BE0008F939F93AF93BF93EF93FF938091B9000F
:103BF000887F803609F44DC008F040C0883209F44F
:103C0000A9C028F5803109F49DC0C8F4882309F4BF
:103C1000FBC0883009F496C0FF91EF91BF91AF913E
:103C20009F918F917F916F915F914F913F912F91D4
:103C30000F900BBE0F900FBE0F901F9018958831FC
:103C400009F488C0803241F780935D0314C080344A
:103C500009F49DC040F48033B9F38833E9F68093CA
:103C60005D0385ECB0C0803509F485C0883509F462
:103C700096C0883489F60E94651CCECF883909F435
:103C80008CC038F5883729F050F4883611F0803729
:103C900019F683E080937F031092E10257C08838C1
:103CA00009F47BC0803919F0803809F0B5CF8091D4
:103CB000E102803208F071C0E091E10281E08E0FF4
:103CC0008093E1028091BB00F0E0EF53FD4F8083D1
:103CD0003DC0803B39F0E0F4803A09F479C0883A7D
:103CE00009F09ACF84E080937F031092C002109273
:103CF000BF02E091EF02F091F00219958091BF02AE
:103D000081110FC081E08093BF0210929F0209C011
:103D1000803C09F4A6CF883C09F4A3CF883B09F086
:103D20007BCFE091C00281E08E0F8093C002F0E073
:103D3000E156FD4F80818093BB009091C00280913D
:103D4000BF0229C080915A038093BB0085EC809309
:103D5000BC0062CF90915C0380915B03981758F58B
:103D6000E0915C0381E08E0F80935C03F0E0E75C00
:103D7000FC4F8081E9CFE0915C0381E08E0F80935E
:103D80005C038091BB00F0E0E75CFC4F8083909186
:103D90005C0380915B039817C8F285E8D8CFE09167
:103DA0005C0381E08E0F80935C038091BB00F0E0A8
:103DB000E75CFC4F808380915E0381115CCF81E0E2
:103DC0008093590384EA8093BC0010927F0324CF30
:103DD00085EC8093BC0010927F038091E1028032D9
:103DE00030F4E091E102F0E0EF53FD4F108260917A
:103DF000E10270E0E091ED02F091EE0281EC92E0E0
:103E000019951092E10208CF10925D0334CF6F92A2
:103E10007F928F929F92AF92BF92CF92DF92EF925A
:103E2000FF920F931F93CF93DF93E5E8F3E01382A4
:103E3000128288EE93E0A0E0B0E084839583A683AD
:103E4000B78326E232E03183208345E351E0558792
:103E5000448744E351E05787468740E351E0518B64
:103E6000408B41E351E0538B428B42E351E0558B51
:103E7000448B46E351E0578B468B118E128E138E86
:103E8000148EE2E2F4E01382128284839583A68387
:103E9000B7833183208345ED50E05587448744ED57
:103EA00050E05787468740ED50E0518B408B41ED05
:103EB00050E0538B428B42ED50E0558B448B46EDE6
:103EC00050E0578B468B118E128E138E148EEFEBB3
:103ED000F4E01382128284839583A683B7833183AF
:103EE000208325EC30E03587248724EC30E03787C9
:103EF000268720EC30E0318B208B21EC30E0338BB7
:103F0000228B22EC30E0358B248B26EC30E0378B93
:103F1000268B118E128E138E148ECCE5D5E01B826B
:103F20001A828C839D83AE83BF8388E392E099835A
:103F30008883E8E6F5E0D183C08388E491EEAAE7C0
:103F4000BFE38093BE059093BF05A093C005B093D7
:103F5000C105128613861486158616861786108A62
:103F6000118A128A138A148A158A168A178A108E61
:103F7000118E128E138E148E158E168E178E10A221
:103F800011A280E5882E82E0982E9092C30580923F
:103F9000C20511E01093C9051092D2051092D30505
:103FA0001092D4051092D5051092D6051092D7051F
:103FB0001092D8051092D9051092DA051092DB05FF
:103FC0001092DC051092DD051092DE051092DF05DF
:103FD0001092E0051092E1051092E2051092E305BF
:103FE0001092E4051092E505C12CD12C90E8E92E41
:103FF0009FE3F92EC092E605D092E705E092E8052E
:10400000F092E9051092C5051092C6051092C705F9
:104010001092C805AA24A394B12CB092EF05A092E7
:10402000EE0566246A946092F1051092EA051092FA
:10403000EB051092EC051092ED0582E08093CA0525
:1040400083E08093CB0534E0732E7092CC0505E0BD
:104050000093CD051092F0051092F6051092F70529
:104060001092F8051092F9051092FA051092FB05CE
:104070001092FC051092FD051092FE051092FF05AE
:104080001092000610920106C0920206D09203061A
:10409000E0920406F09205061092C4051092CE0537
:1040A0001092CF051092D0051092D10582EC95E0C8
:1040B0000E944009B701A60182EC95E00E94C0155C
:1040C000B701A60182EC95E00E94CE0B9092070604
:1040D0008092060610930D0610921606109217068F
:1040E000109218061092190610921A0610921B06CA
:1040F00010921C0610921D0610921E0610921F06AA
:104100001092200610922106109222061092230689
:104110001092240610922506109226061092270669
:104120001092280610922906C0922A06D0922B06D9
:10413000E0922C06F0922D061092090610920A06C3
:1041400010920B0610920C06B0923306A092320623
:104150006092350610922E0610922F0610923006AD
:104160001092310670920E0600930F0670921006A0
:10417000009311061092340610923A0610923B06F4
:1041800010923C0610923D0610923E0610923F0699
:104190001092400610924106109242061092430679
:1041A0001092440610924506C0924606D0924706E9
:1041B000E0924806F0924906109208061092120604
:1041C00010921306109214061092150686E096E0DF
:1041D0000E944009B701A60186E096E00E94C01542
:1041E000B701A60186E096E00E94CE0B82E090E047
:1041F00090934B0680934A0688EB9BE090934D0684
:1042000080934C0610924E0610924F061092500664
:104210001092510680ED97E09093530680935206DA
:104220001092540610925506109256061092570698
:10423000109258061092590610925A0610925B0678
:1042400010925D0610925C0610925F0610925E0658
:104250001092600610926106109262061092630638
:10426000109265061092640669E872E086E696E0B0
:104270000E94601A69E872E08CE696E00E94601A7B
:1042800010927306109272061092750610927406C0
:1042900010927706109276061092790610927806A0
:1042A00010927B0610927A0610927D0610927C0680
:1042B00010927F0610927E06109281061092800660
:1042C00010928B0610928C0610928D0610928E061C
:1042D00080E48093BF06D093C106C093C0061092BD
:1042E000B3061092B4061092B5061092B60610925C
:1042F000BB061092BC061092BD061092BE0610922C
:10430000B7061092B8061092B9061092BA068AE45F
:1043100092E09093C3068093C2061092D506109245
:10432000D4061092D7061092D6061092D906109293
:10433000D80669E772E08AEE96E00E94601A69E7A3
:1043400072E080EF96E00E94601A1093F6062EE16C
:10435000E9EFF6E0DF01C22F1D92CA95E9F780E090
:1043600090E0A0E8BFEB8093FD069093FE06A0933B
:10437000FF06B0930007E7E1F7E0EF01322F199253
:104380003A95E9F780931B0790931C07A0931D07AC
:10439000B0931E07E5E3F7E0EF01322F19923A954B
:1043A000E9F78093390790933A07A0933B07B093BE
:1043B0003C07E3E5F7E0EF01322F19923A95E9F770
:1043C0008093570790935807A0935907B0935A07C3
:1043D000E1E7F7E0EF01322F19923A95E9F7809380
:1043E000750790937607A0937707B0937807EFE867
:1043F000F7E0EF01322F19923A95E9F7809393078E
:1044000090939407A0939507B0939607EDEAF7E091
:10441000EF01322F19923A95E9F78093B107909303
:10442000B207A093B307B093B407EBECF7E0EF014A
:1044300019922A95E9F78093CF079093D007A0931C
:10444000D107B093D207DF91CF911F910F91FF90C9
:10445000EF90DF90CF90BF90AF909F908F907F9024
:104460006F900895CF93DF93CDB7DEB7CC56D109C7
:104470000FB6F894DEBF0FBECDBF789484B58260CE
:1044800084BD84B5816084BD85B5826085BD85B5F8
:10449000816085BD80916E00816080936E00109276
:1044A00081008091810082608093810080918100F1
:1044B0008160809381008091800081608093800082
:1044C0008091B10084608093B1008091B0008160E0
:1044D0008093B000809191008260809391008091E0
:1044E0009100816080939100809190008160809321
:1044F00090008091A10082608093A1008091A10032
:1045000081608093A1008091A00081608093A000D1
:10451000809121018260809321018091210181603D
:1045200080932101809120018160809320018091FE
:104530007A00846080937A0080917A008260809310
:104540007A0080917A00816080937A0080917A006D
:10455000806880937A001092C10040E855E260E0E4
:1045600070E08FEB94E00E94E20140E051EE60E0E9
:1045700070E082E294E00E94E20140E855E260E0EF
:1045800070E085E893E00E94E20160E089E10E942A
:10459000E30F60E08AE10E94E30F80E090E0A3E88F
:1045A000B2E480936A0590936B05A0936C05B09379
:1045B0006D0568E08BE10E94E30F80E090E0A0E8E9
:1045C000B6E480936E0590936F05A0937005B09349
:1045D000710560E08CE10E94E30F61E08BE60E94D0
:1045E000E30F0E9447168091A6059091A705A09120
:1045F000A805B091A9058093AE059093AF05A0934F
:10460000B005B093B1058091AA059091AB05A0913A
:10461000AC05B091AD058093B2059093B305A0931E
:10462000B405B093B5050E94AC046093BA057093CD
:10463000BB058093BC059093BD0568EE73E080E0F8
:1046400090E00E947A041092720510927305109205
:1046500074051092750510927605109277051092E8
:1046600078051092790510927A0510927B051092C8
:104670007C0510927D0510927E0510927F051092A8
:104680008005109281051092820510928305109288
:104690008405109285051092860510928705109268
:1046A00088051092890504EF11E01FAA18AE19AE13
:1046B0001AAE1FA618AA19AA1AAA1BAA1CAA1DAAD2
:1046C0001EAAC12CD12C76014601570126013701C3
:1046D0000E948B1120918E0530918F05409190059D
:1046E00050919105C301B2010E94CD342B013C01D0
:1046F0002091920530919305409194055091950534
:10470000C501B4010E94CD344B015C0120E030E0D2
:1047100040E85FE360919605709197058091980558
:10472000909199050E94CC349B01AC01C701B60160
:104730000E94CD346B017C0120919A0530919B053C
:1047400040919C0550919D056BA97CA98DA99EA9BE
:104750000E94CD346BAB7CAB8DAB9EAB20919E05A4
:1047600030919F054091A0055091A1056FA578A9B2
:1047700089A99AA90E94CD346FA778AB89AB9AAB6F
:104780002091A2053091A3054091A4055091A50563
:104790006FA978AD89AD9AAD0E94CD346FAB78AF7B
:1047A00089AF9AAF61E070E080E090E00E947A0407
:1047B0000150110909F08CCF20E030E04AEF53E4BA
:1047C000C301B2010E94AB3560937E0570937F05F3
:1047D000809380059093810520E030E04AEF53E418
:1047E000C501B4010E94AB356093820570938305C7
:1047F000809384059093850520E030E04AEF53E4F0
:10480000C701B6010E94AB3560938605709387059A
:10481000809388059093890520E030E04AEF53E4C7
:104820006BA97CA98DA99EA90E94AB3560937205E6
:1048300070937305809374059093750520E030E0C4
:104840004AEF53E46FA578A989A99AA90E94AB35CC
:10485000609376057093770580937805909379053A
:1048600020E030E04AEF53E46FA978AD89AD9AAD0E
:104870000E94AB3560937A0570937B0580937C052D
:1048800090937D0560E0809172060E94390360E09C
:10489000809174060E94390360E0809176060E9440
:1048A000390340E050E06AEF74E482EC95E00E9446
:1048B000C01540E050E06AEF74E486E096E00E94A4
:1048C000C01560914C0670914D06072E000C880BA8
:1048D000990B0E948231AB01BC0182EC95E00E94F1
:1048E000CE0B60914C0670914D06072E000C880B84
:1048F000990B0E948231AB01BC0186E096E00E94D8
:10490000CE0B0E9447168091C5059091C605A091D7
:10491000C705B091C805892B8A2B8B2B21F082EC1F
:1049200095E00E944B088091090690910A06A0919B
:104930000B06B0910C06892B8A2B8B2B21F086E07D
:1049400096E00E944B086EE672E0CE0189960E94C6
:10495000601A85E893E00E94ED06181619060CF01F
:1049600060C065E873E0CE0101960E94711ABE0135
:104970006F5F7F4FCE0189960E949418CE010196F9
:104980000E94DF1889A59AA50DA51EA530E020E09C
:104990002017310789F0FC01E20FF31F009721F483
:1049A0001092E302E3EEF2E0B9016F5F7F4F4081C6
:1049B0004C3209F07BC0890150E040E0BE01675DE8
:1049C0007F4FCE0101960E94F11ABE016F5F7F4FAB
:1049D0008AEE96E00E949418CE0101960E94DF189C
:1049E0002DA53EA5A8014F5F5F4FBE01675D7F4FBC
:1049F000CE0101960E94F11ABE016F5F7F4F80EFDA
:104A000096E00E949418CE0101960E94DF188BE870
:104A100092E00E943118CE0189960E9436181092B9
:104A2000F606CE0189960E94DF1860915C067091AF
:104A30005D0680915E0690915F068617970721F1CB
:104A4000072E000C880B990B0E948231AB01BC0130
:104A500082EC95E00E94CE0B60915C0670915D0641
:104A6000072E000C880B990B0E948231AB01BC0110
:104A700086E096E00E94CE0B80915C0690915D06E8
:104A800090935F0680935E0680914A0690914B0654
:104A90008230910509F424C15CF4009709F453C0F5
:104AA000019709F404C10E94A6072BCF9B0170CF88
:104AB0008430910509F4A3C10CF48AC1059799F7D4
:104AC00082EC95E00E94940886E096E00E949408AB
:104AD00000917A0610917B060115110509F09EC11F
:104AE0008091780690917906009711F00E94D63750
:104AF00086E090E00E943A378C0186E7D8018C93DB
:104B00008CE595E012969C938E93119713961C92C8
:104B1000139780E290E015969C938E9314971093D0
:104B20007906009378060E94E30D81E0F801838303
:104B3000C8010E940E108111BAC18091F7068160F0
:104B40008093F706BDC288EB9BE090935D0680934F
:104B50005C0640E050E86BE375E482EC95E00E946F
:104B6000590B40E050E86BE375E486E096E00E9464
:104B7000590B8FEB94E00E94ED061816190614F4F9
:104B80000E94B51A4090B6055090B7056090B805E0
:104B90007090B905A301920160E070E0CB010E9422
:104BA000CC346B017C0120E030E0A9010E94CE36BC
:104BB0001816BCF520E030E040E85FE3C701B6011D
:104BC0000E94CE361816BCF1A701960160914E06E0
:104BD00070914F0680915006909151060E94CC34FE
:104BE0004B015C0120E030E0A9010E94CE3618168E
:104BF0000CF045C020E030E040E05FE3C501B401C7
:104C00000E94CE361816BCF040E050E06AE774EC23
:104C100082EC95E00E94590B40E050E06AE774E4B2
:104C200027C020E030E040E85FEBC701B6010E94FA
:104C30007B3187FFC9CFC0924E06D0924F06E092DB
:104C40005006F092510620E030E0A901C301B20104
:104C50000E947B3187FF1EC040E050E06AE774ECA1
:104C600082EC95E00E94590B40E050E06AE774EC5A
:104C700086E096E00E94590B0E94D01914CF20E0E4
:104C800030E040E05FEBC501B4010E947B3187FF5B
:104C9000BBCFD1CF40E050E86BE375E482EC95E008
:104CA0000E94590B40E050E86BE375E4E1CF1092AD
:104CB0005D0610925C0682EC95E00E94940886E006
:104CC00096E00E9494080E94D0198FEB94E00E9415
:104CD000ED06181619060CF0E6CE0E94B51AE3CEC2
:104CE00088E00E94C702909373068093720689E061
:104CF0000E94C70290937506809374068AE00E9412
:104D0000C7029093770680937606009711F58091FD
:104D1000740690917506019709F0C5CE80917206D0
:104D200090917306019709F0BECE40E050E0BA01C1
:104D300082EC95E00E94590B40E050E06AEF74E489
:104D400086E096E00E94590B8EE892E00E944D1892
:104D5000AACE019709F0A7CE8091740690917506AE
:104D60000097C9F48091720690917306019709F03B
:104D70009ACE40E050E06AEF74EC82EC95E00E943D
:104D8000590B40E050E0BA0186E096E00E94590BD2
:104D900084E992E0DBCF019709F085CE809172061D
:104DA00090917306892B09F07ECE40E050E06AEFC7
:104DB00074EC82EC95E00E94590B40E050E06AEF01
:104DC00074E486E096E00E94590B89E992E0BECF38
:104DD0008CE291E090935D0680935C0640E050E0A9
:104DE0006AE774EC82EC95E00E94590B40E050E0D9
:104DF0006AE774EC86E096E00E94590B54CE82EC90
:104E000095E00E94940886E096E00E94940883E072
:104E100090E090934B0680934A0645CED8011B96AE
:104E20008C918F3F41F061E00E94390361E0F8010D
:104E300083850E94F002D8018D919C91892B09F401
:104E400075C1FFB6F8948091E202811127C0EDEBA5
:104E5000F2E08491E3E0F3E09491E82FF0E0EE0FCC
:104E6000FF1FE65CFD4FA591B491EC91E92321F47D
:104E700061E085E30E94F00261E085E30E9439036E
:104E80008CB580618CBD8CB580648CBD61E084E3A1
:104E90000E94390361E083E30E9439038091E202BA
:104EA0008F5F8093E202FFBE81E0F801838F80ED87
:104EB0000E94A01490E0B0E0A0E08093830690935D
:104EC0008406A0938506B093860680369105A105D9
:104ED000B10509F032CE66EB80EE0E94C1146AE0A3
:104EE00070E080E090E00E947A0483EF0E94A014BA
:104EF00080FDF5CF88E80E949A14909390068093E5
:104F00008F068AE80E949A149093920680939106E5
:104F10008CE80E949A1490939406809393068EE8EE
:104F20000E949A14909396068093950680E90E94B9
:104F30009A14909398068093970682E90E949A1497
:104F400090939A068093990684E90E949A1490930C
:104F50009C0680939B0686E90E949A1490939E0675
:104F600080939D0688E90E949A149093A0068093EE
:104F70009F068AE90E949A149093A2068093A10644
:104F80008CE90E949A149093A4068093A3068EE95C
:104F90000E949A149093A6068093A50681EA0E9427
:104FA000A0148093A70681EE0E949A149093A906FC
:104FB0008093A80683EE0E94A0148093AA0684EE34
:104FC0000E94A014182F85EE0E94A014F0E11F0289
:104FD000900111248F70282B3093AC062093AB06E0
:104FE00086EE0E94A014182F85EE0E94A01440E1C6
:104FF00014029001112490E0F4E095958795FA95BC
:10500000E1F7822B932B9093AE068093AD0687EE4B
:105010000E94A0148093AF068DEE8093B10680911C
:10502000B2068F71806A8093B2068091B006807C50
:105030008F778093B00660E084EF0E94C114609186
:10504000B20662956695677082EF0E94C1148091E6
:10505000B006682F677050E2659FB0011124282FB9
:10506000269526952695277094E0299F9001112476
:10507000622B87FB882780F9682B85EF0E94C1147B
:105080008091B106682F6770A0E26A9FB001112479
:10509000282F2695269526952770B4E02B9F900102
:1050A0001124622B8295869586958370682B84EFF8
:1050B0000E94C11464E670E080E090E00E947A04EF
:1050C000589A599A8091B9008E7F8093B900809147
:1050D000B9008D7F8093B90088E48093B80084E4A0
:1050E0008093BC0083E091E10E94FB0783E091E1A3
:1050F0000E94FB07892B31F466E070E080E090E0CD
:105100000E947A0483E390ED0E94FB07892B41F40F
:1051100060E170E0CE0101960E943B05892B89F188
:105120008091F70680648093F706DCCF61E0F80198
:1051300084850E943903D8011A968C911A978B7F27
:10514000E1F460E01C968C910E94F002D8011D965B
:105150008C918F3F41F061E00E94390361E0F801DA
:1051600085850E94F002D8011E968C918F3F09F42C
:105170009BCE60E00E94390397CE61E0F801848500
:10518000E3CF85E090E09A83898380E096E49C8376
:105190008B8342E050E0BE016F5F7F4F84E090E878
:1051A0000E9418088C0165E170E080E090E00E94A8
:1051B0007A04012B29F08091F70680648093F7062A
:1051C00080E093E09A83898341E050E0BE016F5F05
:1051D0007F4F80E190E00E9418088C0165E170E04B
:1051E00080E090E00E947A0417FF05C08091F706E6
:1051F00080648093F7068091D4069091D50600973D
:1052000011F00E94D63786E090E00E943A378C0178
:1052100081E6F80180838CE595E092838183138297
:1052200080E290E0958384831093D5060093D406A2
:105230000E94E30D81E0D80113968C93C8010E946F
:105240000E1081112DC08091F70680618093F706C2
:105250000E94E30D0E94E30D8091BF0691E09093C0
:10526000150380933703109216031092380381E0E0
:105270000E94F30E882329F08091F80680618093C4
:10528000F806E6E0F0E061E070E080E090E0319761
:1052900089F0AAE0B0E09B01AC010E949F32F7CFF9
:1052A00040E050E0BA0182EC96E00E94ED188111D6
:1052B000CFCFC9CF0E9480319B01AC0160E070E08C
:1052C00080E89FE30E94AB354B015C012FE632E1A1
:1052D00043E05BE30E94E1319B01AC016CEA75ECB9
:1052E00087EA9BE30E94AB356B017C0120E030E054
:1052F000A9010E94CE3620E030E040E05FE387FD68
:1053000026C0C701B6010E94CD340E941D366B0134
:105310007C01EAE04E2E512C612C712CC114D10479
:10532000B1E0EB06F104C0F020E030E040E251E4EF
:10533000C501B4010E94E1314B015C01C701B60116
:10534000A30192010E94DD3269017A01E7CFC70112
:10535000B6010E94CC34D9CF8092B3069092B406A5
:10536000A092B506B092B6068091C0069091C10693
:105370002091BF0631E0309315032093370310923C
:10538000160310923803DC01ED91FC910190F0813D
:10539000E02D65E019958091C0069091C1066D2DB4
:1053A0007727DC01ED91FC910190F081E02D1995BA
:1053B0008091C0069091C106DC01ED91FC910190B5
:1053C000F081E02D6C2D199581E00E94F30E20E014
:1053D00030E040E057E46091B3067091B4068091EC
:1053E000B5069091B6060E94E1316093BB067093BA
:1053F000BC068093BD069093BE068FE692E1A3E0C3
:10540000BBE38093B7069093B806A093B906B09318
:10541000BA06E5E0F0E02596FFAFEEAF2597F2E0A3
:10542000F983FA8321E042E050E0BE016F5F7F4FD5
:105430008091D4069091D5060E943C1364E070E000
:1054400080E090E00E947A0442E050E0BE016F5F8D
:105450007F4F8091D4069091D5060E94D612898103
:105460009A818115914039F06AE070E080E090E027
:105470000E947A04D4CF82EC96E00E941E150E940E
:10548000BD136D966CAF7DAF8EAF9FAF6D970E94D1
:10549000BD138DEF0E947314B0E0A0E0811530E8D9
:1054A0009307A105B10509F49DC6C0908706D09069
:1054B0008806E0908906F0908A064CE2D41A41E012
:1054C000E40AF1084C015D018EE0880C991CAA1CCD
:1054D000BB1C8A95D1F78091AB069091AC06092E42
:1054E000000CAA0BBB0B24E1880F991FAA1FBB1F3E
:1054F0002A95D1F7881A990AAA0ABB0AA091AD0683
:10550000B091AE06A70196010E942D33861A970A24
:10551000A80AB90AC501B401705C8F4F9F4F20E003
:1055200030E840E050E00E94FF3229013A01A091AA
:10553000AA06B0E0A70196010E949F3220E038E061
:1055400040E050E00E94FF3249015A0180E8980E85
:10555000A11CB11CA091AF060A2E000CBB0BA70129
:1055600096010E942D3320E034E040E050E00E949C
:10557000FF32CA01B901A50194010E94B93220E0AD
:1055800034E040E050E00E94FF32405E5F4FA09167
:10559000A806B091A9060E942D33705E8F4F9F4FD1
:1055A00020E030E440E050E00E94FF32C301B2014D
:1055B0000E94B9326B017C0120E030E840E050E00D
:1055C0000E94FF32CA01B9010E94B9329B01AC01AD
:1055D00067E055954795379527956A95D1F7A0913E
:1055E000A706B0E00E949F3220E130E040E050E0AA
:1055F0000E94FF32C21AD30AE40AF50AF7FE03C07A
:10560000C12CD12C7601C701B6016130710581052D
:10561000A9E19A0724F060E070E080E099E10CE0F5
:1056200095958795779567950A95D1F70E94803172
:1056300020E030E040E85AE30E94E1312D966CAF63
:105640007DAF8EAF9FAF2D978091C4069091C50618
:10565000A091C606B091C706A1968CAF9DAFAEAF24
:10566000BFAFA1970E94BD1387EF0E948F132996A9
:105670006CAF7DAF8EAF9FAF2997611571058048E4
:10568000910509F4BAC58091870690918806A0918A
:105690008906B0918A066C017D01FF0CCC08DC2CD8
:1056A00076019C01AD016C2D7C2D8C2D9C2D345FE1
:1056B0004140510961097109810991092FA73BAB4B
:1056C0004FAB5BAF6CAF7DAF8EAF9FAF59016A013F
:1056D0007B018C010E94353321962FAF21972296B2
:1056E0003FAF229723964FAF239760965FAF6097A7
:1056F00061966FAF619762967FAF629763968FAF47
:10570000639764969FAF64973091980620919706AF
:10571000932F990F990B492F592F692F792F892F83
:105720000E9435330CE00E94643419012A013B01C8
:105730004C0130919A0620919906932F990F990B5D
:105740002196AFAC21972296BFAC22972396CFAC7F
:1057500023976096DFAC60976196EFAC6197629695
:10576000FFAC629763960FAD639764961FAD649725
:10577000492F592F692F792F892F0E943533F22E07
:10578000032F142FB52FF62FE72FD82EE92EA0E0E8
:105790000E94AC3484F421503F4F4F4F5F4F6F4F06
:1057A0007F4F8F4F9F4FF22E032F142FB52FF62FC1
:1057B000E72FD82EE92E2F2D302F412F5B2F6F2F63
:1057C0007E2F8D2D9E2D08E00E947D3451016201B7
:1057D000730184010E949A3470588F4F9F4F20901C
:1057E0009506309096065101C12CD12CE12CF12C5C
:1057F00000E010E00E943533F22E032F142FB52F56
:10580000F62FE72FD82EE92EA0E00E94AC3484F4C6
:1058100021503109410951096E4F7F4F8F4F9F4FE2
:10582000F22E032F142FB52FF62FE72FD82EE92EA7
:105830002F2D302F412F5B2F6F2F7E2F8D2D9E2DE3
:1058400001E20E947D3465962FAF659766963FAF63
:10585000669767964FAF679768965FAF6897699648
:105860006FAF6997272E382E492EA0E00E94AC34E6
:1058700009F4C8C43091A00620919F06932F990F78
:10588000990B2196AFAC21972296BFAC2297239615
:10589000CFAC23976096DFAC60976196EFAC6197D1
:1058A0006296FFAC629763960FAD639764961FADE7
:1058B0006497492F592F692F792F892F0E943533EB
:1058C00021962FAF219722963FAF229723964FAF75
:1058D0002397552E3B014C0130919E0620919D0649
:1058E000932F990F990BAFA4BBA8CFA8DBACECAC5E
:1058F000FDAC0EAD1FAD492F592F692F792F892F80
:105900000E94353301E10E9464342196AFAC2197A7
:105910002296BFAC22972396CFAC2397D52C730148
:1059200084010E949A3459016A017B01582E192F73
:1059300029968CAD9DADAEADBFAD299724E0B59550
:10594000A795979587952A95D1F720E030E040E11B
:1059500050E0281B390B4A0B5B0BDA01C9013901F6
:105960004A01990C6608762C43019C01AD01662D15
:10597000762D862D962D0FE10E94643439014A015F
:10598000B62FA72FF82FE92F30919C0620919B0668
:10599000932F990F990B492F592F692F792F892F01
:1059A00003E20E946434052D0E949A3459016A0171
:1059B0007B018C019301A4016B2F7A2F8F2F9E2FD7
:1059C0000E94A334E5E3AE2EFCE0BF2EC12CD12C07
:1059D000E12CF12C00E010E00E9435336596AFAC6D
:1059E00065976696BFAC66976796CFAC67976896E3
:1059F000DFAC68976996EFAC6997F22C032D142DF4
:105A00000E948F3319012A013B014C01F22E032D14
:105A1000142FB52DF62FE72DD82EE92CA0E00E94EB
:105A2000AC3484F42150304E4F4F5F4F6F4F7F4F57
:105A30008F4F9F4FF22E032F142FB52FF62FE72FE6
:105A4000D82EE92E2F2D302F412F5B2F6F2F7E2F39
:105A50008D2D9E2D0DE00E947D342FA73BAB4FABCB
:105A60005BAF6CAF7DAF8EAF9FAF3091A60620913C
:105A7000A506932F990F990BAFA4BBA86A017B01D0
:105A8000082F1FAD492F592F692F792F892F0E9479
:105A900035330E943533F22E032F142FB52FF62FF6
:105AA000E72FD82EE92EA0E00E94AC3484F42150D8
:105AB000310941095E4F6F4F7F4F8F4F9F4FF22E3D
:105AC000032F142FB52FF62FE72FD82EE92E2F2DC9
:105AD000302F412F5B2F6F2F7E2F8D2D9E2D09E1B3
